{
  "contractName": "SocialGameToken",
  "abi": [
    {
      "inputs": [],
      "stateMutability": "nonpayable",
      "type": "constructor"
    },
    {
      "anonymous": false,
      "inputs": [
        {
          "indexed": true,
          "internalType": "address",
          "name": "owner",
          "type": "address"
        },
        {
          "indexed": true,
          "internalType": "address",
          "name": "approved",
          "type": "address"
        },
        {
          "indexed": true,
          "internalType": "uint256",
          "name": "tokenId",
          "type": "uint256"
        }
      ],
      "name": "Approval",
      "type": "event"
    },
    {
      "anonymous": false,
      "inputs": [
        {
          "indexed": true,
          "internalType": "address",
          "name": "owner",
          "type": "address"
        },
        {
          "indexed": true,
          "internalType": "address",
          "name": "operator",
          "type": "address"
        },
        {
          "indexed": false,
          "internalType": "bool",
          "name": "approved",
          "type": "bool"
        }
      ],
      "name": "ApprovalForAll",
      "type": "event"
    },
    {
      "anonymous": false,
      "inputs": [
        {
          "indexed": false,
          "internalType": "address",
          "name": "SocialGame",
          "type": "address"
        },
        {
          "indexed": false,
          "internalType": "uint256",
          "name": "gameId",
          "type": "uint256"
        }
      ],
      "name": "GameCreated",
      "type": "event"
    },
    {
      "anonymous": false,
      "inputs": [
        {
          "indexed": true,
          "internalType": "address",
          "name": "previousOwner",
          "type": "address"
        },
        {
          "indexed": true,
          "internalType": "address",
          "name": "newOwner",
          "type": "address"
        }
      ],
      "name": "OwnershipTransferred",
      "type": "event"
    },
    {
      "anonymous": false,
      "inputs": [
        {
          "indexed": true,
          "internalType": "address",
          "name": "from",
          "type": "address"
        },
        {
          "indexed": true,
          "internalType": "address",
          "name": "to",
          "type": "address"
        },
        {
          "indexed": true,
          "internalType": "uint256",
          "name": "tokenId",
          "type": "uint256"
        }
      ],
      "name": "Transfer",
      "type": "event"
    },
    {
      "inputs": [],
      "name": "DEFAULT_ENTRY_COST",
      "outputs": [
        {
          "internalType": "uint256",
          "name": "",
          "type": "uint256"
        }
      ],
      "stateMutability": "view",
      "type": "function",
      "constant": true
    },
    {
      "inputs": [],
      "name": "DEFAULT_PLAYERS",
      "outputs": [
        {
          "internalType": "uint256",
          "name": "",
          "type": "uint256"
        }
      ],
      "stateMutability": "view",
      "type": "function",
      "constant": true
    },
    {
      "inputs": [],
      "name": "MAX_ENDORSERS",
      "outputs": [
        {
          "internalType": "uint256",
          "name": "",
          "type": "uint256"
        }
      ],
      "stateMutability": "view",
      "type": "function",
      "constant": true
    },
    {
      "inputs": [
        {
          "internalType": "address",
          "name": "to",
          "type": "address"
        },
        {
          "internalType": "uint256",
          "name": "tokenId",
          "type": "uint256"
        }
      ],
      "name": "approve",
      "outputs": [],
      "stateMutability": "nonpayable",
      "type": "function"
    },
    {
      "inputs": [
        {
          "internalType": "address",
          "name": "owner",
          "type": "address"
        }
      ],
      "name": "balanceOf",
      "outputs": [
        {
          "internalType": "uint256",
          "name": "",
          "type": "uint256"
        }
      ],
      "stateMutability": "view",
      "type": "function",
      "constant": true
    },
    {
      "inputs": [
        {
          "internalType": "uint256",
          "name": "tokenId",
          "type": "uint256"
        }
      ],
      "name": "getApproved",
      "outputs": [
        {
          "internalType": "address",
          "name": "",
          "type": "address"
        }
      ],
      "stateMutability": "view",
      "type": "function",
      "constant": true
    },
    {
      "inputs": [
        {
          "internalType": "address",
          "name": "owner",
          "type": "address"
        },
        {
          "internalType": "address",
          "name": "operator",
          "type": "address"
        }
      ],
      "name": "isApprovedForAll",
      "outputs": [
        {
          "internalType": "bool",
          "name": "",
          "type": "bool"
        }
      ],
      "stateMutability": "view",
      "type": "function",
      "constant": true
    },
    {
      "inputs": [],
      "name": "name",
      "outputs": [
        {
          "internalType": "string",
          "name": "",
          "type": "string"
        }
      ],
      "stateMutability": "view",
      "type": "function",
      "constant": true
    },
    {
      "inputs": [],
      "name": "owner",
      "outputs": [
        {
          "internalType": "address",
          "name": "",
          "type": "address"
        }
      ],
      "stateMutability": "view",
      "type": "function",
      "constant": true
    },
    {
      "inputs": [
        {
          "internalType": "uint256",
          "name": "tokenId",
          "type": "uint256"
        }
      ],
      "name": "ownerOf",
      "outputs": [
        {
          "internalType": "address",
          "name": "",
          "type": "address"
        }
      ],
      "stateMutability": "view",
      "type": "function",
      "constant": true
    },
    {
      "inputs": [],
      "name": "renounceOwnership",
      "outputs": [],
      "stateMutability": "nonpayable",
      "type": "function"
    },
    {
      "inputs": [
        {
          "internalType": "address",
          "name": "from",
          "type": "address"
        },
        {
          "internalType": "address",
          "name": "to",
          "type": "address"
        },
        {
          "internalType": "uint256",
          "name": "tokenId",
          "type": "uint256"
        }
      ],
      "name": "safeTransferFrom",
      "outputs": [],
      "stateMutability": "nonpayable",
      "type": "function"
    },
    {
      "inputs": [
        {
          "internalType": "address",
          "name": "from",
          "type": "address"
        },
        {
          "internalType": "address",
          "name": "to",
          "type": "address"
        },
        {
          "internalType": "uint256",
          "name": "tokenId",
          "type": "uint256"
        },
        {
          "internalType": "bytes",
          "name": "_data",
          "type": "bytes"
        }
      ],
      "name": "safeTransferFrom",
      "outputs": [],
      "stateMutability": "nonpayable",
      "type": "function"
    },
    {
      "inputs": [
        {
          "internalType": "address",
          "name": "operator",
          "type": "address"
        },
        {
          "internalType": "bool",
          "name": "approved",
          "type": "bool"
        }
      ],
      "name": "setApprovalForAll",
      "outputs": [],
      "stateMutability": "nonpayable",
      "type": "function"
    },
    {
      "inputs": [
        {
          "internalType": "bytes4",
          "name": "interfaceId",
          "type": "bytes4"
        }
      ],
      "name": "supportsInterface",
      "outputs": [
        {
          "internalType": "bool",
          "name": "",
          "type": "bool"
        }
      ],
      "stateMutability": "view",
      "type": "function",
      "constant": true
    },
    {
      "inputs": [],
      "name": "symbol",
      "outputs": [
        {
          "internalType": "string",
          "name": "",
          "type": "string"
        }
      ],
      "stateMutability": "view",
      "type": "function",
      "constant": true
    },
    {
      "inputs": [
        {
          "internalType": "uint256",
          "name": "tokenId",
          "type": "uint256"
        }
      ],
      "name": "tokenURI",
      "outputs": [
        {
          "internalType": "string",
          "name": "",
          "type": "string"
        }
      ],
      "stateMutability": "view",
      "type": "function",
      "constant": true
    },
    {
      "inputs": [
        {
          "internalType": "address",
          "name": "from",
          "type": "address"
        },
        {
          "internalType": "address",
          "name": "to",
          "type": "address"
        },
        {
          "internalType": "uint256",
          "name": "tokenId",
          "type": "uint256"
        }
      ],
      "name": "transferFrom",
      "outputs": [],
      "stateMutability": "nonpayable",
      "type": "function"
    },
    {
      "inputs": [
        {
          "internalType": "address",
          "name": "newOwner",
          "type": "address"
        }
      ],
      "name": "transferOwnership",
      "outputs": [],
      "stateMutability": "nonpayable",
      "type": "function"
    },
    {
      "inputs": [
        {
          "internalType": "address",
          "name": "operator",
          "type": "address"
        },
        {
          "internalType": "address payable",
          "name": "beneficiary_",
          "type": "address"
        },
        {
          "internalType": "uint256",
          "name": "participants_",
          "type": "uint256"
        },
        {
          "internalType": "uint256",
          "name": "pricePerRound_",
          "type": "uint256"
        },
        {
          "internalType": "uint256",
          "name": "totalEndorsers",
          "type": "uint256"
        }
      ],
      "name": "createSocialGame",
      "outputs": [
        {
          "internalType": "uint256",
          "name": "gameId_",
          "type": "uint256"
        }
      ],
      "stateMutability": "nonpayable",
      "type": "function"
    },
    {
      "inputs": [
        {
          "internalType": "address",
          "name": "operator",
          "type": "address"
        },
        {
          "internalType": "address payable",
          "name": "beneficiary_",
          "type": "address"
        },
        {
          "internalType": "uint256",
          "name": "participants_",
          "type": "uint256"
        },
        {
          "internalType": "uint256",
          "name": "pricePerRound_",
          "type": "uint256"
        }
      ],
      "name": "createSocialGame",
      "outputs": [
        {
          "internalType": "uint256",
          "name": "gameId_",
          "type": "uint256"
        }
      ],
      "stateMutability": "nonpayable",
      "type": "function"
    },
    {
      "inputs": [],
      "name": "getGameAddresses",
      "outputs": [
        {
          "internalType": "address[]",
          "name": "games",
          "type": "address[]"
        }
      ],
      "stateMutability": "view",
      "type": "function",
      "constant": true
    },
    {
      "inputs": [
        {
          "internalType": "address",
          "name": "player",
          "type": "address"
        },
        {
          "internalType": "string",
          "name": "tokenURI_",
          "type": "string"
        },
        {
          "internalType": "uint256",
          "name": "gameId",
          "type": "uint256"
        }
      ],
      "name": "enterGame",
      "outputs": [
        {
          "internalType": "uint256",
          "name": "ticket_",
          "type": "uint256"
        }
      ],
      "stateMutability": "nonpayable",
      "type": "function"
    },
    {
      "inputs": [],
      "name": "gameCompleted",
      "outputs": [],
      "stateMutability": "nonpayable",
      "type": "function"
    },
    {
      "inputs": [],
      "name": "getGamesPlayed",
      "outputs": [
        {
          "internalType": "uint256",
          "name": "gamesPlayed_",
          "type": "uint256"
        }
      ],
      "stateMutability": "view",
      "type": "function",
      "constant": true
    },
    {
      "inputs": [],
      "name": "getGamesReporting",
      "outputs": [
        {
          "internalType": "address",
          "name": "reporting",
          "type": "address"
        }
      ],
      "stateMutability": "view",
      "type": "function",
      "constant": true
    },
    {
      "inputs": [
        {
          "internalType": "address",
          "name": "operator",
          "type": "address"
        },
        {
          "internalType": "address",
          "name": "from",
          "type": "address"
        },
        {
          "internalType": "uint256",
          "name": "tokenId",
          "type": "uint256"
        },
        {
          "internalType": "bytes",
          "name": "data",
          "type": "bytes"
        }
      ],
      "name": "onERC721Received",
      "outputs": [
        {
          "internalType": "bytes4",
          "name": "",
          "type": "bytes4"
        }
      ],
      "stateMutability": "nonpayable",
      "type": "function"
    }
  ],
  "bytecode": "0x60806040523480156200001157600080fd5b50604080518082018252601281527129b7b1b4b0b62430b936b7b73caa37b5b2b760711b60208083019182528351808501909452600484526314d2135560e21b908401528151919291620000689160009162000141565b5080516200007e90600190602084019062000141565b5050506000620000936200013d60201b60201c565b600780546001600160a01b0319166001600160a01b038316908117909155604051919250906000907f8be0079c531659141344cd1fd0a4f28419497f9722a3daafe3b4186f6b6457e0908290a350604051620000ef90620001d0565b604051809103906000f0801580156200010c573d6000803e3d6000fd5b50600f80546001600160a01b03929092166001600160a01b0319928316179055601080549091163317905562000232565b3390565b8280546200014f90620001f5565b90600052602060002090601f016020900481019282620001735760008555620001be565b82601f106200018e57805160ff1916838001178555620001be565b82800160010185558215620001be579182015b82811115620001be578251825591602001919060010190620001a1565b50620001cc929150620001de565b5090565b6116a9806200616383390190565b5b80821115620001cc5760008155600101620001df565b600181811c908216806200020a57607f821691505b602082108114156200022c57634e487b7160e01b600052602260045260246000fd5b50919050565b615f2180620002426000396000f3fe60806040523480156200001157600080fd5b5060043610620001665760003560e01c806301ffc9a7146200016b57806306fdde031462000197578063081812fc14620001b0578063095ea7b314620001d6578063150b7a0214620001ef57806323b872dd14620002205780633fcb41f6146200023757806342842e0e146200025d5780634d699f0014620002745780635edf36f8146200027e5780636352211e146200029557806368f39d8b14620002ac57806370a0823114620002b5578063715018a614620002cc5780638a6891da14620002d65780638da5cb5b14620002e857806393a5e09514620002f257806395d89b41146200030b578063a22cb4651462000315578063b88d4fde146200032c578063c87b56dd1462000343578063ca06a3f8146200035a578063e5d5f4e91462000364578063e66a1ab1146200036d578063e985e9c51462000384578063eccfd1ff146200039b578063f2fde38b14620003ab575b600080fd5b620001826200017c36600462002188565b620003c2565b60405190151581526020015b60405180910390f35b620001a162000416565b6040516200018e9190620022ff565b620001c7620001c1366004620021c8565b620004b0565b6040516200018e91906200225d565b620001ed620001e736600462002159565b62000540565b005b620002066200020036600462001f80565b6200065c565b6040516001600160e01b031990911681526020016200018e565b620001ed6200023136600462001f3a565b620007d0565b6200024e6200024836600462001ee4565b62000808565b6040519081526020016200018e565b620001ed6200026e36600462001f3a565b62000b0e565b620001ed62000b2b565b6200024e6200028f36600462001e99565b62000d5e565b620001c7620002a6366004620021c8565b62000d79565b6200024e601481565b6200024e620002c636600462001e3b565b62000df2565b620001ed62000e7b565b600f546001600160a01b0316620001c7565b620001c762000ee8565b620002fc62000ef7565b6040516200018e9190620022b0565b620001a162000f5a565b620001ed62000326366004620020af565b62000f6b565b620001ed6200033d36600462002027565b6200102e565b620001a162000354366004620021c8565b6200106d565b6200024e620011f7565b6200024e606481565b6200024e6200037e366004620020e6565b62001208565b620001826200039536600462001e5b565b620012db565b6200024e670de0b6b3a764000081565b620001ed620003bc36600462001e3b565b62001309565b60006001600160e01b031982166380ac58cd60e01b1480620003f457506001600160e01b03198216635b5e139f60e01b145b806200041057506301ffc9a760e01b6001600160e01b03198316145b92915050565b606060008054620004279062002467565b80601f0160208091040260200160405190810160405280929190818152602001828054620004559062002467565b8015620004a65780601f106200047a57610100808354040283529160200191620004a6565b820191906000526020600020905b8154815290600101906020018083116200048857829003601f168201915b5050505050905090565b6000620004bd82620013ef565b620005245760405162461bcd60e51b815260206004820152602c60248201527f4552433732313a20617070726f76656420717565727920666f72206e6f6e657860448201526b34b9ba32b73a103a37b5b2b760a11b60648201526084015b60405180910390fd5b506000908152600460205260409020546001600160a01b031690565b60006200054d8262000d79565b9050806001600160a01b0316836001600160a01b03161415620005bd5760405162461bcd60e51b815260206004820152602160248201527f4552433732313a20617070726f76616c20746f2063757272656e74206f776e656044820152603960f91b60648201526084016200051b565b336001600160a01b0382161480620005dc5750620005dc8133620012db565b6200064b5760405162461bcd60e51b815260206004820152603860248201527f4552433732313a20617070726f76652063616c6c6572206973206e6f74206f776044820152771b995c881b9bdc88185c1c1c9bdd995908199bdc88185b1b60421b60648201526084016200051b565b6200065783836200140c565b505050565b60006064670de0b6b3a7640000601460608514156200074557620006b686868080601f016020809104026020016040519081016040528093929190818152602001838380828437600092018290525092506200147c915050565b9250620006fc86868080601f016020809104026020016040519081016040528093929190818152602001838380828437600092019190915250602092506200147c915050565b91506200074286868080601f016020809104026020016040519081016040528093929190818152602001838380828437600092019190915250604092506200147c915050565b90505b6000620007568a8a86868662000808565b604080516060810182526001600160a01b03808d16825260208083018d8152338486019081526000968752600e90925293909420915182549082166001600160a01b03199182161783559251600183015592516002909101805491909316911617905550630a85bd0160e11b935050505095945050505050565b620007dc3382620014cf565b620007fb5760405162461bcd60e51b81526004016200051b906200239b565b620006578383836200159d565b60006200081460095490565b62000866576010546001600160a01b03878116911614620008615760405162461bcd60e51b815260206004820152600660248201526508aa4be6064760d31b60448201526064016200051b565b600091505b62000875600980546001019055565b60095490506000858585848630600f60009054906101000a90046001600160a01b0316604051620008a69062001d0b565b6001600160a01b0397881681526020810196909652604086019490945260608501929092526080840152831660a083015290911660c082015260e001604051809103906000f080158015620008ff573d6000803e3d6000fd5b5060405163f2fde38b60e01b81529091506001600160a01b0382169063f2fde38b9062000931908a906004016200225d565b600060405180830381600087803b1580156200094c57600080fd5b505af115801562000961573d6000803e3d6000fd5b5050506001600160a01b0382166000818152600a60209081526040808320879055805163d7c81b5560e01b8152905160019550600c949263d7c81b559260048082019391829003018186803b158015620009ba57600080fd5b505afa158015620009cf573d6000803e3d6000fd5b505050506040513d601f19601f82011682018060405250810190620009f59190620021e2565b815260208101919091526040908101600020805460ff191692151592909217909155600f549051630ae5e73960e01b81526001600160a01b0390911690630ae5e7399062000a489084906004016200225d565b600060405180830381600087803b15801562000a6357600080fd5b505af115801562000a78573d6000803e3d6000fd5b5050600b80546001810182556000919091527f0175b7a638427703f0dbe7bb9bbf987a2551717b34e79f33b5b1008d1fa01db90180546001600160a01b0319166001600160a01b03851690811790915560408051918252602082018690527f306841c3fce8498c2d9b7194b8da4c04d03847394e237b625ce6d029b107f077935001905060405180910390a15095945050505050565b62000657838383604051806020016040528060008152506200102e565b336000908152600a60205260409020548062000b735760405162461bcd60e51b815260206004820152600660248201526545525f30333160d01b60448201526064016200051b565b6000818152600c602052604090205460ff16151560011462000bc15760405162461bcd60e51b815260206004820152600660248201526522a92f98199960d11b60448201526064016200051b565b600f546040516385e6853160e01b815233916001600160a01b0316906385e685319062000bf39084906004016200225d565b600060405180830381600087803b15801562000c0e57600080fd5b505af115801562000c23573d6000803e3d6000fd5b5050506000838152600c60209081526040808320805460ff19169055600e90915290206001015415905062000d5a576000828152600e6020908152604091829020825160608101845281546001600160a01b039081168083526001840154948301859052600290930154168185018190529351632142170760e11b81523060048201526024810192909252604482019290925290919081906342842e0e90606401600060405180830381600087803b15801562000cdf57600080fd5b505af115801562000cf4573d6000803e3d6000fd5b505060408051606081018252600080825260208083018281528385018381528b8452600e90925293909120915182546001600160a01b03199081166001600160a01b03928316178455935160018401559051600290920180549093169116179055505050505b5050565b600062000d7085858585601462000808565b95945050505050565b6000818152600260205260408120546001600160a01b031680620004105760405162461bcd60e51b815260206004820152602960248201527f4552433732313a206f776e657220717565727920666f72206e6f6e657869737460448201526832b73a103a37b5b2b760b91b60648201526084016200051b565b60006001600160a01b03821662000e5f5760405162461bcd60e51b815260206004820152602a60248201527f4552433732313a2062616c616e636520717565727920666f7220746865207a65604482015269726f206164647265737360b01b60648201526084016200051b565b506001600160a01b031660009081526003602052604090205490565b3362000e8662000ee8565b6001600160a01b03161462000eaf5760405162461bcd60e51b81526004016200051b9062002366565b6007546040516000916001600160a01b03169060008051602062005eac833981519152908390a3600780546001600160a01b0319169055565b6007546001600160a01b031690565b6060600b805480602002602001604051908101604052809291908181526020018280548015620004a657602002820191906000526020600020905b81546001600160a01b0316815260019091019060200180831162000f32575050505050905090565b606060018054620004279062002467565b6001600160a01b03821633141562000fc25760405162461bcd60e51b815260206004820152601960248201527822a9219b99189d1030b8383937bb32903a379031b0b63632b960391b60448201526064016200051b565b3360008181526005602090815260408083206001600160a01b03871680855290835292819020805460ff191686151590811790915590519081529192917f17307eab39ab6107e8899845ad3d59bd9653f200f220920489ca2b5937696c31910160405180910390a35050565b6200103a3383620014cf565b620010595760405162461bcd60e51b81526004016200051b906200239b565b620010678484848462001745565b50505050565b60606200107a82620013ef565b620010e25760405162461bcd60e51b815260206004820152603160248201527f45524337323155524953746f726167653a2055524920717565727920666f72206044820152703737b732bc34b9ba32b73a103a37b5b2b760791b60648201526084016200051b565b60008281526006602052604081208054620010fd9062002467565b80601f01602080910402602001604051908101604052809291908181526020018280546200112b9062002467565b80156200117c5780601f1062001150576101008083540402835291602001916200117c565b820191906000526020600020905b8154815290600101906020018083116200115e57829003601f168201915b5050505050905060006200119b60408051602081019091526000815290565b9050805160001415620011af575092915050565b815115620011e4578082604051602001620011cc9291906200222a565b60405160208183030381529060405292505050919050565b620011ef846200177f565b949350505050565b60006200120360095490565b905090565b336000908152600a60205260408120546200124f5760405162461bcd60e51b815260206004820152600660248201526545525f30323960d01b60448201526064016200051b565b336000908152600a60205260409020548214620012985760405162461bcd60e51b8152602060048201526006602482015265045525f3033360d41b60448201526064016200051b565b620012a7600880546001019055565b50600854620012b7848262001862565b620012c3818462001999565b6000818152600d602052604090209190915592915050565b6001600160a01b03918216600090815260056020908152604080832093909416825291909152205460ff1690565b336200131462000ee8565b6001600160a01b0316146200133d5760405162461bcd60e51b81526004016200051b9062002366565b6001600160a01b038116620013a45760405162461bcd60e51b815260206004820152602660248201527f4f776e61626c653a206e6577206f776e657220697320746865207a65726f206160448201526564647265737360d01b60648201526084016200051b565b6007546040516001600160a01b0380841692169060008051602062005eac83398151915290600090a3600780546001600160a01b0319166001600160a01b0392909216919091179055565b6000908152600260205260409020546001600160a01b0316151590565b600081815260046020526040902080546001600160a01b0319166001600160a01b0384169081179091558190620014438262000d79565b6001600160a01b03167f8c5be1e5ebec7d5bd14f71427d1e84f3dd0314c0f7b2291e5b200ac8c7c3b92560405160405180910390a45050565b60006200148b826020620023ec565b83511015620014c65760405162461bcd60e51b815260206004820152600660248201526545525f30333560d01b60448201526064016200051b565b50016020015190565b6000620014dc82620013ef565b6200153f5760405162461bcd60e51b815260206004820152602c60248201527f4552433732313a206f70657261746f7220717565727920666f72206e6f6e657860448201526b34b9ba32b73a103a37b5b2b760a11b60648201526084016200051b565b60006200154c8362000d79565b9050806001600160a01b0316846001600160a01b031614806200158a5750836001600160a01b03166200157f84620004b0565b6001600160a01b0316145b80620011ef5750620011ef8185620012db565b826001600160a01b0316620015b28262000d79565b6001600160a01b0316146200161c5760405162461bcd60e51b815260206004820152602960248201527f4552433732313a207472616e73666572206f6620746f6b656e2074686174206960448201526839903737ba1037bbb760b91b60648201526084016200051b565b6001600160a01b038216620016805760405162461bcd60e51b8152602060048201526024808201527f4552433732313a207472616e7366657220746f20746865207a65726f206164646044820152637265737360e01b60648201526084016200051b565b6200168d83838362001a2a565b6200169a6000826200140c565b6001600160a01b0383166000908152600360205260408120805460019290620016c59084906200241e565b90915550506001600160a01b0382166000908152600360205260408120805460019290620016f5908490620023ec565b909155505060008181526002602052604080822080546001600160a01b0319166001600160a01b03868116918217909255915184939187169160008051602062005ecc83398151915291a4505050565b620017528484846200159d565b620017608484848462001adb565b620010675760405162461bcd60e51b81526004016200051b9062002314565b60606200178c82620013ef565b620017f25760405162461bcd60e51b815260206004820152602f60248201527f4552433732314d657461646174613a2055524920717565727920666f72206e6f60448201526e3732bc34b9ba32b73a103a37b5b2b760891b60648201526084016200051b565b60006200180a60408051602081019091526000815290565b905060008151116200182c57604051806020016040528060008152506200185b565b80620018388462001bf6565b6040516020016200184b9291906200222a565b6040516020818303038152906040525b9392505050565b6001600160a01b038216620018ba5760405162461bcd60e51b815260206004820181905260248201527f4552433732313a206d696e7420746f20746865207a65726f206164647265737360448201526064016200051b565b620018c581620013ef565b15620019135760405162461bcd60e51b815260206004820152601c60248201527b115490cdcc8c4e881d1bdad95b88185b1c9958591e481b5a5b9d195960221b60448201526064016200051b565b620019216000838362001a2a565b6001600160a01b03821660009081526003602052604081208054600192906200194c908490620023ec565b909155505060008181526002602052604080822080546001600160a01b0319166001600160a01b038616908117909155905183929060008051602062005ecc833981519152908290a45050565b620019a482620013ef565b62001a095760405162461bcd60e51b815260206004820152602e60248201527f45524337323155524953746f726167653a2055524920736574206f66206e6f6e60448201526d32bc34b9ba32b73a103a37b5b2b760911b60648201526084016200051b565b60008281526006602090815260409091208251620006579284019062001d19565b6001600160a01b03831662001a3e57505050565b6000818152600d602052604090205462001a845760405162461bcd60e51b815260206004820152600660248201526545525f30333360d01b60448201526064016200051b565b6000818152600d60209081526040808320548352600c90915290205460ff1615620006575760405162461bcd60e51b8152602060048201526006602482015265115497cc0ccd60d21b60448201526064016200051b565b60006001600160a01b0384163b1562001beb57604051630a85bd0160e11b81526001600160a01b0385169063150b7a029062001b2290339089908890889060040162002271565b602060405180830381600087803b15801562001b3d57600080fd5b505af192505050801562001b70575060408051601f3d908101601f1916820190925262001b6d91810190620021a8565b60015b62001bd0573d80801562001ba1576040519150601f19603f3d011682016040523d82523d6000602084013e62001ba6565b606091505b50805162001bc85760405162461bcd60e51b81526004016200051b9062002314565b805181602001fd5b6001600160e01b031916630a85bd0160e11b149050620011ef565b506001949350505050565b60608162001c1b5750506040805180820190915260018152600360fc1b602082015290565b8160005b811562001c4b578062001c3281620024a4565b915062001c439050600a8362002407565b915062001c1f565b6000816001600160401b0381111562001c685762001c686200251b565b6040519080825280601f01601f19166020018201604052801562001c93576020820181803683370190505b5090505b8415620011ef5762001cab6001836200241e565b915062001cba600a86620024c2565b62001cc7906030620023ec565b60f81b81838151811062001cdf5762001cdf62002505565b60200101906001600160f81b031916908160001a90535062001d03600a8662002407565b945062001c97565b61394a806200256283390190565b82805462001d279062002467565b90600052602060002090601f01602090048101928262001d4b576000855562001d96565b82601f1062001d6657805160ff191683800117855562001d96565b8280016001018555821562001d96579182015b8281111562001d9657825182559160200191906001019062001d79565b5062001da492915062001da8565b5090565b5b8082111562001da4576000815560010162001da9565b60006001600160401b038084111562001ddc5762001ddc6200251b565b604051601f8501601f19908116603f0116810190828211818310171562001e075762001e076200251b565b8160405280935085815286868601111562001e2157600080fd5b858560208301376000602087830101525050509392505050565b60006020828403121562001e4e57600080fd5b81356200185b8162002531565b6000806040838503121562001e6f57600080fd5b823562001e7c8162002531565b9150602083013562001e8e8162002531565b809150509250929050565b6000806000806080858703121562001eb057600080fd5b843562001ebd8162002531565b9350602085013562001ecf8162002531565b93969395505050506040820135916060013590565b600080600080600060a0868803121562001efd57600080fd5b853562001f0a8162002531565b9450602086013562001f1c8162002531565b94979496505050506040830135926060810135926080909101359150565b60008060006060848603121562001f5057600080fd5b833562001f5d8162002531565b9250602084013562001f6f8162002531565b929592945050506040919091013590565b60008060008060006080868803121562001f9957600080fd5b853562001fa68162002531565b9450602086013562001fb88162002531565b93506040860135925060608601356001600160401b038082111562001fdc57600080fd5b818801915088601f83011262001ff157600080fd5b8135818111156200200157600080fd5b8960208285010111156200201457600080fd5b9699959850939650602001949392505050565b600080600080608085870312156200203e57600080fd5b84356200204b8162002531565b935060208501356200205d8162002531565b92506040850135915060608501356001600160401b038111156200208057600080fd5b8501601f810187136200209257600080fd5b620020a38782356020840162001dbf565b91505092959194509250565b60008060408385031215620020c357600080fd5b8235620020d08162002531565b91506020830135801515811462001e8e57600080fd5b600080600060608486031215620020fc57600080fd5b8335620021098162002531565b925060208401356001600160401b038111156200212557600080fd5b8401601f810186136200213757600080fd5b620021488682356020840162001dbf565b925050604084013590509250925092565b600080604083850312156200216d57600080fd5b82356200217a8162002531565b946020939093013593505050565b6000602082840312156200219b57600080fd5b81356200185b816200254a565b600060208284031215620021bb57600080fd5b81516200185b816200254a565b600060208284031215620021db57600080fd5b5035919050565b600060208284031215620021f557600080fd5b5051919050565b600081518084526200221681602086016020860162002438565b601f01601f19169290920160200192915050565b600083516200223e81846020880162002438565b8351908301906200225481836020880162002438565b01949350505050565b6001600160a01b0391909116815260200190565b6001600160a01b0385811682528416602082015260408101839052608060608201819052600090620022a690830184620021fc565b9695505050505050565b6020808252825182820181905260009190848201906040850190845b81811015620022f35783516001600160a01b031683529284019291840191600101620022cc565b50909695505050505050565b6020815260006200185b6020830184620021fc565b60208082526032908201527f4552433732313a207472616e7366657220746f206e6f6e20455243373231526560408201527131b2b4bb32b91034b6b83632b6b2b73a32b960711b606082015260800190565b6020808252818101527f4f776e61626c653a2063616c6c6572206973206e6f7420746865206f776e6572604082015260600190565b60208082526031908201527f4552433732313a207472616e736665722063616c6c6572206973206e6f74206f6040820152701ddb995c881b9bdc88185c1c1c9bdd9959607a1b606082015260800190565b60008219821115620024025762002402620024d9565b500190565b600082620024195762002419620024ef565b500490565b600082821015620024335762002433620024d9565b500390565b60005b83811015620024555781810151838201526020016200243b565b83811115620010675750506000910152565b600181811c908216806200247c57607f821691505b602082108114156200249e57634e487b7160e01b600052602260045260246000fd5b50919050565b6000600019821415620024bb57620024bb620024d9565b5060010190565b600082620024d457620024d4620024ef565b500690565b634e487b7160e01b600052601160045260246000fd5b634e487b7160e01b600052601260045260246000fd5b634e487b7160e01b600052603260045260246000fd5b634e487b7160e01b600052604160045260246000fd5b6001600160a01b03811681146200254757600080fd5b50565b6001600160e01b0319811681146200254757600080fdfe6101406040523480156200001257600080fd5b506040516200394a3803806200394a8339810160408190526200003591620001e0565b600080546001600160a01b031916339081178255604051909182917f8be0079c531659141344cd1fd0a4f28419497f9722a3daafe3b4186f6b6457e0908290a35060008511620000b55760405162461bcd60e51b815260206004820152600660248201526545525f30303160d01b60448201526064015b60405180910390fd5b60038611620000f05760405162461bcd60e51b815260206004820152600660248201526522a92f98181960d11b6044820152606401620000ac565b86604051620000ff90620001d2565b6200010b91906200025c565b604051809103906000f08015801562000128573d6000803e3d6000fd5b5060601b6001600160601b03191660805260405130906200014990620001d2565b6200015591906200025c565b604051809103906000f08015801562000172573d6000803e3d6000fd5b5060601b6001600160601b03191660a05260e09590955260c09390935261010091909152600580546001600160a01b03199081166001600160a01b0394851617909155600680549091169290931691909117909155610120525062000289565b610bfd8062002d4d83390190565b600080600080600080600060e0888a031215620001fc57600080fd5b8751620002098162000270565b809750506020880151955060408801519450606088015193506080880151925060a0880151620002398162000270565b60c08901519092506200024c8162000270565b8091505092959891949750929550565b6001600160a01b0391909116815260200190565b6001600160a01b03811681146200028657600080fd5b50565b60805160601c60a05160601c60c05160e0516101005161012051612979620003d460003960008181610435015281816107f5015281816116300152818161168c01528181611c650152611d1301526000818161057301528181611864015261193701526000818161037301528181610e8801528181610f2801528181610f8c0152818161149f015281816119f90152611d3b01526000818161050701528181610ea901528181610f4901528181610fad015281816114ca0152611d5c01526000818161019d01528181610205015281816109a501528181610b0001528181610c4e015281816111aa01528181611795015281816120db015261214e01526000818161093201528181610bd2015281816110f6015281816112760152818161138d015281816113ee01528181611573015281816116f601528181611b80015261206801526129796000f3fe60806040526004361061018d5760003560e01c806303ee438c1461025b578063150b7a0214610286578063235004ac146102bf578063291b3d60146102ec57806329dd29c71461030f5780632b63a58514610324578063590e1ae31461033957806367ee66e6146103415780636c4470fb1461036157806370740ac914610395578063715018a6146103aa578063750521f5146103bf5780637534c9a2146103df578063789c20f9146103ff5780637ec42e69146104235780638773f4f4146104575780638da5cb5b1461046c57806394f649dd146104815780639af6549a146104b6578063a26dbf26146104cb578063acffa436146104e0578063b2c744a8146104f5578063b5ae451914610529578063c39b583c1461053f578063d11711a214610559578063d62fbc3514610457578063d7c81b5514610561578063df15c37e14610595578063eb1b99871461062c578063ec6e563d14610641578063ee31b8cd14610656578063f12be3261461066b578063f2fde38b1461068b578063fe437ae7146106ab576101fa565b366101fa57336001600160a01b037f000000000000000000000000000000000000000000000000000000000000000016146101f85760405162461bcd60e51b815260206004820152600660248201526545525f30323360d01b60448201526064015b60405180910390fd5b005b336001600160a01b037f000000000000000000000000000000000000000000000000000000000000000016146101f85760405162461bcd60e51b8152602060048201526006602482015265115497cc0c8d60d21b60448201526064016101ef565b34801561026757600080fd5b506102706106d0565b60405161027d919061278e565b60405180910390f35b34801561029257600080fd5b506102a66102a136600461253d565b61075e565b6040516001600160e01b0319909116815260200161027d565b3480156102cb57600080fd5b506003546102df906001600160a01b031681565b60405161027d919061272b565b3480156102f857600080fd5b50610301601481565b60405190815260200161027d565b34801561031b57600080fd5b50610301600a81565b34801561033057600080fd5b506101f86108c5565b6101f8610aa9565b34801561034d57600080fd5b506004546102df906001600160a01b031681565b34801561036d57600080fd5b506103017f000000000000000000000000000000000000000000000000000000000000000081565b3480156103a157600080fd5b506101f8610cf0565b3480156103b657600080fd5b506101f861100b565b3480156103cb57600080fd5b506101f86103da3660046125fc565b611072565b3480156103eb57600080fd5b506102df6103fa3660046126ac565b6110b8565b34801561040b57600080fd5b5060025460ff165b604051901515815260200161027d565b34801561042f57600080fd5b506103017f000000000000000000000000000000000000000000000000000000000000000081565b34801561046357600080fd5b50610301600581565b34801561047857600080fd5b506102df6110e2565b34801561048d57600080fd5b506104a161049c3660046124fc565b6110f1565b6040805192835260208301919091520161027d565b3480156104c257600080fd5b506101f8611236565b3480156104d757600080fd5b5061030161148e565b3480156104ec57600080fd5b50610301603c81565b34801561050157600080fd5b506103017f000000000000000000000000000000000000000000000000000000000000000081565b34801561053557600080fd5b5061030160075481565b34801561054b57600080fd5b506002546104139060ff1681565b6101f86114c8565b34801561056d57600080fd5b506103017f000000000000000000000000000000000000000000000000000000000000000081565b3480156105a157600080fd5b506105ea6002546003546004546001600160a01b036101009093048316939183169281169160ff600160a01b8304811692600160a81b8104821692600160b01b90910490911690565b604080516001600160a01b03978816815295871660208701529390951692840192909252151560608301521515608082015290151560a082015260c00161027d565b34801561063857600080fd5b506101f8611a37565b34801561064d57600080fd5b50610413611b7a565b34801561066257600080fd5b506101f8611c26565b34801561067757600080fd5b506104136106863660046124fc565b611de4565b34801561069757600080fd5b506101f86106a63660046124fc565b611e33565b3480156106b757600080fd5b506002546102df9061010090046001600160a01b031681565b600980546106dd90612838565b80601f016020809104026020016040519081016040528092919081815260200182805461070990612838565b80156107565780601f1061072b57610100808354040283529160200191610756565b820191906000526020600020905b81548152906001019060200180831161073957829003601f168201915b505050505081565b6005546000906001600160a01b031633146107a45760405162461bcd60e51b815260206004820152600660248201526545525f30323560d01b60448201526064016101ef565b6001600160a01b038516600090815260086020526040902054156107f35760405162461bcd60e51b815260206004820152600660248201526522a92f98191b60d11b60448201526064016101ef565b7f00000000000000000000000000000000000000000000000000000000000000006007541061084d5760405162461bcd60e51b815260206004820152600660248201526545525f30323760d01b60448201526064016101ef565b6001600160a01b03851660009081526008602052604090208490556007546108769060016127d6565b6007556040517f6c1db45156f46e792997773bd94e0ccff5ee22722c352b5379d5c7c1dc7b4afb906108ab908790879061273f565b60405180910390a150630a85bd0160e11b95945050505050565b336108ce6110e2565b6001600160a01b0316146108f45760405162461bcd60e51b81526004016101ef906127a1565b60025460ff16156109305760405162461bcd60e51b815260206004820152600660248201526522a92f98191960d11b60448201526064016101ef565b7f00000000000000000000000000000000000000000000000000000000000000006001600160a01b0316638c52dc416040518163ffffffff1660e01b8152600401600060405180830381600087803b15801561098b57600080fd5b505af115801561099f573d6000803e3d6000fd5b505050507f00000000000000000000000000000000000000000000000000000000000000006001600160a01b0316638c52dc416040518163ffffffff1660e01b8152600401600060405180830381600087803b1580156109fe57600080fd5b505af1158015610a12573d6000803e3d6000fd5b50505050600560009054906101000a90046001600160a01b03166001600160a01b0316634d699f006040518163ffffffff1660e01b8152600401600060405180830381600087803b158015610a6657600080fd5b505af1158015610a7a573d6000803e3d6000fd5b50506040517f1dc43dc4f1689be1269b3e80407b3401b4cb752c02591cac32e47dfd758af27d925060009150a1565b610ab1611b7a565b610ae65760405162461bcd60e51b815260206004820152600660248201526508aa4be6060760d31b60448201526064016101ef565b6040516371d4ed8d60e11b81526000906001600160a01b037f0000000000000000000000000000000000000000000000000000000000000000169063e3a9db1a90610b3590339060040161272b565b60206040518083038186803b158015610b4d57600080fd5b505afa158015610b61573d6000803e3d6000fd5b505050506040513d601f19601f82011682018060405250810190610b8591906126c5565b11610bbb5760405162461bcd60e51b815260206004820152600660248201526545525f30303960d01b60448201526064016101ef565b6040516351cff8d960e01b81526001600160a01b037f000000000000000000000000000000000000000000000000000000000000000016906351cff8d990610c0790339060040161272b565b600060405180830381600087803b158015610c2157600080fd5b505af1158015610c35573d6000803e3d6000fd5b50506040516351cff8d960e01b81526001600160a01b037f00000000000000000000000000000000000000000000000000000000000000001692506351cff8d99150610c8590339060040161272b565b600060405180830381600087803b158015610c9f57600080fd5b505af1158015610cb3573d6000803e3d6000fd5b505050507f167242d43394c1ae34826c8d7544822cbe8c1071d221a571aad57cdd2c2a2fd333604051610ce6919061272b565b60405180910390a1565b60025460ff16610d2b5760405162461bcd60e51b815260206004820152600660248201526522a92f98189960d11b60448201526064016101ef565b60025461010090046001600160a01b0316331480610d5357506003546001600160a01b031633145b80610d6857506004546001600160a01b031633145b610d9d5760405162461bcd60e51b815260206004820152600660248201526545525f30313360d01b60448201526064016101ef565b60025461010090046001600160a01b031633148015610dc65750600454600160a01b900460ff16155b80610df057506003546001600160a01b031633148015610df05750600454600160a81b900460ff16155b80610e1a57506004546001600160a01b031633148015610e1a5750600454600160b01b900460ff16155b610e4f5760405162461bcd60e51b8152602060048201526006602482015265115497cc0c4d60d21b60448201526064016101ef565b600254339061010090046001600160a01b0316811415610ef6576004805460ff60a01b1916600160a01b179055610ef160646014610ecd7f00000000000000000000000000000000000000000000000000000000000000007f0000000000000000000000000000000000000000000000000000000000000000612802565b610ed79190612802565b610ee191906127ee565b6001600160a01b03831690611f10565b610fd1565b6003546001600160a01b0316331415610f6d576004805460ff60a81b1916600160a81b179055610ef16064600a610ecd7f00000000000000000000000000000000000000000000000000000000000000007f0000000000000000000000000000000000000000000000000000000000000000612802565b6004805460ff60b01b1916600160b01b179055610fd160646005610ecd7f00000000000000000000000000000000000000000000000000000000000000007f0000000000000000000000000000000000000000000000000000000000000000612802565b7f09f058359c5a4d11027ce8027f5f0f4df210cb3ebac92f2c584170ed78624dd833604051611000919061272b565b60405180910390a150565b336110146110e2565b6001600160a01b03161461103a5760405162461bcd60e51b81526004016101ef906127a1565b600080546040516001600160a01b0390911690600080516020612924833981519152908390a3600080546001600160a01b0319169055565b3361107b6110e2565b6001600160a01b0316146110a15760405162461bcd60e51b81526004016101ef906127a1565b80516110b4906009906020840190612463565b5050565b600181815481106110c857600080fd5b6000918252602090912001546001600160a01b0316905081565b6000546001600160a01b031690565b6000807f00000000000000000000000000000000000000000000000000000000000000006001600160a01b031663e3a9db1a846040518263ffffffff1660e01b8152600401611140919061272b565b60206040518083038186803b15801561115857600080fd5b505afa15801561116c573d6000803e3d6000fd5b505050506040513d601f19601f8201168201806040525081019061119091906126c5565b6040516371d4ed8d60e11b81529092506001600160a01b037f0000000000000000000000000000000000000000000000000000000000000000169063e3a9db1a906111df90869060040161272b565b60206040518083038186803b1580156111f757600080fd5b505afa15801561120b573d6000803e3d6000fd5b505050506040513d601f19601f8201168201806040525081019061122f91906126c5565b9050915091565b61123e611b7a565b156112745760405162461bcd60e51b815260206004820152600660248201526508aa4be6062760d31b60448201526064016101ef565b7f00000000000000000000000000000000000000000000000000000000000000006001600160a01b03166338af3eed6040518163ffffffff1660e01b815260040160206040518083038186803b1580156112cd57600080fd5b505afa1580156112e1573d6000803e3d6000fd5b505050506040513d601f19601f820116820180604052508101906113059190612520565b6001600160a01b0316336001600160a01b03161461134e5760405162461bcd60e51b815260206004820152600660248201526545525f30313960d01b60448201526064016101ef565b60025460ff166113895760405162461bcd60e51b8152602060048201526006602482015265045525f3032360d41b60448201526064016101ef565b60007f00000000000000000000000000000000000000000000000000000000000000006001600160a01b031631116113ec5760405162461bcd60e51b815260206004820152600660248201526545525f30323160d01b60448201526064016101ef565b7f00000000000000000000000000000000000000000000000000000000000000006001600160a01b0316639af6549a6040518163ffffffff1660e01b8152600401600060405180830381600087803b15801561144757600080fd5b505af115801561145b573d6000803e3d6000fd5b505050507fcb521d22cc2e41947c2b6ccfda03178961b692e976ca005baacd005317856b1d33604051610ce6919061272b565b60025460009060ff16156114c157507f000000000000000000000000000000000000000000000000000000000000000090565b5060015490565b7f000000000000000000000000000000000000000000000000000000000000000034146115205760405162461bcd60e51b8152602060048201526006602482015265115497cc0c0d60d21b60448201526064016101ef565b60025460ff161561155c5760405162461bcd60e51b815260206004820152600660248201526545525f30303560d01b60448201526064016101ef565b6040516371d4ed8d60e11b81526001600160a01b037f0000000000000000000000000000000000000000000000000000000000000000169063e3a9db1a906115a890339060040161272b565b60206040518083038186803b1580156115c057600080fd5b505afa1580156115d4573d6000803e3d6000fd5b505050506040513d601f19601f820116820180604052508101906115f891906126c5565b1561162e5760405162461bcd60e51b815260206004820152600660248201526522a92f98181b60d11b60448201526064016101ef565b7f0000000000000000000000000000000000000000000000000000000000000000600754146116885760405162461bcd60e51b815260206004820152600660248201526545525f30303760d01b60448201526064016101ef565b60007f00000000000000000000000000000000000000000000000000000000000000006116b3575060055b6001805480820182556000919091527fb10e2d527612073b26eecdfd717e6a320cf44b4afac2b0732d9fcbe2b7fa0cf60180546001600160a01b031916331790557f00000000000000000000000000000000000000000000000000000000000000006001600160a01b031663f340fa01606461173084603c6127d6565b61173a9034612802565b61174491906127ee565b336040518363ffffffff1660e01b8152600401611761919061272b565b6000604051808303818588803b15801561177a57600080fd5b505af115801561178e573d6000803e3d6000fd5b50505050507f00000000000000000000000000000000000000000000000000000000000000006001600160a01b031663f340fa01606483603c6117d191906127d6565b6117dc906064612821565b6117e69034612802565b6117f091906127ee565b336040518363ffffffff1660e01b815260040161180d919061272b565b6000604051808303818588803b15801561182657600080fd5b505af115801561183a573d6000803e3d6000fd5b505060055460405163e66a1ab160e01b8152336004820152606060248201526000606482018190527f0000000000000000000000000000000000000000000000000000000000000000604483015294506001600160a01b03909116925063e66a1ab19150608401602060405180830381600087803b1580156118bb57600080fd5b505af11580156118cf573d6000803e3d6000fd5b505050506040513d601f19601f820116820180604052508101906118f391906126c5565b90507fb198f199c43cc078ad46e5a5fabe03eba401f7417816c86af0bd2e7345c99506338260405161192692919061273f565b60405180910390a1600654604080517f000000000000000000000000000000000000000000000000000000000000000060208201526001600160a01b0390921691633f18c9a5910160408051601f19818403018152908290526001600160601b03193360601b16602083015290603401604051602081830303815290604052346040518463ffffffff1660e01b81526004016119c493929190612758565b600060405180830381600087803b1580156119de57600080fd5b505af11580156119f2573d6000803e3d6000fd5b50506001547f0000000000000000000000000000000000000000000000000000000000000000141591506110b49050576002805460ff191660011790556110b461202b565b611a3f611b7a565b611a745760405162461bcd60e51b8152602060048201526006602482015265045525f3031360d41b60448201526064016101ef565b33600090815260086020526040902054611ab95760405162461bcd60e51b815260206004820152600660248201526545525f30313160d01b60448201526064016101ef565b3360008181526008602052604080822080549290556005549051632142170760e11b815230600482015260248101939093526044830182905290916001600160a01b039091169081906342842e0e90606401600060405180830381600087803b158015611b2557600080fd5b505af1158015611b39573d6000803e3d6000fd5b505050507fd5ac6307b44f6b4d642c21fe19ab8d191a20a68eaf085cdfc26ca5ebba10e6a13383604051611b6e92919061273f565b60405180910390a15050565b600060017f00000000000000000000000000000000000000000000000000000000000000006001600160a01b031663c19d93fb6040518163ffffffff1660e01b815260040160206040518083038186803b158015611bd757600080fd5b505afa158015611beb573d6000803e3d6000fd5b505050506040513d601f19601f82011682018060405250810190611c0f91906125db565b6002811115611c2057611c206128b3565b14905090565b60025460ff16611c615760405162461bcd60e51b815260206004820152600660248201526545525f30313560d01b60448201526064016101ef565b60007f000000000000000000000000000000000000000000000000000000000000000011611cba5760405162461bcd60e51b815260206004820152600660248201526522a92f98189b60d11b60448201526064016101ef565b33600090815260086020526040902054611cff5760405162461bcd60e51b815260206004820152600660248201526545525f30313760d01b60448201526064016101ef565b3360008181526008602052604081208190557f000000000000000000000000000000000000000000000000000000000000000060646005611d807f00000000000000000000000000000000000000000000000000000000000000007f0000000000000000000000000000000000000000000000000000000000000000612802565b611d8a9190612802565b611d9491906127ee565b611d9e91906127ee565b9050611db36001600160a01b03831682611f10565b7f7a10dc0e616dab082dec16c066cf08dca1a814e025df12b69253b7077fc9b76d3382604051611b6e92919061273f565b6002546000906001600160a01b03838116610100909204161480611e1557506003546001600160a01b038381169116145b80611e2d57506004546001600160a01b038381169116145b92915050565b33611e3c6110e2565b6001600160a01b031614611e625760405162461bcd60e51b81526004016101ef906127a1565b6001600160a01b038116611ec75760405162461bcd60e51b815260206004820152602660248201527f4f776e61626c653a206e6577206f776e657220697320746865207a65726f206160448201526564647265737360d01b60648201526084016101ef565b600080546040516001600160a01b038085169392169160008051602061292483398151915291a3600080546001600160a01b0319166001600160a01b0392909216919091179055565b80471015611f605760405162461bcd60e51b815260206004820152601d60248201527f416464726573733a20696e73756666696369656e742062616c616e636500000060448201526064016101ef565b6000826001600160a01b03168260405160006040518083038185875af1925050503d8060008114611fad576040519150601f19603f3d011682016040523d82523d6000602084013e611fb2565b606091505b50509050806120265760405162461bcd60e51b815260206004820152603a60248201527f416464726573733a20756e61626c6520746f2073656e642076616c75652c20726044820152791958da5c1a595b9d081b585e481a185d99481c995d995c9d195960321b60648201526084016101ef565b505050565b60025460ff166120665760405162461bcd60e51b815260206004820152600660248201526545525f30303360d01b60448201526064016101ef565b7f00000000000000000000000000000000000000000000000000000000000000006001600160a01b03166343d726d66040518163ffffffff1660e01b8152600401600060405180830381600087803b1580156120c157600080fd5b505af11580156120d5573d6000803e3d6000fd5b505050507f00000000000000000000000000000000000000000000000000000000000000006001600160a01b03166343d726d66040518163ffffffff1660e01b8152600401600060405180830381600087803b15801561213457600080fd5b505af1158015612148573d6000803e3d6000fd5b505050507f00000000000000000000000000000000000000000000000000000000000000006001600160a01b0316639af6549a6040518163ffffffff1660e01b8152600401600060405180830381600087803b1580156121a757600080fd5b505af11580156121bb573d6000803e3d6000fd5b5050505060006121c9612318565b90506121e36121de6001805490508344612337565b612383565b600280546001600160a01b039290921661010002610100600160a81b031990921691909117905560015461221c906121de908342612337565b600380546001600160a01b0319166001600160a01b039290921691909117905560015461224f906121de90836000612337565b600480546001600160a01b0319166001600160a01b0392831617815560055460408051624d699f60e81b815290519190931692634d699f00928181019260009290919082900301818387803b1580156122a757600080fd5b505af11580156122bb573d6000803e3d6000fd5b5050600254600354600454604080516101009094046001600160a01b03908116855292831660208501529116908201527f15d257b91b144902b272fec7302c18e20e02e8199fcd6189b64447b87180c33792506060019050611000565b60008060405160208160208460ff600019fa61233057fe5b5192915050565b6000808383604051602001612356929190918252602082015260400190565b60408051601f198184030181529190528051602090910120905061237a8582612873565b95945050505050565b600060018281548110612398576123986128df565b600091825260209091200154600180546001600160a01b039092169250906123c1908290612821565b815481106123d1576123d16128df565b600091825260209091200154600180546001600160a01b0390921691849081106123fd576123fd6128df565b9060005260206000200160006101000a8154816001600160a01b0302191690836001600160a01b03160217905550600180548061243c5761243c6128c9565b600082815260209020810160001990810180546001600160a01b0319169055019055919050565b82805461246f90612838565b90600052602060002090601f01602090048101928261249157600085556124d7565b82601f106124aa57805160ff19168380011785556124d7565b828001600101855582156124d7579182015b828111156124d75782518255916020019190600101906124bc565b506124e39291506124e7565b5090565b5b808211156124e357600081556001016124e8565b60006020828403121561250e57600080fd5b81356125198161290b565b9392505050565b60006020828403121561253257600080fd5b81516125198161290b565b60008060008060006080868803121561255557600080fd5b85356125608161290b565b945060208601356125708161290b565b93506040860135925060608601356001600160401b038082111561259357600080fd5b818801915088601f8301126125a757600080fd5b8135818111156125b657600080fd5b8960208285010111156125c857600080fd5b9699959850939650602001949392505050565b6000602082840312156125ed57600080fd5b81516003811061251957600080fd5b60006020828403121561260e57600080fd5b81356001600160401b038082111561262557600080fd5b818401915084601f83011261263957600080fd5b81358181111561264b5761264b6128f5565b604051601f8201601f19908116603f01168101908382118183101715612673576126736128f5565b8160405282815287602084870101111561268c57600080fd5b826020860160208301376000928101602001929092525095945050505050565b6000602082840312156126be57600080fd5b5035919050565b6000602082840312156126d757600080fd5b5051919050565b6000815180845260005b81811015612704576020818501810151868301820152016126e8565b81811115612716576000602083870101525b50601f01601f19169290920160200192915050565b6001600160a01b0391909116815260200190565b6001600160a01b03929092168252602082015260400190565b60608152600061276b60608301866126de565b828103602084015261277d81866126de565b915050826040830152949350505050565b60208152600061251960208301846126de565b6020808252818101527f4f776e61626c653a2063616c6c6572206973206e6f7420746865206f776e6572604082015260600190565b600082198211156127e9576127e9612887565b500190565b6000826127fd576127fd61289d565b500490565b600081600019048311821515161561281c5761281c612887565b500290565b60008282101561283357612833612887565b500390565b600181811c9082168061284c57607f821691505b6020821081141561286d57634e487b7160e01b600052602260045260246000fd5b50919050565b6000826128825761288261289d565b500690565b634e487b7160e01b600052601160045260246000fd5b634e487b7160e01b600052601260045260246000fd5b634e487b7160e01b600052602160045260246000fd5b634e487b7160e01b600052603160045260246000fd5b634e487b7160e01b600052603260045260246000fd5b634e487b7160e01b600052604160045260246000fd5b6001600160a01b038116811461292057600080fd5b5056fe8be0079c531659141344cd1fd0a4f28419497f9722a3daafe3b4186f6b6457e0a2646970667358221220982a571f8b1d1ffa3a1397e94cf4921c3a9b5660a0df474b1e16003a51065c5b64736f6c6343000806003360a060405234801561001057600080fd5b50604051610bfd380380610bfd83398101604081905261002f916100ff565b600080546001600160a01b031916339081178255604051909182917f8be0079c531659141344cd1fd0a4f28419497f9722a3daafe3b4186f6b6457e0908290a3506001600160a01b0381166100e05760405162461bcd60e51b815260206004820152602d60248201527f526566756e64457363726f773a2062656e65666963696172792069732074686560448201526c207a65726f206164647265737360981b606482015260840160405180910390fd5b60601b6001600160601b0319166080526002805460ff1916905561012f565b60006020828403121561011157600080fd5b81516001600160a01b038116811461012857600080fd5b9392505050565b60805160601c610ab061014d60003960006102220152610ab06000f3fe6080604052600436106100975760003560e01c806338af3eed1461009c57806343d726d6146100ce57806351cff8d9146100e5578063685ca19414610105578063715018a6146101355780638c52dc411461014a5780638da5cb5b1461015f5780639af6549a14610174578063c19d93fb14610189578063e3a9db1a146101a9578063f2fde38b146101ed578063f340fa011461020d575b600080fd5b3480156100a857600080fd5b506100b1610220565b6040516001600160a01b0390911681526020015b60405180910390f35b3480156100da57600080fd5b506100e3610244565b005b3480156100f157600080fd5b506100e3610100366004610988565b61032b565b34801561011157600080fd5b50610125610120366004610988565b6103a8565b60405190151581526020016100c5565b34801561014157600080fd5b506100e36103ca565b34801561015657600080fd5b506100e3610431565b34801561016b57600080fd5b506100b1610519565b34801561018057600080fd5b506100e3610528565b34801561019557600080fd5b5060025460ff166040516100c591906109ac565b3480156101b557600080fd5b506101df6101c4366004610988565b6001600160a01b031660009081526001602052604090205490565b6040519081526020016100c5565b3480156101f957600080fd5b506100e3610208366004610988565b6105cb565b6100e361021b366004610988565b6106a8565b7f000000000000000000000000000000000000000000000000000000000000000090565b3361024d610519565b6001600160a01b03161461027c5760405162461bcd60e51b8152600401610273906109d4565b60405180910390fd5b600060025460ff16600281111561029557610295610a2f565b146102f45760405162461bcd60e51b815260206004820152602960248201527f526566756e64457363726f773a2063616e206f6e6c7920636c6f7365207768696044820152686c652061637469766560b81b6064820152608401610273565b6002805460ff1916811790556040517f088672c3a6e342f7cd94a65ba63b79df24a8973927b4d05d803c44bbf787d12f90600090a1565b610334816103a8565b61039c5760405162461bcd60e51b815260206004820152603360248201527f436f6e646974696f6e616c457363726f773a207061796565206973206e6f7420604482015272616c6c6f77656420746f20776974686472617760681b6064820152608401610273565b6103a58161072b565b50565b6000600160025460ff1660028111156103c3576103c3610a2f565b1492915050565b336103d3610519565b6001600160a01b0316146103f95760405162461bcd60e51b8152600401610273906109d4565b600080546040516001600160a01b0390911690600080516020610a5b833981519152908390a3600080546001600160a01b0319169055565b3361043a610519565b6001600160a01b0316146104605760405162461bcd60e51b8152600401610273906109d4565b600060025460ff16600281111561047957610479610a2f565b146104e15760405162461bcd60e51b815260206004820152603260248201527f526566756e64457363726f773a2063616e206f6e6c7920656e61626c6520726560448201527166756e6473207768696c652061637469766560701b6064820152608401610273565b6002805460ff191660011790556040517f599d8e5a83cffb867d051598c4d70e805d59802d8081c1c7d6dffc5b6aca2b8990600090a1565b6000546001600160a01b031690565b6002805460ff16600281111561054057610540610a2f565b146105ae5760405162461bcd60e51b815260206004820152603860248201527f526566756e64457363726f773a2062656e65666963696172792063616e206f6e6044820152771b1e481dda5d1a191c985dc81dda1a5b194818db1bdcd95960421b6064820152608401610273565b6105c9476105ba610220565b6001600160a01b0316906107c9565b565b336105d4610519565b6001600160a01b0316146105fa5760405162461bcd60e51b8152600401610273906109d4565b6001600160a01b03811661065f5760405162461bcd60e51b815260206004820152602660248201527f4f776e61626c653a206e6577206f776e657220697320746865207a65726f206160448201526564647265737360d01b6064820152608401610273565b600080546040516001600160a01b0380851693921691600080516020610a5b83398151915291a3600080546001600160a01b0319166001600160a01b0392909216919091179055565b600060025460ff1660028111156106c1576106c1610a2f565b146107225760405162461bcd60e51b815260206004820152602b60248201527f526566756e64457363726f773a2063616e206f6e6c79206465706f736974207760448201526a68696c652061637469766560a81b6064820152608401610273565b6103a5816108e4565b33610734610519565b6001600160a01b03161461075a5760405162461bcd60e51b8152600401610273906109d4565b6001600160a01b038116600081815260016020526040812080549190559061078290826107c9565b816001600160a01b03167f7084f5476618d8e60b11ef0d7d3f06914655adb8793e28ff7f018d4c76d505d5826040516107bd91815260200190565b60405180910390a25050565b804710156108195760405162461bcd60e51b815260206004820152601d60248201527f416464726573733a20696e73756666696369656e742062616c616e63650000006044820152606401610273565b6000826001600160a01b03168260405160006040518083038185875af1925050503d8060008114610866576040519150601f19603f3d011682016040523d82523d6000602084013e61086b565b606091505b50509050806108df5760405162461bcd60e51b815260206004820152603a60248201527f416464726573733a20756e61626c6520746f2073656e642076616c75652c20726044820152791958da5c1a595b9d081b585e481a185d99481c995d995c9d195960321b6064820152608401610273565b505050565b336108ed610519565b6001600160a01b0316146109135760405162461bcd60e51b8152600401610273906109d4565b6001600160a01b0381166000908152600160205260409020543490610939908290610a09565b6001600160a01b038316600081815260016020526040908190209290925590517f2da466a7b24304f47e87fa2e1e5a81b9831ce54fec19055ce277ca2f39ba42c4906107bd9084815260200190565b60006020828403121561099a57600080fd5b81356109a581610a45565b9392505050565b60208101600383106109ce57634e487b7160e01b600052602160045260246000fd5b91905290565b6020808252818101527f4f776e61626c653a2063616c6c6572206973206e6f7420746865206f776e6572604082015260600190565b60008219821115610a2a57634e487b7160e01b600052601160045260246000fd5b500190565b634e487b7160e01b600052602160045260246000fd5b6001600160a01b03811681146103a557600080fdfe8be0079c531659141344cd1fd0a4f28419497f9722a3daafe3b4186f6b6457e0a2646970667358221220d7a9c97dcf6583e28e354922d4613415acfbb9b8194dd3af5a299b2da7e8509d64736f6c634300080600338be0079c531659141344cd1fd0a4f28419497f9722a3daafe3b4186f6b6457e0ddf252ad1be2c89b69c2b068fc378daa952ba7f163c4a11628f55a4df523b3efa2646970667358221220d2862bd7d8a3435c8052857de47e9863faf488b178906709d275517d5cd825a364736f6c63430008060033608060405234801561001057600080fd5b50600080546001600160a01b031916339081178255604051909182917f8be0079c531659141344cd1fd0a4f28419497f9722a3daafe3b4186f6b6457e0908290a350611648806100616000396000f3fe608060405234801561001057600080fd5b50600436106100fc5760003560e01c80630222813e146101015780630ae5e7391461011c5780633d1d4bcb146101315780633f18c9a51461015557806346502d94146101685780634ac1ad781461017b5780634ddcbfcc146101a05780634e75e1aa146101b35780635a8474bb146101db578063715018a6146101ee57806376608c7f146101f657806385e68531146102095780638da5cb5b1461021c5780639cde15221461023c578063cdf314321461024f578063d6ca019814610262578063e4d235d114610275578063f1e626c314610288578063f2fde38b1461029b578063fef201f3146102ae575b600080fd5b6101096102b6565b6040519081526020015b60405180910390f35b61012f61012a3660046110fb565b6102c6565b005b61014461013f366004611124565b610325565b6040516101139594939291906113f5565b61012f6101633660046111c3565b610350565b610144610176366004611273565b6103c4565b61018e610189366004611273565b61063f565b60405160ff9091168152602001610113565b61012f6101ae36600461122f565b61066b565b6101c66101c1366004611160565b6106dc565b60408051928352602083019190915201610113565b61012f6101e9366004611273565b6106fc565b61012f61076a565b61012f61020436600461122f565b6107d1565b61012f6102173660046110fb565b610826565b610224610876565b6040516001600160a01b039091168152602001610113565b61010961024a366004611273565b610885565b61012f61025d366004611273565b6108cd565b6101c66102703660046112c8565b610924565b61012f6102833660046111c3565b61099d565b61014461029636600461128c565b6109f3565b61012f6102a93660046110fb565b610c92565b610144610d6f565b60006102c142610885565b905090565b336102cf610876565b6001600160a01b0316146102fe5760405162461bcd60e51b81526004016102f5906113c0565b60405180910390fd5b6001600160a01b03166000908152600160208190526040909120805460ff19169091179055565b600080606080606061033e6103386102b6565b876109f3565b939a9299509097509550909350915050565b3360009081526001602052604090205460ff168061037d575033610372610876565b6001600160a01b0316145b6103995760405162461bcd60e51b81526004016102f59061138b565b60006103a36102b6565b90506103b181858585610d93565b6103be6000858585610d93565b50505050565b6000806060808083866103d9575060026103e9565b5060008681526008602052604090205b806002015495508060030154945080600401805480602002602001604051908101604052809291908181526020016000905b828210156104c757838290600052602060002001805461043a90611530565b80601f016020809104026020016040519081016040528092919081815260200182805461046690611530565b80156104b35780601f10610488576101008083540402835291602001916104b3565b820191906000526020600020905b81548152906001019060200180831161049657829003601f168201915b50505050508152602001906001019061041b565b505050509150600082516001600160401b038111156104e8576104e86115dc565b604051908082528060200260200182016040528015610511578160200160208202803683370190505b509050600083516001600160401b0381111561052f5761052f6115dc565b604051908082528060200260200182016040528015610558578160200160208202803683370190505b50905060005b845181101561062e578360050185828151811061057d5761057d6115c6565b6020026020010151604051610592919061136f565b9081526020016040518091039020600001548382815181106105b6576105b66115c6565b602002602001018181525050836005018582815181106105d8576105d86115c6565b60200260200101516040516105ed919061136f565b908152602001604051809103902060010154828281518110610611576106116115c6565b6020908102919091010152806106268161156b565b91505061055e565b509698959750959491935090915050565b6000600761065062015180846114ba565b61065b9060046114a2565b6106659190611586565b92915050565b3360009081526001602052604090205460ff168061069857503361068d610876565b6001600160a01b0316145b6106b45760405162461bcd60e51b81526004016102f59061138b565b60006106be6102b6565b90506106cb818484610ea5565b6106d760008484610ea5565b505050565b6000806106f16106ea6102b6565b8585610924565b915091509250929050565b3360009081526001602052604090205460ff168061072957503361071e610876565b6001600160a01b0316145b6107455760405162461bcd60e51b81526004016102f59061138b565b600061074f6102b6565b905061075b8183610f61565b610766600083610f61565b5050565b33610773610876565b6001600160a01b0316146107995760405162461bcd60e51b81526004016102f5906113c0565b600080546040516001600160a01b03909116906000805160206115f3833981519152908390a3600080546001600160a01b0319169055565b3360009081526001602052604090205460ff16806107fe5750336107f3610876565b6001600160a01b0316145b61081a5760405162461bcd60e51b81526004016102f59061138b565b61076660008383610ea5565b3361082f610876565b6001600160a01b0316146108555760405162461bcd60e51b81526004016102f5906113c0565b6001600160a01b03166000908152600160205260409020805460ff19169055565b6000546001600160a01b031690565b6000806108918361063f565b60ff1690506108a362015180826114ce565b6108ad90846114ed565b92506108bc6201518084611586565b6108c690846114ed565b9392505050565b3360009081526001602052604090205460ff16806108fa5750336108ef610876565b6001600160a01b0316145b6109165760405162461bcd60e51b81526004016102f59061138b565b610921600082610f61565b50565b600080808561093557506002610945565b5060008581526008602052604090205b60008160050186604051610959919061136f565b908152602001604051809103902060030185604051610978919061136f565b9081526040519081900360200190208054600190910154909890975095505050505050565b3360009081526001602052604090205460ff16806109ca5750336109bf610876565b6001600160a01b0316145b6109e65760405162461bcd60e51b81526004016102f59061138b565b6106d76000848484610d93565b600080606080808387610a0857506002610a18565b5060008781526008602052604090205b60008160050188604051610a2c919061136f565b90815260200160405180910390209050806000015496508060010154955080600201805480602002602001604051908101604052809291908181526020016000905b82821015610b1a578382906000526020600020018054610a8d90611530565b80601f0160208091040260200160405190810160405280929190818152602001828054610ab990611530565b8015610b065780601f10610adb57610100808354040283529160200191610b06565b820191906000526020600020905b815481529060010190602001808311610ae957829003601f168201915b505050505081526020019060010190610a6e565b505050509250600083516001600160401b03811115610b3b57610b3b6115dc565b604051908082528060200260200182016040528015610b64578160200160208202803683370190505b509050600084516001600160401b03811115610b8257610b826115dc565b604051908082528060200260200182016040528015610bab578160200160208202803683370190505b50905060005b8551811015610c815783600301868281518110610bd057610bd06115c6565b6020026020010151604051610be5919061136f565b908152602001604051809103902060000154838281518110610c0957610c096115c6565b60200260200101818152505083600301868281518110610c2b57610c2b6115c6565b6020026020010151604051610c40919061136f565b908152602001604051809103902060010154828281518110610c6457610c646115c6565b602090810291909101015280610c798161156b565b915050610bb1565b50979a969950975091949350505050565b33610c9b610876565b6001600160a01b031614610cc15760405162461bcd60e51b81526004016102f5906113c0565b6001600160a01b038116610d265760405162461bcd60e51b815260206004820152602660248201527f4f776e61626c653a206e6577206f776e657220697320746865207a65726f206160448201526564647265737360d01b60648201526084016102f5565b600080546040516001600160a01b03808516939216916000805160206115f383398151915291a3600080546001600160a01b0319166001600160a01b0392909216919091179055565b6000806060806060610d826101766102b6565b945094509450945094509091929394565b610d9e848483610ea5565b600084610dad57506002610db8565b610db5610fb5565b90505b60008160050185604051610dcc919061136f565b9081526020016040518091039020905060008160030185604051610df0919061136f565b90815260200160405180910390209050806001015460001415610e695760028201805460018101825560009182526020918290208751610e3893919092019190880190610fd6565b50808260030186604051610e4c919061136f565b908152604051908190036020019020815481556001918201549101555b6001816001016000828254610e7e91906114a2565b9091555050805484908290600090610e979084906114a2565b909155505050505050505050565b610eaf8382610f61565b600083610ebe57506002610ec9565b610ec6610fb5565b90505b60008160050184604051610edd919061136f565b90815260200160405180910390209050806001015460001415610f275760048201805460018101825560009182526020918290208651610f2593919092019190870190610fd6565b505b6001816001016000828254610f3c91906114a2565b9091555050805483908290600090610f559084906114a2565b90915550505050505050565b600082610f7057506002610f7b565b610f78610fb5565b90505b6001816003016000828254610f9091906114a2565b9250508190555081816002016000828254610fab91906114a2565b9091555050505050565b600060086000610fc36102b6565b8152602001908152602001600020905090565b828054610fe290611530565b90600052602060002090601f016020900481019282611004576000855561104a565b82601f1061101d57805160ff191683800117855561104a565b8280016001018555821561104a579182015b8281111561104a57825182559160200191906001019061102f565b5061105692915061105a565b5090565b5b80821115611056576000815560010161105b565b600082601f83011261108057600080fd5b81356001600160401b038082111561109a5761109a6115dc565b604051601f8301601f19908116603f011681019082821181831017156110c2576110c26115dc565b816040528381528660208588010111156110db57600080fd5b836020870160208301376000602085830101528094505050505092915050565b60006020828403121561110d57600080fd5b81356001600160a01b03811681146108c657600080fd5b60006020828403121561113657600080fd5b81356001600160401b0381111561114c57600080fd5b6111588482850161106f565b949350505050565b6000806040838503121561117357600080fd5b82356001600160401b038082111561118a57600080fd5b6111968683870161106f565b935060208501359150808211156111ac57600080fd5b506111b98582860161106f565b9150509250929050565b6000806000606084860312156111d857600080fd5b83356001600160401b03808211156111ef57600080fd5b6111fb8783880161106f565b9450602086013591508082111561121157600080fd5b5061121e8682870161106f565b925050604084013590509250925092565b6000806040838503121561124257600080fd5b82356001600160401b0381111561125857600080fd5b6112648582860161106f565b95602094909401359450505050565b60006020828403121561128557600080fd5b5035919050565b6000806040838503121561129f57600080fd5b8235915060208301356001600160401b038111156112bc57600080fd5b6111b98582860161106f565b6000806000606084860312156112dd57600080fd5b8335925060208401356001600160401b03808211156112fb57600080fd5b6113078783880161106f565b9350604086013591508082111561131d57600080fd5b5061132a8682870161106f565b9150509250925092565b600081518084526020808501945080840160005b8381101561136457815187529582019590820190600101611348565b509495945050505050565b60008251611381818460208701611504565b9190910192915050565b6020808252818101527f43616e6e6f7420616363657373207265706f7274696e672066756e6374696f6e604082015260600190565b6020808252818101527f4f776e61626c653a2063616c6c6572206973206e6f7420746865206f776e6572604082015260600190565b85815260006020868184015260a0604084015261141560a0840187611334565b83810360608501526114278187611334565b905083810360808501528085518083528383019150838160051b84010184880160005b8381101561149057601f198087850301865282518051808652611472818b88018c8501611504565b96890196601f0190911693909301870192509086019060010161144a565b50909c9b505050505050505050505050565b600082198211156114b5576114b561159a565b500190565b6000826114c9576114c96115b0565b500490565b60008160001904831182151516156114e8576114e861159a565b500290565b6000828210156114ff576114ff61159a565b500390565b60005b8381101561151f578181015183820152602001611507565b838111156103be5750506000910152565b600181811c9082168061154457607f821691505b6020821081141561156557634e487b7160e01b600052602260045260246000fd5b50919050565b600060001982141561157f5761157f61159a565b5060010190565b600082611595576115956115b0565b500690565b634e487b7160e01b600052601160045260246000fd5b634e487b7160e01b600052601260045260246000fd5b634e487b7160e01b600052603260045260246000fd5b634e487b7160e01b600052604160045260246000fdfe8be0079c531659141344cd1fd0a4f28419497f9722a3daafe3b4186f6b6457e0a2646970667358221220457a147bcfabc0a6cd5eadb8f0230fa7b205af0903e7d5a2cd819501fc3d8c5f64736f6c63430008060033",
  "immutableReferences": {},
  "source": "// contracts/GameItem.sol\n// SPDX-License-Identifier: MIT\npragma solidity ^0.8.0;\n\nimport \"@openzeppelin/contracts/access/Ownable.sol\";\nimport \"@openzeppelin/contracts/token/ERC721/ERC721.sol\";\nimport \"@openzeppelin/contracts/token/ERC721/extensions/ERC721URIStorage.sol\";\nimport \"@openzeppelin/contracts/token/ERC721/IERC721Receiver.sol\";\nimport \"@openzeppelin/contracts/token/ERC721/IERC721.sol\";\nimport \"@openzeppelin/contracts/utils/Counters.sol\";\nimport \"./SocialGame.sol\";\nimport \"./ISocialGameToken.sol\";\nimport \"./reports/Report.sol\";\n\n/**\n * @title Social Change Game Token\n * @notice Smart Contract developed for the Harmony One Round 2 Hackathon on Gitcoin\n * @dev Contract that represents entries in the game as NFTs. Note a single token contract\n * is deployed. We track the game by its game-id and game address. Tokens of active games\n * cannot be transferred. Once a game is completed, the NFT can be used to represent the\n * participation of an address in the Social Game and can be transferred to others\n *\n * Intended usage: Track the tickets issued for all Social Change Games and act as a factory\n * to create SocialGames. SHMT tokens represent a badge of honor for how much donations were\n * made. It can also be used to endorse future games, giving the endorser some tokens back\n *\n * @author victaphu\n */\ncontract SocialGameToken is\n    ERC721URIStorage,\n    ISocialGameToken,\n    IERC721Receiver,\n    Ownable\n{\n    using Counters for Counters.Counter;\n\n    event GameCreated(address SocialGame, uint256 gameId);\n\n    uint256 public constant MAX_ENDORSERS = 20;\n    uint256 public constant DEFAULT_PLAYERS = 100;\n    uint256 public constant DEFAULT_ENTRY_COST = 1 ether;\n\n    Counters.Counter private _tokenIds;\n    Counters.Counter private _gameIds;\n\n    // mapping of social game contract address to game id\n    mapping(address => uint256) private _socialGameIds;\n\n    address[] private _socialGameAddresses;\n\n    // mapping of game id to active status, true for active, false for inactive\n    mapping(uint256 => bool) private _gameStatus;\n\n    // mapping of token id to game id\n    mapping(uint256 => uint256) private _tokenToGameId;\n\n    struct ERC721Details {\n        address from;\n        uint256 tokenId;\n        address erc721Address;\n    }\n\n    // mapping of game to external erc721 token\n    mapping(uint256 => ERC721Details) private _extensionERC721Token;\n\n    // onchain reporting of events that happen\n    Report private _reporting;\n\n    address private _owner;\n\n    constructor() ERC721(\"SocialHarmonyToken\", \"SHMT\") {\n        _reporting = new Report();\n        _owner = msg.sender;\n    }\n\n    /**\n     * @dev this factory function initialises and creates a social game. The operator is the owner of the\n     * social game, and the beneficiary receives the payout. The necessary configuration options are\n     * supplied as part of the arguments.\n     * Capture the event {GameCreated} to read the address of the created game. Use default endorsers for the game\n     *\n     * @param operator the owner of the social game\n     * @param beneficiary_ the benefactor of the funds for the completed game\n     * @param participants_ total participants for a successful game\n     * @param pricePerRound_ total price of a ticket per entry\n     * @return gameId_ the id of the game played\n     */\n    function createSocialGame(\n        address operator,\n        address payable beneficiary_,\n        uint256 participants_,\n        uint256 pricePerRound_\n    ) public returns (uint256 gameId_) {\n        gameId_ = createSocialGame(\n            operator,\n            beneficiary_,\n            participants_,\n            pricePerRound_,\n            MAX_ENDORSERS\n        );\n    }\n\n    /**\n     * @dev this factory function initialises and creates a social game. The operator is the owner of the\n     * social game, and the beneficiary receives the payout. The necessary configuration options are\n     * supplied as part of the arguments.\n     * Capture the event {GameCreated} to read the address of the created game\n     *\n     * @param operator the owner of the social game\n     * @param beneficiary_ the benefactor of the funds for the completed game\n     * @param participants_ total participants for a successful game\n     * @param pricePerRound_ total price of a ticket per entry\n     * @param totalEndorsers endorsements required before a game may begin. set to 0 for no endorsements\n     * @return gameId_ the id of the game played\n     */\n    function createSocialGame(\n        address operator,\n        address payable beneficiary_,\n        uint256 participants_,\n        uint256 pricePerRound_,\n        uint256 totalEndorsers\n    ) public returns (uint256 gameId_) {\n        // return new instance of social game, transferring ownership\n\n        if (_gameIds.current() == 0) { // first game is a initial offering and endorsers are set to 0\n            require(\n                operator == _owner,\n                \"ER_028\"\n            );\n            totalEndorsers = 0;\n        }\n        _gameIds.increment();\n        gameId_ = _gameIds.current();\n        SocialGame game = new SocialGame(\n            beneficiary_,\n            participants_,\n            pricePerRound_,\n            gameId_,\n            totalEndorsers,\n            address(this),\n            address(_reporting)\n        );\n        game.transferOwnership(operator);\n        _socialGameIds[address(game)] = gameId_;\n        _gameStatus[game.gameId()] = true;\n        _reporting.grantAccess(address(game));\n        _socialGameAddresses.push(address(game));        \n\n        emit GameCreated(address(game), gameId_);\n    }\n\n    function getGameAddresses() public view returns (address[] memory games) {\n        games = _socialGameAddresses;\n    }\n\n    /**\n     * @dev this function mints an NFT for a given player using the token URI and the\n     * game id. It represents a single entry in a given social game. This function can only\n     * be called by the SocialGame with the corresponding game id (initialised using {createSocialGame})\n     *\n     * Requirements - caller must own the game id\n     */\n    function enterGame(\n        address player,\n        string memory tokenURI_,\n        uint256 gameId\n    ) external override returns (uint256 ticket_) {\n        require(_socialGameIds[msg.sender] > 0, \"ER_029\");\n        require(\n            _socialGameIds[msg.sender] == gameId,\n            \"ER_030\"\n        );\n        _tokenIds.increment();\n\n        ticket_ = _tokenIds.current();\n        _mint(player, ticket_); // use safe mint ...\n        _setTokenURI(ticket_, tokenURI_);\n        _tokenToGameId[ticket_] = gameId;\n    }\n\n    /**\n     * @dev called when a social game has completed. This is called by the\n     * social game itself to flag that the game has completed.\n     *\n     * Requirement - game must be currently active, and the caller must own a game\n     */\n    function gameCompleted() external override {\n        uint256 gameId = _socialGameIds[msg.sender];\n        require(gameId > 0, \"ER_031\");\n        require(_gameStatus[gameId] == true, \"ER_032\");\n\n        SocialGame game = SocialGame(payable(msg.sender));\n\n        _reporting.revokeAccess(msg.sender);\n       \n        \n        _gameStatus[gameId] = false;\n        // once a game is completed the user can transfer the nft\n\n        if (_extensionERC721Token[gameId].tokenId > 0) {\n            // token id exists, lets transfer the token back to the sender\n            ERC721Details memory details = _extensionERC721Token[gameId];\n            IERC721 wrapped = IERC721(details.erc721Address);\n            wrapped.safeTransferFrom(\n                address(this),\n                details.from,\n                details.tokenId\n            );\n            // clear the details to get back some gas refund\n            _extensionERC721Token[gameId] = ERC721Details(\n                address(0x0),\n                0,\n                address(0x0)\n            );\n        }\n    }\n\n    /**\n     * @dev Prevent transfers until the game has completed. we will know the game the token belongs to\n     * by looking up its mapping.\n     */\n    function _beforeTokenTransfer(\n        address from,\n        address to,\n        uint256 tokenId\n    ) internal view override {\n        if (from == address(0)) {\n            return; // we are minting the token\n        }\n\n        require(_tokenToGameId[tokenId] > 0, \"ER_033\");\n        require(\n            _gameStatus[_tokenToGameId[tokenId]] == false,\n            \"ER_034\"\n        );\n    }\n\n    /**\n     * https://ethereum.stackexchange.com/questions/49185/solidity-conversion-bytes-memory-to-uint\n     * convert bytes to uint256\n     */\n    function sliceUint(bytes memory bs, uint256 start)\n        internal\n        pure\n        returns (uint256)\n    {\n        require(bs.length >= start + 32, \"ER_035\");\n        uint256 x;\n        assembly {\n            x := mload(add(bs, add(0x20, start)))\n        }\n        return x;\n    }\n\n    /**\n     * @dev Return the number of games that have been played\n     *\n     * @return gamesPlayed_ number of games played (note not successful games, just games played)\n     */\n    function getGamesPlayed() external view returns (uint256 gamesPlayed_) {\n        gamesPlayed_ = _gameIds.current();\n    }\n\n    /**\n     * @dev Return the address for the reporting smart contract. use it to query for data\n     *\n     * @return reporting address of the reporting smart contract\n     */\n    function getGamesReporting() external view returns (address reporting) {\n        reporting = address(_reporting);\n    }\n\n    /**\n     * @dev transfer an ERC721 token through safeTransferFrom to the SocialGameToken address to setup\n     * a social game. The supplied data argument is a concatenation of two uint256 encoded into bytes.\n     * First argument is the number of participants for a game, and the second argument is the price\n     * per round in the game. This is supplied to createSocialGame. When the game completes, the token\n     * is transfered back to the owner.\n     * Capture the GameCreated event to find the address and game id for the SocialGame contract\n     *\n     * Note at this point no validation is done to confirm that the caller is a ERC721 token contract\n     * @param operator is the msg.sender of the caller to the ERC721 safeTransferFrom function\n     * @param from address representing the previous owner of the given token ID\n     * @param tokenId uint256 ID of the token to be transferred\n     * @param data bytes optional data to send along with the call\n     * @return special selector as required by interface {IERC721Receiver.onERC721Received}\n     */\n    function onERC721Received(\n        address operator,\n        address from,\n        uint256 tokenId,\n        bytes calldata data\n    ) external override returns (bytes4) {\n        // 2 x 32 byte arrays, first one is num participants, second is price per round\n        // default values are provided\n        uint256 numberParticipants = DEFAULT_PLAYERS;\n        uint256 pricePerRound = DEFAULT_ENTRY_COST;\n        uint256 endorsers = MAX_ENDORSERS;\n\n        if (data.length == 96) {\n            numberParticipants = sliceUint(data, 0); // start at 0-31 bytes for first uint\n            pricePerRound = sliceUint(data, 32); // 32 bytes, 256 bits for second uint\n            endorsers = sliceUint(data, 64); // 64-96 bytes, number of endorsers\n        }\n        // who is ultimate message.sender?\n        uint256 gameId = createSocialGame(\n            operator,\n            payable(from),\n            numberParticipants,\n            pricePerRound,\n            endorsers\n        );\n        _extensionERC721Token[gameId] = ERC721Details(\n            from,\n            tokenId,\n            msg.sender\n        );\n        return this.onERC721Received.selector;\n    }\n}\n",
  "sourcePath": "/Users/noorjehanphu/dev/social-harmony/truffle/contracts/SocialGameToken.sol",
  "compiler": {
    "name": "solc",
    "version": "0.8.6+commit.11564f7e.Emscripten.clang"
  },
  "schemaVersion": "3.4.1",
  "updatedAt": "2021-07-22T12:37:15.810Z",
  "networkType": "ethereum",
  "devdoc": {
    "author": "victaphu",
    "details": "Contract that represents entries in the game as NFTs. Note a single token contract is deployed. We track the game by its game-id and game address. Tokens of active games cannot be transferred. Once a game is completed, the NFT can be used to represent the participation of an address in the Social Game and can be transferred to others Intended usage: Track the tickets issued for all Social Change Games and act as a factory to create SocialGames. SHMT tokens represent a badge of honor for how much donations were made. It can also be used to endorse future games, giving the endorser some tokens back",
    "kind": "dev",
    "methods": {
      "approve(address,uint256)": {
        "details": "See {IERC721-approve}."
      },
      "balanceOf(address)": {
        "details": "See {IERC721-balanceOf}."
      },
      "createSocialGame(address,address,uint256,uint256)": {
        "details": "this factory function initialises and creates a social game. The operator is the owner of the social game, and the beneficiary receives the payout. The necessary configuration options are supplied as part of the arguments. Capture the event {GameCreated} to read the address of the created game. Use default endorsers for the game",
        "params": {
          "beneficiary_": "the benefactor of the funds for the completed game",
          "operator": "the owner of the social game",
          "participants_": "total participants for a successful game",
          "pricePerRound_": "total price of a ticket per entry"
        },
        "returns": {
          "gameId_": "the id of the game played"
        }
      },
      "createSocialGame(address,address,uint256,uint256,uint256)": {
        "details": "this factory function initialises and creates a social game. The operator is the owner of the social game, and the beneficiary receives the payout. The necessary configuration options are supplied as part of the arguments. Capture the event {GameCreated} to read the address of the created game",
        "params": {
          "beneficiary_": "the benefactor of the funds for the completed game",
          "operator": "the owner of the social game",
          "participants_": "total participants for a successful game",
          "pricePerRound_": "total price of a ticket per entry",
          "totalEndorsers": "endorsements required before a game may begin. set to 0 for no endorsements"
        },
        "returns": {
          "gameId_": "the id of the game played"
        }
      },
      "enterGame(address,string,uint256)": {
        "details": "this function mints an NFT for a given player using the token URI and the game id. It represents a single entry in a given social game. This function can only be called by the SocialGame with the corresponding game id (initialised using {createSocialGame}) Requirements - caller must own the game id"
      },
      "gameCompleted()": {
        "details": "called when a social game has completed. This is called by the social game itself to flag that the game has completed. Requirement - game must be currently active, and the caller must own a game"
      },
      "getApproved(uint256)": {
        "details": "See {IERC721-getApproved}."
      },
      "getGamesPlayed()": {
        "details": "Return the number of games that have been played",
        "returns": {
          "gamesPlayed_": "number of games played (note not successful games, just games played)"
        }
      },
      "getGamesReporting()": {
        "details": "Return the address for the reporting smart contract. use it to query for data",
        "returns": {
          "reporting": "address of the reporting smart contract"
        }
      },
      "isApprovedForAll(address,address)": {
        "details": "See {IERC721-isApprovedForAll}."
      },
      "name()": {
        "details": "See {IERC721Metadata-name}."
      },
      "onERC721Received(address,address,uint256,bytes)": {
        "details": "transfer an ERC721 token through safeTransferFrom to the SocialGameToken address to setup a social game. The supplied data argument is a concatenation of two uint256 encoded into bytes. First argument is the number of participants for a game, and the second argument is the price per round in the game. This is supplied to createSocialGame. When the game completes, the token is transfered back to the owner. Capture the GameCreated event to find the address and game id for the SocialGame contract Note at this point no validation is done to confirm that the caller is a ERC721 token contract",
        "params": {
          "data": "bytes optional data to send along with the call",
          "from": "address representing the previous owner of the given token ID",
          "operator": "is the msg.sender of the caller to the ERC721 safeTransferFrom function",
          "tokenId": "uint256 ID of the token to be transferred"
        },
        "returns": {
          "_0": "special selector as required by interface {IERC721Receiver.onERC721Received}"
        }
      },
      "owner()": {
        "details": "Returns the address of the current owner."
      },
      "ownerOf(uint256)": {
        "details": "See {IERC721-ownerOf}."
      },
      "renounceOwnership()": {
        "details": "Leaves the contract without owner. It will not be possible to call `onlyOwner` functions anymore. Can only be called by the current owner. NOTE: Renouncing ownership will leave the contract without an owner, thereby removing any functionality that is only available to the owner."
      },
      "safeTransferFrom(address,address,uint256)": {
        "details": "See {IERC721-safeTransferFrom}."
      },
      "safeTransferFrom(address,address,uint256,bytes)": {
        "details": "See {IERC721-safeTransferFrom}."
      },
      "setApprovalForAll(address,bool)": {
        "details": "See {IERC721-setApprovalForAll}."
      },
      "supportsInterface(bytes4)": {
        "details": "See {IERC165-supportsInterface}."
      },
      "symbol()": {
        "details": "See {IERC721Metadata-symbol}."
      },
      "tokenURI(uint256)": {
        "details": "See {IERC721Metadata-tokenURI}."
      },
      "transferFrom(address,address,uint256)": {
        "details": "See {IERC721-transferFrom}."
      },
      "transferOwnership(address)": {
        "details": "Transfers ownership of the contract to a new account (`newOwner`). Can only be called by the current owner."
      }
    },
    "title": "Social Change Game Token",
    "version": 1
  },
  "userdoc": {
    "kind": "user",
    "methods": {},
    "notice": "Smart Contract developed for the Harmony One Round 2 Hackathon on Gitcoin",
    "version": 1
  }
}