{
  "contractName": "Report",
  "abi": [
    {
      "anonymous": false,
      "inputs": [
        {
          "indexed": true,
          "internalType": "address",
          "name": "previousOwner",
          "type": "address"
        },
        {
          "indexed": true,
          "internalType": "address",
          "name": "newOwner",
          "type": "address"
        }
      ],
      "name": "OwnershipTransferred",
      "type": "event"
    },
    {
      "inputs": [],
      "name": "owner",
      "outputs": [
        {
          "internalType": "address",
          "name": "",
          "type": "address"
        }
      ],
      "stateMutability": "view",
      "type": "function"
    },
    {
      "inputs": [],
      "name": "renounceOwnership",
      "outputs": [],
      "stateMutability": "nonpayable",
      "type": "function"
    },
    {
      "inputs": [
        {
          "internalType": "address",
          "name": "newOwner",
          "type": "address"
        }
      ],
      "name": "transferOwnership",
      "outputs": [],
      "stateMutability": "nonpayable",
      "type": "function"
    },
    {
      "inputs": [
        {
          "internalType": "uint256",
          "name": "timestamp",
          "type": "uint256"
        }
      ],
      "name": "getWeekday",
      "outputs": [
        {
          "internalType": "uint8",
          "name": "weekday",
          "type": "uint8"
        }
      ],
      "stateMutability": "pure",
      "type": "function"
    },
    {
      "inputs": [
        {
          "internalType": "uint256",
          "name": "timestamp",
          "type": "uint256"
        }
      ],
      "name": "getReportPeriodFor",
      "outputs": [
        {
          "internalType": "uint256",
          "name": "reportPeriod",
          "type": "uint256"
        }
      ],
      "stateMutability": "view",
      "type": "function"
    },
    {
      "inputs": [],
      "name": "getLatestReportingPeriod",
      "outputs": [
        {
          "internalType": "uint256",
          "name": "reportPeriod",
          "type": "uint256"
        }
      ],
      "stateMutability": "view",
      "type": "function"
    },
    {
      "inputs": [
        {
          "internalType": "address",
          "name": "reporter",
          "type": "address"
        }
      ],
      "name": "grantAccess",
      "outputs": [],
      "stateMutability": "nonpayable",
      "type": "function"
    },
    {
      "inputs": [
        {
          "internalType": "address",
          "name": "reporter",
          "type": "address"
        }
      ],
      "name": "revokeAccess",
      "outputs": [],
      "stateMutability": "nonpayable",
      "type": "function"
    },
    {
      "inputs": [
        {
          "internalType": "bytes",
          "name": "key",
          "type": "bytes"
        },
        {
          "internalType": "bytes",
          "name": "category",
          "type": "bytes"
        },
        {
          "internalType": "uint256",
          "name": "value",
          "type": "uint256"
        }
      ],
      "name": "updateLatestReport",
      "outputs": [],
      "stateMutability": "nonpayable",
      "type": "function"
    },
    {
      "inputs": [
        {
          "internalType": "bytes",
          "name": "key",
          "type": "bytes"
        },
        {
          "internalType": "uint256",
          "name": "value",
          "type": "uint256"
        }
      ],
      "name": "updateLatestReport",
      "outputs": [],
      "stateMutability": "nonpayable",
      "type": "function"
    },
    {
      "inputs": [
        {
          "internalType": "uint256",
          "name": "value",
          "type": "uint256"
        }
      ],
      "name": "updateLatestReport",
      "outputs": [],
      "stateMutability": "nonpayable",
      "type": "function"
    },
    {
      "inputs": [
        {
          "internalType": "bytes",
          "name": "key",
          "type": "bytes"
        },
        {
          "internalType": "uint256",
          "name": "value",
          "type": "uint256"
        }
      ],
      "name": "updateGlobalReport",
      "outputs": [],
      "stateMutability": "nonpayable",
      "type": "function"
    },
    {
      "inputs": [
        {
          "internalType": "uint256",
          "name": "value",
          "type": "uint256"
        }
      ],
      "name": "updateGlobalReport",
      "outputs": [],
      "stateMutability": "nonpayable",
      "type": "function"
    },
    {
      "inputs": [
        {
          "internalType": "bytes",
          "name": "key",
          "type": "bytes"
        },
        {
          "internalType": "bytes",
          "name": "category",
          "type": "bytes"
        },
        {
          "internalType": "uint256",
          "name": "value",
          "type": "uint256"
        }
      ],
      "name": "updateGlobalReport",
      "outputs": [],
      "stateMutability": "nonpayable",
      "type": "function"
    },
    {
      "inputs": [
        {
          "internalType": "uint256",
          "name": "period",
          "type": "uint256"
        }
      ],
      "name": "getReportForPeriod",
      "outputs": [
        {
          "internalType": "uint256",
          "name": "sum",
          "type": "uint256"
        },
        {
          "internalType": "uint256",
          "name": "count",
          "type": "uint256"
        },
        {
          "internalType": "uint256[]",
          "name": "sums",
          "type": "uint256[]"
        },
        {
          "internalType": "uint256[]",
          "name": "counts",
          "type": "uint256[]"
        },
        {
          "internalType": "bytes[]",
          "name": "keys",
          "type": "bytes[]"
        }
      ],
      "stateMutability": "view",
      "type": "function"
    },
    {
      "inputs": [
        {
          "internalType": "uint256",
          "name": "period",
          "type": "uint256"
        },
        {
          "internalType": "bytes",
          "name": "key",
          "type": "bytes"
        },
        {
          "internalType": "bytes",
          "name": "category",
          "type": "bytes"
        }
      ],
      "name": "getReportForPeriod",
      "outputs": [
        {
          "internalType": "uint256",
          "name": "sum",
          "type": "uint256"
        },
        {
          "internalType": "uint256",
          "name": "count",
          "type": "uint256"
        }
      ],
      "stateMutability": "view",
      "type": "function"
    },
    {
      "inputs": [
        {
          "internalType": "uint256",
          "name": "period",
          "type": "uint256"
        },
        {
          "internalType": "bytes",
          "name": "key",
          "type": "bytes"
        }
      ],
      "name": "getReportForPeriod",
      "outputs": [
        {
          "internalType": "uint256",
          "name": "sum",
          "type": "uint256"
        },
        {
          "internalType": "uint256",
          "name": "count",
          "type": "uint256"
        },
        {
          "internalType": "uint256[]",
          "name": "sums",
          "type": "uint256[]"
        },
        {
          "internalType": "uint256[]",
          "name": "counts",
          "type": "uint256[]"
        },
        {
          "internalType": "bytes[]",
          "name": "keys",
          "type": "bytes[]"
        }
      ],
      "stateMutability": "view",
      "type": "function"
    },
    {
      "inputs": [
        {
          "internalType": "bytes",
          "name": "key",
          "type": "bytes"
        }
      ],
      "name": "getLatestReport",
      "outputs": [
        {
          "internalType": "uint256",
          "name": "sum",
          "type": "uint256"
        },
        {
          "internalType": "uint256",
          "name": "count",
          "type": "uint256"
        },
        {
          "internalType": "uint256[]",
          "name": "sums",
          "type": "uint256[]"
        },
        {
          "internalType": "uint256[]",
          "name": "counts",
          "type": "uint256[]"
        },
        {
          "internalType": "bytes[]",
          "name": "keys",
          "type": "bytes[]"
        }
      ],
      "stateMutability": "view",
      "type": "function"
    },
    {
      "inputs": [
        {
          "internalType": "bytes",
          "name": "key",
          "type": "bytes"
        },
        {
          "internalType": "bytes",
          "name": "category",
          "type": "bytes"
        }
      ],
      "name": "getLatestReport",
      "outputs": [
        {
          "internalType": "uint256",
          "name": "sum",
          "type": "uint256"
        },
        {
          "internalType": "uint256",
          "name": "count",
          "type": "uint256"
        }
      ],
      "stateMutability": "view",
      "type": "function"
    },
    {
      "inputs": [],
      "name": "getLatestReport",
      "outputs": [
        {
          "internalType": "uint256",
          "name": "sum",
          "type": "uint256"
        },
        {
          "internalType": "uint256",
          "name": "count",
          "type": "uint256"
        },
        {
          "internalType": "uint256[]",
          "name": "sums",
          "type": "uint256[]"
        },
        {
          "internalType": "uint256[]",
          "name": "counts",
          "type": "uint256[]"
        },
        {
          "internalType": "bytes[]",
          "name": "keys",
          "type": "bytes[]"
        }
      ],
      "stateMutability": "view",
      "type": "function"
    }
  ],
  "bytecode": "0x608060405234801561001057600080fd5b5060006100216100c460201b60201c565b9050806000806101000a81548173ffffffffffffffffffffffffffffffffffffffff021916908373ffffffffffffffffffffffffffffffffffffffff1602179055508073ffffffffffffffffffffffffffffffffffffffff16600073ffffffffffffffffffffffffffffffffffffffff167f8be0079c531659141344cd1fd0a4f28419497f9722a3daafe3b4186f6b6457e060405160405180910390a3506100cc565b600033905090565b612475806100db6000396000f3fe608060405234801561001057600080fd5b50600436106100fc5760003560e01c80630222813e146101015780630ae5e7391461011f5780633d1d4bcb1461013b5780633f18c9a51461016f57806346502d941461018b5780634ac1ad78146101bf5780634ddcbfcc146101ef5780634e75e1aa1461020b5780635a8474bb1461023c578063715018a61461025857806376608c7f1461026257806385e685311461027e5780638da5cb5b1461029a5780639cde1522146102b8578063cdf31432146102e8578063d6ca019814610304578063e4d235d114610335578063f1e626c314610351578063f2fde38b14610385578063fef201f3146103a1575b600080fd5b6101096103c3565b6040516101169190611812565b60405180910390f35b6101396004803603810190610134919061189f565b6103d3565b005b61015560048036038101906101509190611a12565b6104a9565b604051610166959493929190611c63565b60405180910390f35b61018960048036038101906101849190611cf7565b6104d5565b005b6101a560048036038101906101a09190611d82565b6105c9565b6040516101b6959493929190611c63565b60405180910390f35b6101d960048036038101906101d49190611d82565b610866565b6040516101e69190611dcb565b60405180910390f35b61020960048036038101906102049190611de6565b610896565b005b61022560048036038101906102209190611e42565b610987565b604051610233929190611eba565b60405180910390f35b61025660048036038101906102519190611d82565b6109a7565b005b610260610a95565b005b61027c60048036038101906102779190611de6565b610bcf565b005b6102986004803603810190610293919061189f565b610ca8565b005b6102a2610d7f565b6040516102af9190611ef2565b60405180910390f35b6102d260048036038101906102cd9190611d82565b610da8565b6040516102df9190611812565b60405180910390f35b61030260048036038101906102fd9190611d82565b610dfa565b005b61031e60048036038101906103199190611f0d565b610ed1565b60405161032c929190611eba565b60405180910390f35b61034f600480360381019061034a9190611cf7565b610f58565b005b61036b60048036038101906103669190611f98565b611033565b60405161037c959493929190611c63565b60405180910390f35b61039f600480360381019061039a919061189f565b6112f6565b005b6103a961149f565b6040516103ba959493929190611c63565b60405180910390f35b60006103ce42610da8565b905090565b6103db6114c8565b73ffffffffffffffffffffffffffffffffffffffff166103f9610d7f565b73ffffffffffffffffffffffffffffffffffffffff161461044f576040517f08c379a000000000000000000000000000000000000000000000000000000000815260040161044690612051565b60405180910390fd5b60018060008373ffffffffffffffffffffffffffffffffffffffff1673ffffffffffffffffffffffffffffffffffffffff16815260200190815260200160002060006101000a81548160ff02191690831515021790555050565b60008060608060606104c26104bc6103c3565b87611033565b9450945094509450945091939590929450565b600160003373ffffffffffffffffffffffffffffffffffffffff1673ffffffffffffffffffffffffffffffffffffffff16815260200190815260200160002060009054906101000a900460ff168061055f57503373ffffffffffffffffffffffffffffffffffffffff16610547610d7f565b73ffffffffffffffffffffffffffffffffffffffff16145b61059e576040517f08c379a0000000000000000000000000000000000000000000000000000000008152600401610595906120bd565b60405180910390fd5b60006105a86103c3565b90506105b6818585856114d0565b6105c360008585856114d0565b50505050565b60008060608060606000808714156105e457600290506105fa565b6008600088815260200190815260200160002090505b806002015495508060030154945080600401805480602002602001604051908101604052809291908181526020016000905b828210156106d857838290600052602060002001805461064b9061210c565b80601f01602080910402602001604051908101604052809291908181526020018280546106779061210c565b80156106c45780601f10610699576101008083540402835291602001916106c4565b820191906000526020600020905b8154815290600101906020018083116106a757829003601f168201915b50505050508152602001906001019061062c565b5050505091506000825167ffffffffffffffff8111156106fb576106fa6118e7565b5b6040519080825280602002602001820160405280156107295781602001602082028036833780820191505090505b5090506000835167ffffffffffffffff811115610749576107486118e7565b5b6040519080825280602002602001820160405280156107775781602001602082028036833780820191505090505b50905060005b8451811015610853578360050185828151811061079d5761079c61213e565b5b60200260200101516040516107b291906121a9565b9081526020016040518091039020600001548382815181106107d7576107d661213e565b5b602002602001018181525050836005018582815181106107fa576107f961213e565b5b602002602001015160405161080f91906121a9565b9081526020016040518091039020600101548282815181106108345761083361213e565b5b602002602001018181525050808061084b906121ef565b91505061077d565b5081955080945050505091939590929450565b600060076004620151808461087b9190612267565b6108859190612298565b61088f91906122ee565b9050919050565b600160003373ffffffffffffffffffffffffffffffffffffffff1673ffffffffffffffffffffffffffffffffffffffff16815260200190815260200160002060009054906101000a900460ff168061092057503373ffffffffffffffffffffffffffffffffffffffff16610908610d7f565b73ffffffffffffffffffffffffffffffffffffffff16145b61095f576040517f08c379a0000000000000000000000000000000000000000000000000000000008152600401610956906120bd565b60405180910390fd5b60006109696103c3565b9050610976818484611605565b61098260008484611605565b505050565b60008061099c6109956103c3565b8585610ed1565b915091509250929050565b600160003373ffffffffffffffffffffffffffffffffffffffff1673ffffffffffffffffffffffffffffffffffffffff16815260200190815260200160002060009054906101000a900460ff1680610a3157503373ffffffffffffffffffffffffffffffffffffffff16610a19610d7f565b73ffffffffffffffffffffffffffffffffffffffff16145b610a70576040517f08c379a0000000000000000000000000000000000000000000000000000000008152600401610a67906120bd565b60405180910390fd5b6000610a7a6103c3565b9050610a8681836116db565b610a916000836116db565b5050565b610a9d6114c8565b73ffffffffffffffffffffffffffffffffffffffff16610abb610d7f565b73ffffffffffffffffffffffffffffffffffffffff1614610b11576040517f08c379a0000000000000000000000000000000000000000000000000000000008152600401610b0890612051565b60405180910390fd5b600073ffffffffffffffffffffffffffffffffffffffff1660008054906101000a900473ffffffffffffffffffffffffffffffffffffffff1673ffffffffffffffffffffffffffffffffffffffff167f8be0079c531659141344cd1fd0a4f28419497f9722a3daafe3b4186f6b6457e060405160405180910390a360008060006101000a81548173ffffffffffffffffffffffffffffffffffffffff021916908373ffffffffffffffffffffffffffffffffffffffff160217905550565b600160003373ffffffffffffffffffffffffffffffffffffffff1673ffffffffffffffffffffffffffffffffffffffff16815260200190815260200160002060009054906101000a900460ff1680610c5957503373ffffffffffffffffffffffffffffffffffffffff16610c41610d7f565b73ffffffffffffffffffffffffffffffffffffffff16145b610c98576040517f08c379a0000000000000000000000000000000000000000000000000000000008152600401610c8f906120bd565b60405180910390fd5b610ca460008383611605565b5050565b610cb06114c8565b73ffffffffffffffffffffffffffffffffffffffff16610cce610d7f565b73ffffffffffffffffffffffffffffffffffffffff1614610d24576040517f08c379a0000000000000000000000000000000000000000000000000000000008152600401610d1b90612051565b60405180910390fd5b6000600160008373ffffffffffffffffffffffffffffffffffffffff1673ffffffffffffffffffffffffffffffffffffffff16815260200190815260200160002060006101000a81548160ff02191690831515021790555050565b60008060009054906101000a900473ffffffffffffffffffffffffffffffffffffffff16905090565b600080610db483610866565b60ff1690506201518081610dc8919061231f565b83610dd39190612379565b92506201518083610de491906122ee565b83610def9190612379565b925082915050919050565b600160003373ffffffffffffffffffffffffffffffffffffffff1673ffffffffffffffffffffffffffffffffffffffff16815260200190815260200160002060009054906101000a900460ff1680610e8457503373ffffffffffffffffffffffffffffffffffffffff16610e6c610d7f565b73ffffffffffffffffffffffffffffffffffffffff16145b610ec3576040517f08c379a0000000000000000000000000000000000000000000000000000000008152600401610eba906120bd565b60405180910390fd5b610ece6000826116db565b50565b600080600080861415610ee75760029050610efd565b6008600087815260200190815260200160002090505b60008160050186604051610f1191906121a9565b908152602001604051809103902060030185604051610f3091906121a9565b9081526020016040518091039020905080600001549350806001015492505050935093915050565b600160003373ffffffffffffffffffffffffffffffffffffffff1673ffffffffffffffffffffffffffffffffffffffff16815260200190815260200160002060009054906101000a900460ff1680610fe257503373ffffffffffffffffffffffffffffffffffffffff16610fca610d7f565b73ffffffffffffffffffffffffffffffffffffffff16145b611021576040517f08c379a0000000000000000000000000000000000000000000000000000000008152600401611018906120bd565b60405180910390fd5b61102e60008484846114d0565b505050565b600080606080606060008088141561104e5760029050611064565b6008600089815260200190815260200160002090505b6000816005018860405161107891906121a9565b90815260200160405180910390209050806000015496508060010154955080600201805480602002602001604051908101604052809291908181526020016000905b828210156111665783829060005260206000200180546110d99061210c565b80601f01602080910402602001604051908101604052809291908181526020018280546111059061210c565b80156111525780601f1061112757610100808354040283529160200191611152565b820191906000526020600020905b81548152906001019060200180831161113557829003601f168201915b5050505050815260200190600101906110ba565b5050505092506000835167ffffffffffffffff811115611189576111886118e7565b5b6040519080825280602002602001820160405280156111b75781602001602082028036833780820191505090505b5090506000845167ffffffffffffffff8111156111d7576111d66118e7565b5b6040519080825280602002602001820160405280156112055781602001602082028036833780820191505090505b50905060005b85518110156112e1578360030186828151811061122b5761122a61213e565b5b602002602001015160405161124091906121a9565b9081526020016040518091039020600001548382815181106112655761126461213e565b5b602002602001018181525050836003018682815181106112885761128761213e565b5b602002602001015160405161129d91906121a9565b9081526020016040518091039020600101548282815181106112c2576112c161213e565b5b60200260200101818152505080806112d9906121ef565b91505061120b565b50819650809550505050509295509295909350565b6112fe6114c8565b73ffffffffffffffffffffffffffffffffffffffff1661131c610d7f565b73ffffffffffffffffffffffffffffffffffffffff1614611372576040517f08c379a000000000000000000000000000000000000000000000000000000000815260040161136990612051565b60405180910390fd5b600073ffffffffffffffffffffffffffffffffffffffff168173ffffffffffffffffffffffffffffffffffffffff1614156113e2576040517f08c379a00000000000000000000000000000000000000000000000000000000081526004016113d99061241f565b60405180910390fd5b8073ffffffffffffffffffffffffffffffffffffffff1660008054906101000a900473ffffffffffffffffffffffffffffffffffffffff1673ffffffffffffffffffffffffffffffffffffffff167f8be0079c531659141344cd1fd0a4f28419497f9722a3daafe3b4186f6b6457e060405160405180910390a3806000806101000a81548173ffffffffffffffffffffffffffffffffffffffff021916908373ffffffffffffffffffffffffffffffffffffffff16021790555050565b60008060608060606114b76114b26103c3565b6105c9565b945094509450945094509091929394565b600033905090565b6114db848483611605565b6000808514156114ee57600290506114f9565b6114f6611735565b90505b6000816005018560405161150d91906121a9565b908152602001604051809103902090506000816003018560405161153191906121a9565b908152602001604051809103902090506000816001015414156115c557816002018590806001815401808255809150506001900390600052602060002001600090919091909150908051906020019061158b929190611756565b5080826003018660405161159f91906121a9565b908152602001604051809103902060008201548160000155600182015481600101559050505b60018160010160008282546115da9190612298565b92505081905550838160000160008282546115f59190612298565b9250508190555050505050505050565b61160f83826116db565b600080841415611622576002905061162d565b61162a611735565b90505b6000816005018460405161164191906121a9565b9081526020016040518091039020905060008160010154141561169d57816004018490806001815401808255809150506001900390600052602060002001600090919091909150908051906020019061169b929190611756565b505b60018160010160008282546116b29190612298565b92505081905550828160000160008282546116cd9190612298565b925050819055505050505050565b6000808314156116ee57600290506116f9565b6116f6611735565b90505b600181600301600082825461170e9190612298565b92505081905550818160020160008282546117299190612298565b92505081905550505050565b6000600860006117436103c3565b8152602001908152602001600020905090565b8280546117629061210c565b90600052602060002090601f01602090048101928261178457600085556117cb565b82601f1061179d57805160ff19168380011785556117cb565b828001600101855582156117cb579182015b828111156117ca5782518255916020019190600101906117af565b5b5090506117d891906117dc565b5090565b5b808211156117f55760008160009055506001016117dd565b5090565b6000819050919050565b61180c816117f9565b82525050565b60006020820190506118276000830184611803565b92915050565b6000604051905090565b600080fd5b600080fd5b600073ffffffffffffffffffffffffffffffffffffffff82169050919050565b600061186c82611841565b9050919050565b61187c81611861565b811461188757600080fd5b50565b60008135905061189981611873565b92915050565b6000602082840312156118b5576118b4611837565b5b60006118c38482850161188a565b91505092915050565b600080fd5b600080fd5b6000601f19601f8301169050919050565b7f4e487b7100000000000000000000000000000000000000000000000000000000600052604160045260246000fd5b61191f826118d6565b810181811067ffffffffffffffff8211171561193e5761193d6118e7565b5b80604052505050565b600061195161182d565b905061195d8282611916565b919050565b600067ffffffffffffffff82111561197d5761197c6118e7565b5b611986826118d6565b9050602081019050919050565b82818337600083830152505050565b60006119b56119b084611962565b611947565b9050828152602081018484840111156119d1576119d06118d1565b5b6119dc848285611993565b509392505050565b600082601f8301126119f9576119f86118cc565b5b8135611a098482602086016119a2565b91505092915050565b600060208284031215611a2857611a27611837565b5b600082013567ffffffffffffffff811115611a4657611a4561183c565b5b611a52848285016119e4565b91505092915050565b600081519050919050565b600082825260208201905092915050565b6000819050602082019050919050565b611a90816117f9565b82525050565b6000611aa28383611a87565b60208301905092915050565b6000602082019050919050565b6000611ac682611a5b565b611ad08185611a66565b9350611adb83611a77565b8060005b83811015611b0c578151611af38882611a96565b9750611afe83611aae565b925050600181019050611adf565b5085935050505092915050565b600081519050919050565b600082825260208201905092915050565b6000819050602082019050919050565b600081519050919050565b600082825260208201905092915050565b60005b83811015611b7f578082015181840152602081019050611b64565b83811115611b8e576000848401525b50505050565b6000611b9f82611b45565b611ba98185611b50565b9350611bb9818560208601611b61565b611bc2816118d6565b840191505092915050565b6000611bd98383611b94565b905092915050565b6000602082019050919050565b6000611bf982611b19565b611c038185611b24565b935083602082028501611c1585611b35565b8060005b85811015611c515784840389528151611c328582611bcd565b9450611c3d83611be1565b925060208a01995050600181019050611c19565b50829750879550505050505092915050565b600060a082019050611c786000830188611803565b611c856020830187611803565b8181036040830152611c978186611abb565b90508181036060830152611cab8185611abb565b90508181036080830152611cbf8184611bee565b90509695505050505050565b611cd4816117f9565b8114611cdf57600080fd5b50565b600081359050611cf181611ccb565b92915050565b600080600060608486031215611d1057611d0f611837565b5b600084013567ffffffffffffffff811115611d2e57611d2d61183c565b5b611d3a868287016119e4565b935050602084013567ffffffffffffffff811115611d5b57611d5a61183c565b5b611d67868287016119e4565b9250506040611d7886828701611ce2565b9150509250925092565b600060208284031215611d9857611d97611837565b5b6000611da684828501611ce2565b91505092915050565b600060ff82169050919050565b611dc581611daf565b82525050565b6000602082019050611de06000830184611dbc565b92915050565b60008060408385031215611dfd57611dfc611837565b5b600083013567ffffffffffffffff811115611e1b57611e1a61183c565b5b611e27858286016119e4565b9250506020611e3885828601611ce2565b9150509250929050565b60008060408385031215611e5957611e58611837565b5b600083013567ffffffffffffffff811115611e7757611e7661183c565b5b611e83858286016119e4565b925050602083013567ffffffffffffffff811115611ea457611ea361183c565b5b611eb0858286016119e4565b9150509250929050565b6000604082019050611ecf6000830185611803565b611edc6020830184611803565b9392505050565b611eec81611861565b82525050565b6000602082019050611f076000830184611ee3565b92915050565b600080600060608486031215611f2657611f25611837565b5b6000611f3486828701611ce2565b935050602084013567ffffffffffffffff811115611f5557611f5461183c565b5b611f61868287016119e4565b925050604084013567ffffffffffffffff811115611f8257611f8161183c565b5b611f8e868287016119e4565b9150509250925092565b60008060408385031215611faf57611fae611837565b5b6000611fbd85828601611ce2565b925050602083013567ffffffffffffffff811115611fde57611fdd61183c565b5b611fea858286016119e4565b9150509250929050565b600082825260208201905092915050565b7f4f776e61626c653a2063616c6c6572206973206e6f7420746865206f776e6572600082015250565b600061203b602083611ff4565b915061204682612005565b602082019050919050565b6000602082019050818103600083015261206a8161202e565b9050919050565b7f43616e6e6f7420616363657373207265706f7274696e672066756e6374696f6e600082015250565b60006120a7602083611ff4565b91506120b282612071565b602082019050919050565b600060208201905081810360008301526120d68161209a565b9050919050565b7f4e487b7100000000000000000000000000000000000000000000000000000000600052602260045260246000fd5b6000600282049050600182168061212457607f821691505b60208210811415612138576121376120dd565b5b50919050565b7f4e487b7100000000000000000000000000000000000000000000000000000000600052603260045260246000fd5b600081905092915050565b600061218382611b45565b61218d818561216d565b935061219d818560208601611b61565b80840191505092915050565b60006121b58284612178565b915081905092915050565b7f4e487b7100000000000000000000000000000000000000000000000000000000600052601160045260246000fd5b60006121fa826117f9565b91507fffffffffffffffffffffffffffffffffffffffffffffffffffffffffffffffff82141561222d5761222c6121c0565b5b600182019050919050565b7f4e487b7100000000000000000000000000000000000000000000000000000000600052601260045260246000fd5b6000612272826117f9565b915061227d836117f9565b92508261228d5761228c612238565b5b828204905092915050565b60006122a3826117f9565b91506122ae836117f9565b9250827fffffffffffffffffffffffffffffffffffffffffffffffffffffffffffffffff038211156122e3576122e26121c0565b5b828201905092915050565b60006122f9826117f9565b9150612304836117f9565b92508261231457612313612238565b5b828206905092915050565b600061232a826117f9565b9150612335836117f9565b9250817fffffffffffffffffffffffffffffffffffffffffffffffffffffffffffffffff048311821515161561236e5761236d6121c0565b5b828202905092915050565b6000612384826117f9565b915061238f836117f9565b9250828210156123a2576123a16121c0565b5b828203905092915050565b7f4f776e61626c653a206e6577206f776e657220697320746865207a65726f206160008201527f6464726573730000000000000000000000000000000000000000000000000000602082015250565b6000612409602683611ff4565b9150612414826123ad565b604082019050919050565b60006020820190508181036000830152612438816123fc565b905091905056fea264697066735822122016ebaf12369f0bedf58c626163808e80e74460f5ab11e30ff75e23e4ee6fb82064736f6c634300080b0033",
  "immutableReferences": {},
  "source": "// SPDX-License-Identifier: MIT\r\npragma solidity >=0.4.22 <0.9.0;\r\nimport \"@openzeppelin/contracts/access/Ownable.sol\";\r\n\r\n/**\r\n * @title Report Framework\r\n * @notice Smart Contract developed for the Harmony One Round 2 Hackathon on Gitcoin\r\n * @dev On-Chain reporting of a single metric and its count defined by a key and a category.\r\n * It will store each in a bucket denoted by the {Report}-{getReportingPeriodFor} function,\r\n * which defines a bucket given a timestamp. The report is configured for weekly reporting,\r\n * with a week starting on Sunday. Override the {getReportingPeriodFor} to derive your own reporting period.\r\n *\r\n * Note Use the provided API to update the global report or the latest reports. When updating the latest\r\n * reports, the global report is also updated.\r\n * Designed as real-time reporting. A global report keeps track of overall accumulated values.\r\n *\r\n * Note no overflow has been added ... something to be mindful of\r\n *\r\n * @author victaphu\r\n */\r\ncontract Report is Ownable {\r\n    // a report period represents a single report period start/end date\r\n    // a sum/count for each report period is provided when updating\r\n    // reports hold all the keyed reports for a given date range\r\n    struct ReportPeriod {\r\n        uint256 startRange;\r\n        uint256 endRange;\r\n        uint256 sum;\r\n        uint256 count;\r\n        bytes[] keys;\r\n        mapping(bytes => ReportOverview) reports;\r\n    }\r\n\r\n    // a report overview represents the next level and represents one level\r\n    // further of details. the focus of the report is presented as a key\r\n    struct ReportOverview {\r\n        uint256 sum;\r\n        uint256 count;\r\n        bytes[] categories;\r\n        mapping(bytes => ReportItem) reportItems;\r\n    }\r\n\r\n    // reports can be further divided into report items which represent the\r\n    // lowest level of reporting.\r\n    struct ReportItem {\r\n        uint256 sum;\r\n        uint256 count;\r\n    }\r\n\r\n    mapping(address => bool) private _access;\r\n    uint256 constant DAY_IN_SECONDS = 86400;\r\n\r\n    // this represents a global overview of reports\r\n    ReportPeriod private _overallReport;\r\n\r\n    mapping(uint256 => ReportPeriod) private reports;\r\n\r\n    /**\r\n     * @dev return the latest report object using the latest timestamp to find the\r\n     * report from reports mapping.\r\n     *\r\n     * @return period latest report using timestamp to derive the timeslot\r\n     */\r\n    function getLatestReportObject()\r\n        internal\r\n        view\r\n        returns (ReportPeriod storage period)\r\n    {\r\n        period = reports[getLatestReportingPeriod()];\r\n    }\r\n\r\n    /**\r\n     * @dev given a unix timestamp (in seconds) return the current weekday\r\n     * note week 0 is sunday, week 6 is saturday\r\n     *\r\n     * @param timestamp unix timestamp in seconds (e.g. block.timestamp)\r\n     * @return weekday the day of week between 0 and 6 (inclusive)\r\n     */\r\n    function getWeekday(uint256 timestamp) public pure returns (uint8 weekday) {\r\n        weekday = uint8((timestamp / DAY_IN_SECONDS + 4) % 7);\r\n    }\r\n\r\n    /**\r\n     * @dev this function will take a timestamp and normalise it to a value.\r\n     * By default, reports are normalised to closest start of the week, so this\r\n     * function will help generate weekly reports\r\n     *\r\n     * @param timestamp is the UNIX timestamp (in seconds) e.g. the block.timestamp\r\n     */\r\n    function getReportPeriodFor(uint256 timestamp)\r\n        public\r\n        view\r\n        virtual\r\n        returns (uint256 reportPeriod)\r\n    {\r\n        uint256 currentDOW = getWeekday(timestamp);\r\n        timestamp = (timestamp - currentDOW * DAY_IN_SECONDS);\r\n        timestamp = timestamp - timestamp % DAY_IN_SECONDS;\r\n        reportPeriod = timestamp;\r\n    }\r\n\r\n    /**\r\n     * @dev get the latest reporting period given the block timestamp. Return a normalised value\r\n     * based on timestamp. By default we return normalised by week\r\n     *\r\n     * @return reportPeriod the normalised report period for the latest timestamp\r\n     */\r\n    function getLatestReportingPeriod()\r\n        public\r\n        view\r\n        returns (uint256 reportPeriod)\r\n    {\r\n        return getReportPeriodFor(block.timestamp);\r\n    }\r\n\r\n    /**\r\n     * @dev grant access to selected reporter. only the owner of the report object may assign reporters\r\n     *\r\n     * @param reporter the address of user/contract that may update this report\r\n     */\r\n    function grantAccess(address reporter) public onlyOwner {\r\n        _access[reporter] = true;\r\n    }\r\n\r\n    /**\r\n     * @dev revoke access for a selected reporter. only the owner of the report may revoke reporters\r\n     *\r\n     * @param reporter the address of the user/contract that we are revoking access\r\n     */\r\n    function revokeAccess(address reporter) public onlyOwner {\r\n        _access[reporter] = false;\r\n    }\r\n\r\n    modifier accessible() {\r\n        require(\r\n            _access[msg.sender] || owner() == msg.sender,\r\n            \"Cannot access reporting function\"\r\n        );\r\n        _;\r\n    }\r\n\r\n    /**\r\n     * @dev update a report given the period and the value. If the period is 0, then\r\n     * the global report is updated. The sum is increased by the supplied value and the\r\n     * count is incremented by 1\r\n     *\r\n     * @param period is the normalised period that we want to update.\r\n     * @param value is the value to be added\r\n     */\r\n    function updateReport(uint256 period, uint256 value) private {\r\n        ReportPeriod storage latest;\r\n        if (period == 0) {\r\n            latest = _overallReport;\r\n        } else {\r\n            latest = getLatestReportObject();\r\n        }\r\n        latest.count += 1;\r\n        latest.sum += value;\r\n    }\r\n\r\n    /**\r\n     * @dev update a report given the period, key and the value. If the period is 0, then\r\n     * the global report is updated. The sum is increased by the supplied value and the\r\n     * count is incremented by 1. The key represents one additional dimension of data recorded\r\n     *\r\n     * @param period the normalised period that we want to update.\r\n     * @param key the key dimension for this report\r\n     * @param value the value to be added\r\n     */\r\n    function updateReport(\r\n        uint256 period,\r\n        bytes memory key,\r\n        uint256 value\r\n    ) private {\r\n        updateReport(period, value);\r\n        ReportPeriod storage latest;\r\n        if (period == 0) {\r\n            latest = _overallReport;\r\n        } else {\r\n            latest = getLatestReportObject();\r\n        }\r\n        ReportOverview storage overview = latest.reports[key];\r\n        if (overview.count == 0) {\r\n            latest.keys.push(key);\r\n        }\r\n        overview.count += 1;\r\n        overview.sum += value;\r\n    }\r\n\r\n    /**\r\n     * @dev update a report given the period, key and category and the value. If the period is 0, then\r\n     * the global report is updated. The sum is increased by the supplied value and the\r\n     * count is incremented by 1. The key and category can be used to capture more fine-grain data\r\n     * note data is rolled up to the parent\r\n     *\r\n     * @param period the normalised period that we want to update.\r\n     * @param key the key dimension for this report\r\n     * @param category the category dimension for this report\r\n     * @param value the value to be added\r\n     */\r\n    function updateReport(\r\n        uint256 period,\r\n        bytes memory key,\r\n        bytes memory category,\r\n        uint256 value\r\n    ) private {\r\n        updateReport(period, key, value);\r\n        ReportPeriod storage latest;\r\n        if (period == 0) {\r\n            latest = _overallReport;\r\n        } else {\r\n            latest = getLatestReportObject();\r\n        }\r\n        ReportOverview storage overview = latest.reports[key];\r\n        ReportItem storage item = overview.reportItems[category];\r\n\r\n        if (item.count == 0) {\r\n            overview.categories.push(category);\r\n            overview.reportItems[category] = item;\r\n        }\r\n        item.count += 1;\r\n        item.sum += value;\r\n    }\r\n\r\n    /**\r\n     * @dev update the latest report, and update the global report for the running total\r\n     *\r\n     * @param value the value to be added\r\n     */\r\n    function updateLatestReport(uint256 value) external accessible {\r\n        uint256 period = getLatestReportingPeriod();\r\n        updateReport(period, value);\r\n        updateReport(0, value); // update global report\r\n    }\r\n\r\n    /**\r\n     * @dev update the latest report, and update the global report for the running total\r\n     *\r\n     * @param key the key dimension for this report\r\n     * @param value the value to be added\r\n     */\r\n    function updateLatestReport(bytes memory key, uint256 value)\r\n        external\r\n        accessible\r\n    {\r\n        uint256 period = getLatestReportingPeriod();\r\n        updateReport(period, key, value);\r\n        updateReport(0, key, value); // update global report\r\n    }\r\n\r\n    /**\r\n     * @dev update the latest report, and update the global report for the running total\r\n     *\r\n     * @param key the key dimension for this report\r\n     * @param category the category dimension for this report\r\n     * @param value the value to be added\r\n     */\r\n    function updateLatestReport(\r\n        bytes memory key,\r\n        bytes memory category,\r\n        uint256 value\r\n    ) external accessible {\r\n        uint256 period = getLatestReportingPeriod();\r\n        updateReport(period, key, category, value);\r\n        updateReport(0, key, category, value); // update global report\r\n    }\r\n\r\n    /**\r\n     * @dev update the global report, this should be used if there is no intention to\r\n     * have the report tool manage the running totals\r\n     *\r\n     * @param value the value to be added\r\n     */\r\n    function updateGlobalReport(uint256 value) external accessible {\r\n        updateReport(0, value);\r\n    }\r\n\r\n    /**\r\n     * @dev update the global report, this should be used if there is no intention to\r\n     * have the report tool manage the running totals\r\n     *\r\n     * @param key the key dimension for this report\r\n     * @param value the value to be added\r\n     */\r\n    function updateGlobalReport(bytes memory key, uint256 value)\r\n        external\r\n        accessible\r\n    {\r\n        updateReport(0, key, value);\r\n    }\r\n\r\n    /**\r\n     * @dev update the global report, this should be used if there is no intention to\r\n     * have the report tool manage the running totals\r\n     *\r\n     * @param key the key dimension for this report\r\n     * @param category the category dimension for this report\r\n     * @param value the value to be added\r\n     */\r\n    function updateGlobalReport(\r\n        bytes memory key,\r\n        bytes memory category,\r\n        uint256 value\r\n    ) external accessible {\r\n        updateReport(0, key, category, value);\r\n    }\r\n\r\n    /**\r\n     * @dev get the report for a given period. supply 0 for the argument to get the global report\r\n     * note returns data for the next level, use the keys to query further\r\n     *\r\n     * @param period the period for which we want to retrieve the data\r\n     * @return sum current accumulated sum\r\n     * @return count current total count for the overall report\r\n     * @return sums all the sums that have been accumulated so far\r\n     * @return counts all the counts that have been accumulated so far\r\n     * @return keys a list of key dimensions. sums, counts and keys have same length and indexed accordingly\r\n     */\r\n    function getReportForPeriod(uint256 period)\r\n        public\r\n        view\r\n        returns (\r\n            uint256 sum,\r\n            uint256 count,\r\n            uint256[] memory sums,\r\n            uint256[] memory counts,\r\n            bytes[] memory keys\r\n        )\r\n    {\r\n        ReportPeriod storage report;\r\n        if (period == 0) {\r\n            report = _overallReport;\r\n        } else {\r\n            report = reports[period];\r\n        }\r\n\r\n        sum = report.sum;\r\n        count = report.count;\r\n        keys = report.keys;\r\n\r\n        uint256[] memory sumStorage = new uint256[](keys.length);\r\n        uint256[] memory countStorage = new uint256[](keys.length);\r\n\r\n        for (uint256 i = 0; i < keys.length; i++) {\r\n            sumStorage[i] = report.reports[keys[i]].sum;\r\n            countStorage[i] = report.reports[keys[i]].count;\r\n        }\r\n\r\n        sums = sumStorage;\r\n        counts = countStorage;\r\n    }\r\n\r\n    /**\r\n     * @dev get the report for a given period and key dimension. supply 0 for the argument to get the global report\r\n     * note returns data for the next level, use the keys to query further\r\n     *\r\n     * @param period the period for which we want to retrieve the data\r\n     * @param key the key dimension which we want to report on\r\n     * @return sum current accumulated sum\r\n     * @return count current total count for the overall report\r\n     * @return sums all the sums that have been accumulated so far\r\n     * @return counts all the counts that have been accumulated so far\r\n     * @return keys a list of key dimensions. sums, counts and keys have same length and indexed accordingly\r\n     */\r\n    function getReportForPeriod(uint256 period, bytes memory key)\r\n        public\r\n        view\r\n        returns (\r\n            uint256 sum,\r\n            uint256 count,\r\n            uint256[] memory sums,\r\n            uint256[] memory counts,\r\n            bytes[] memory keys\r\n        )\r\n    {\r\n        ReportPeriod storage report;\r\n        if (period == 0) {\r\n            report = _overallReport;\r\n        } else {\r\n            report = reports[period];\r\n        }\r\n\r\n        ReportOverview storage reportOverview = report.reports[key];\r\n        sum = reportOverview.sum;\r\n        count = reportOverview.count;\r\n        keys = reportOverview.categories;\r\n\r\n        uint256[] memory sumStorage = new uint256[](keys.length);\r\n        uint256[] memory countStorage = new uint256[](keys.length);\r\n\r\n        for (uint256 i = 0; i < keys.length; i++) {\r\n            sumStorage[i] = reportOverview.reportItems[keys[i]].sum;\r\n            countStorage[i] = reportOverview.reportItems[keys[i]].count;\r\n        }\r\n\r\n        sums = sumStorage;\r\n        counts = countStorage;\r\n    }\r\n\r\n    /**\r\n     * @dev get the report for a given period and key dimension. supply 0 for the argument to get the global report\r\n     * note returns data for the next level, use the keys to query further\r\n     *\r\n     * @param period the period for which we want to retrieve the data\r\n     * @param key the key dimension which we want to report on\r\n     * @param category the category dimension which we want to report on\r\n     * @return sum current accumulated sum\r\n     * @return count current total count for the overall report\r\n     */\r\n    function getReportForPeriod(\r\n        uint256 period,\r\n        bytes memory key,\r\n        bytes memory category\r\n    ) public view returns (uint256 sum, uint256 count) {\r\n        ReportPeriod storage report;\r\n        if (period == 0) {\r\n            report = _overallReport;\r\n        } else {\r\n            report = reports[period];\r\n        }\r\n\r\n        ReportItem storage item = report.reports[key].reportItems[category];\r\n        sum = item.sum;\r\n        count = item.count;\r\n    }\r\n\r\n    /**\r\n     * @dev get the latest report at the highest level. includes key dimension breakdown\r\n     * note returns data for the next level, use the keys to query further\r\n     *\r\n     * @return sum current accumulated sum\r\n     * @return count current total count for the overall report\r\n     * @return sums all the sums that have been accumulated so far\r\n     * @return counts all the counts that have been accumulated so far\r\n     * @return keys a list of key dimensions. sums, counts and keys have same length and indexed accordingly\r\n     */\r\n    function getLatestReport()\r\n        public\r\n        view\r\n        returns (\r\n            uint256 sum,\r\n            uint256 count,\r\n            uint256[] memory sums,\r\n            uint256[] memory counts,\r\n            bytes[] memory keys\r\n        )\r\n    {\r\n        return getReportForPeriod(getLatestReportingPeriod());\r\n    }\r\n\r\n    /**\r\n     * @dev get the latest report for a key dimension\r\n     * note returns data for the next level, use the categories to query further\r\n     *\r\n     * @param key the key dimension which we want to report on\r\n     * @return sum current accumulated sum\r\n     * @return count current total count for the overall report\r\n     * @return sums all the sums that have been accumulated so far\r\n     * @return counts all the counts that have been accumulated so far\r\n     * @return keys a list of key dimensions. sums, counts and keys have same length and indexed accordingly\r\n     */\r\n    function getLatestReport(bytes memory key)\r\n        public\r\n        view\r\n        returns (\r\n            uint256 sum,\r\n            uint256 count,\r\n            uint256[] memory sums,\r\n            uint256[] memory counts,\r\n            bytes[] memory keys\r\n        )\r\n    {\r\n        return getReportForPeriod(getLatestReportingPeriod(), key);\r\n    }\r\n\r\n    /**\r\n     * @dev get the latest report for a key and category dimension\r\n     *\r\n     * @param key the key dimension which we want to report on\r\n     * @return sum current accumulated sum\r\n     * @return count current total count for the overall report\r\n     */\r\n    function getLatestReport(bytes memory key, bytes memory category)\r\n        public\r\n        view\r\n        returns (uint256 sum, uint256 count)\r\n    {\r\n        return getReportForPeriod(getLatestReportingPeriod(), key, category);\r\n    }\r\n}\r\n",
  "sourcePath": "D:\\job\\NFT\\social-harmony\\truffle\\contracts\\reports\\Report.sol",
  "compiler": {
    "name": "solc",
    "version": "0.8.11+commit.d7f03943.Emscripten.clang"
  },
  "schemaVersion": "3.4.3",
  "updatedAt": "2022-02-14T20:28:14.741Z",
  "devdoc": {
    "author": "victaphu",
    "details": "On-Chain reporting of a single metric and its count defined by a key and a category. It will store each in a bucket denoted by the {Report}-{getReportingPeriodFor} function, which defines a bucket given a timestamp. The report is configured for weekly reporting, with a week starting on Sunday. Override the {getReportingPeriodFor} to derive your own reporting period. Note Use the provided API to update the global report or the latest reports. When updating the latest reports, the global report is also updated. Designed as real-time reporting. A global report keeps track of overall accumulated values. Note no overflow has been added ... something to be mindful of",
    "kind": "dev",
    "methods": {
      "getLatestReport()": {
        "details": "get the latest report at the highest level. includes key dimension breakdown note returns data for the next level, use the keys to query further",
        "returns": {
          "count": "current total count for the overall report",
          "counts": "all the counts that have been accumulated so far",
          "keys": "a list of key dimensions. sums, counts and keys have same length and indexed accordingly",
          "sum": "current accumulated sum",
          "sums": "all the sums that have been accumulated so far"
        }
      },
      "getLatestReport(bytes)": {
        "details": "get the latest report for a key dimension note returns data for the next level, use the categories to query further",
        "params": {
          "key": "the key dimension which we want to report on"
        },
        "returns": {
          "count": "current total count for the overall report",
          "counts": "all the counts that have been accumulated so far",
          "keys": "a list of key dimensions. sums, counts and keys have same length and indexed accordingly",
          "sum": "current accumulated sum",
          "sums": "all the sums that have been accumulated so far"
        }
      },
      "getLatestReport(bytes,bytes)": {
        "details": "get the latest report for a key and category dimension",
        "params": {
          "key": "the key dimension which we want to report on"
        },
        "returns": {
          "count": "current total count for the overall report",
          "sum": "current accumulated sum"
        }
      },
      "getLatestReportingPeriod()": {
        "details": "get the latest reporting period given the block timestamp. Return a normalised value based on timestamp. By default we return normalised by week",
        "returns": {
          "reportPeriod": "the normalised report period for the latest timestamp"
        }
      },
      "getReportForPeriod(uint256)": {
        "details": "get the report for a given period. supply 0 for the argument to get the global report note returns data for the next level, use the keys to query further",
        "params": {
          "period": "the period for which we want to retrieve the data"
        },
        "returns": {
          "count": "current total count for the overall report",
          "counts": "all the counts that have been accumulated so far",
          "keys": "a list of key dimensions. sums, counts and keys have same length and indexed accordingly",
          "sum": "current accumulated sum",
          "sums": "all the sums that have been accumulated so far"
        }
      },
      "getReportForPeriod(uint256,bytes)": {
        "details": "get the report for a given period and key dimension. supply 0 for the argument to get the global report note returns data for the next level, use the keys to query further",
        "params": {
          "key": "the key dimension which we want to report on",
          "period": "the period for which we want to retrieve the data"
        },
        "returns": {
          "count": "current total count for the overall report",
          "counts": "all the counts that have been accumulated so far",
          "keys": "a list of key dimensions. sums, counts and keys have same length and indexed accordingly",
          "sum": "current accumulated sum",
          "sums": "all the sums that have been accumulated so far"
        }
      },
      "getReportForPeriod(uint256,bytes,bytes)": {
        "details": "get the report for a given period and key dimension. supply 0 for the argument to get the global report note returns data for the next level, use the keys to query further",
        "params": {
          "category": "the category dimension which we want to report on",
          "key": "the key dimension which we want to report on",
          "period": "the period for which we want to retrieve the data"
        },
        "returns": {
          "count": "current total count for the overall report",
          "sum": "current accumulated sum"
        }
      },
      "getReportPeriodFor(uint256)": {
        "details": "this function will take a timestamp and normalise it to a value. By default, reports are normalised to closest start of the week, so this function will help generate weekly reports",
        "params": {
          "timestamp": "is the UNIX timestamp (in seconds) e.g. the block.timestamp"
        }
      },
      "getWeekday(uint256)": {
        "details": "given a unix timestamp (in seconds) return the current weekday note week 0 is sunday, week 6 is saturday",
        "params": {
          "timestamp": "unix timestamp in seconds (e.g. block.timestamp)"
        },
        "returns": {
          "weekday": "the day of week between 0 and 6 (inclusive)"
        }
      },
      "grantAccess(address)": {
        "details": "grant access to selected reporter. only the owner of the report object may assign reporters",
        "params": {
          "reporter": "the address of user/contract that may update this report"
        }
      },
      "owner()": {
        "details": "Returns the address of the current owner."
      },
      "renounceOwnership()": {
        "details": "Leaves the contract without owner. It will not be possible to call `onlyOwner` functions anymore. Can only be called by the current owner. NOTE: Renouncing ownership will leave the contract without an owner, thereby removing any functionality that is only available to the owner."
      },
      "revokeAccess(address)": {
        "details": "revoke access for a selected reporter. only the owner of the report may revoke reporters",
        "params": {
          "reporter": "the address of the user/contract that we are revoking access"
        }
      },
      "transferOwnership(address)": {
        "details": "Transfers ownership of the contract to a new account (`newOwner`). Can only be called by the current owner."
      },
      "updateGlobalReport(bytes,bytes,uint256)": {
        "details": "update the global report, this should be used if there is no intention to have the report tool manage the running totals",
        "params": {
          "category": "the category dimension for this report",
          "key": "the key dimension for this report",
          "value": "the value to be added"
        }
      },
      "updateGlobalReport(bytes,uint256)": {
        "details": "update the global report, this should be used if there is no intention to have the report tool manage the running totals",
        "params": {
          "key": "the key dimension for this report",
          "value": "the value to be added"
        }
      },
      "updateGlobalReport(uint256)": {
        "details": "update the global report, this should be used if there is no intention to have the report tool manage the running totals",
        "params": {
          "value": "the value to be added"
        }
      },
      "updateLatestReport(bytes,bytes,uint256)": {
        "details": "update the latest report, and update the global report for the running total",
        "params": {
          "category": "the category dimension for this report",
          "key": "the key dimension for this report",
          "value": "the value to be added"
        }
      },
      "updateLatestReport(bytes,uint256)": {
        "details": "update the latest report, and update the global report for the running total",
        "params": {
          "key": "the key dimension for this report",
          "value": "the value to be added"
        }
      },
      "updateLatestReport(uint256)": {
        "details": "update the latest report, and update the global report for the running total",
        "params": {
          "value": "the value to be added"
        }
      }
    },
    "title": "Report Framework",
    "version": 1
  },
  "userdoc": {
    "kind": "user",
    "methods": {},
    "notice": "Smart Contract developed for the Harmony One Round 2 Hackathon on Gitcoin",
    "version": 1
  }
}