{
  "contractName": "SocialHarmonyRegistry",
  "abi": [
    {
      "inputs": [],
      "stateMutability": "nonpayable",
      "type": "constructor"
    },
    {
      "anonymous": false,
      "inputs": [
        {
          "indexed": true,
          "internalType": "address",
          "name": "previousOwner",
          "type": "address"
        },
        {
          "indexed": true,
          "internalType": "address",
          "name": "newOwner",
          "type": "address"
        }
      ],
      "name": "OwnershipTransferred",
      "type": "event"
    },
    {
      "anonymous": false,
      "inputs": [
        {
          "indexed": true,
          "internalType": "bytes32",
          "name": "role",
          "type": "bytes32"
        },
        {
          "indexed": true,
          "internalType": "bytes32",
          "name": "previousAdminRole",
          "type": "bytes32"
        },
        {
          "indexed": true,
          "internalType": "bytes32",
          "name": "newAdminRole",
          "type": "bytes32"
        }
      ],
      "name": "RoleAdminChanged",
      "type": "event"
    },
    {
      "anonymous": false,
      "inputs": [
        {
          "indexed": true,
          "internalType": "bytes32",
          "name": "role",
          "type": "bytes32"
        },
        {
          "indexed": true,
          "internalType": "address",
          "name": "account",
          "type": "address"
        },
        {
          "indexed": true,
          "internalType": "address",
          "name": "sender",
          "type": "address"
        }
      ],
      "name": "RoleGranted",
      "type": "event"
    },
    {
      "anonymous": false,
      "inputs": [
        {
          "indexed": true,
          "internalType": "bytes32",
          "name": "role",
          "type": "bytes32"
        },
        {
          "indexed": true,
          "internalType": "address",
          "name": "account",
          "type": "address"
        },
        {
          "indexed": true,
          "internalType": "address",
          "name": "sender",
          "type": "address"
        }
      ],
      "name": "RoleRevoked",
      "type": "event"
    },
    {
      "inputs": [],
      "name": "DEFAULT_ADMIN_ROLE",
      "outputs": [
        {
          "internalType": "bytes32",
          "name": "",
          "type": "bytes32"
        }
      ],
      "stateMutability": "view",
      "type": "function"
    },
    {
      "inputs": [],
      "name": "VERIFIER_GRANT_ROLE",
      "outputs": [
        {
          "internalType": "bytes32",
          "name": "",
          "type": "bytes32"
        }
      ],
      "stateMutability": "view",
      "type": "function"
    },
    {
      "inputs": [
        {
          "internalType": "bytes32",
          "name": "role",
          "type": "bytes32"
        }
      ],
      "name": "getRoleAdmin",
      "outputs": [
        {
          "internalType": "bytes32",
          "name": "",
          "type": "bytes32"
        }
      ],
      "stateMutability": "view",
      "type": "function"
    },
    {
      "inputs": [
        {
          "internalType": "bytes32",
          "name": "role",
          "type": "bytes32"
        },
        {
          "internalType": "address",
          "name": "account",
          "type": "address"
        }
      ],
      "name": "grantRole",
      "outputs": [],
      "stateMutability": "nonpayable",
      "type": "function"
    },
    {
      "inputs": [
        {
          "internalType": "bytes32",
          "name": "role",
          "type": "bytes32"
        },
        {
          "internalType": "address",
          "name": "account",
          "type": "address"
        }
      ],
      "name": "hasRole",
      "outputs": [
        {
          "internalType": "bool",
          "name": "",
          "type": "bool"
        }
      ],
      "stateMutability": "view",
      "type": "function"
    },
    {
      "inputs": [],
      "name": "lastUpdated",
      "outputs": [
        {
          "internalType": "uint256",
          "name": "",
          "type": "uint256"
        }
      ],
      "stateMutability": "view",
      "type": "function"
    },
    {
      "inputs": [
        {
          "internalType": "uint256",
          "name": "",
          "type": "uint256"
        }
      ],
      "name": "organisations",
      "outputs": [
        {
          "internalType": "address",
          "name": "",
          "type": "address"
        }
      ],
      "stateMutability": "view",
      "type": "function"
    },
    {
      "inputs": [],
      "name": "owner",
      "outputs": [
        {
          "internalType": "address",
          "name": "",
          "type": "address"
        }
      ],
      "stateMutability": "view",
      "type": "function"
    },
    {
      "inputs": [],
      "name": "renounceOwnership",
      "outputs": [],
      "stateMutability": "nonpayable",
      "type": "function"
    },
    {
      "inputs": [
        {
          "internalType": "bytes32",
          "name": "role",
          "type": "bytes32"
        },
        {
          "internalType": "address",
          "name": "account",
          "type": "address"
        }
      ],
      "name": "renounceRole",
      "outputs": [],
      "stateMutability": "nonpayable",
      "type": "function"
    },
    {
      "inputs": [
        {
          "internalType": "bytes32",
          "name": "role",
          "type": "bytes32"
        },
        {
          "internalType": "address",
          "name": "account",
          "type": "address"
        }
      ],
      "name": "revokeRole",
      "outputs": [],
      "stateMutability": "nonpayable",
      "type": "function"
    },
    {
      "inputs": [],
      "name": "socialGameToken",
      "outputs": [
        {
          "internalType": "contract SocialGameToken",
          "name": "",
          "type": "address"
        }
      ],
      "stateMutability": "view",
      "type": "function"
    },
    {
      "inputs": [
        {
          "internalType": "bytes4",
          "name": "interfaceId",
          "type": "bytes4"
        }
      ],
      "name": "supportsInterface",
      "outputs": [
        {
          "internalType": "bool",
          "name": "",
          "type": "bool"
        }
      ],
      "stateMutability": "view",
      "type": "function"
    },
    {
      "inputs": [
        {
          "internalType": "address",
          "name": "newOwner",
          "type": "address"
        }
      ],
      "name": "transferOwnership",
      "outputs": [],
      "stateMutability": "nonpayable",
      "type": "function"
    },
    {
      "inputs": [
        {
          "internalType": "address",
          "name": "organisation",
          "type": "address"
        }
      ],
      "name": "tokenURI",
      "outputs": [
        {
          "internalType": "string",
          "name": "",
          "type": "string"
        }
      ],
      "stateMutability": "view",
      "type": "function"
    },
    {
      "inputs": [
        {
          "internalType": "string",
          "name": "uri",
          "type": "string"
        }
      ],
      "name": "registerURI",
      "outputs": [],
      "stateMutability": "nonpayable",
      "type": "function"
    },
    {
      "inputs": [
        {
          "internalType": "address",
          "name": "organisation",
          "type": "address"
        }
      ],
      "name": "isVerified",
      "outputs": [
        {
          "internalType": "bool",
          "name": "verified_",
          "type": "bool"
        }
      ],
      "stateMutability": "view",
      "type": "function"
    },
    {
      "inputs": [
        {
          "internalType": "address",
          "name": "organisation",
          "type": "address"
        }
      ],
      "name": "verifyOrganisation",
      "outputs": [],
      "stateMutability": "nonpayable",
      "type": "function"
    },
    {
      "inputs": [
        {
          "internalType": "address",
          "name": "organisation",
          "type": "address"
        }
      ],
      "name": "unverifyOrganisation",
      "outputs": [],
      "stateMutability": "nonpayable",
      "type": "function"
    },
    {
      "inputs": [],
      "name": "getOrgsCount",
      "outputs": [
        {
          "internalType": "uint256",
          "name": "count",
          "type": "uint256"
        }
      ],
      "stateMutability": "view",
      "type": "function"
    },
    {
      "inputs": [],
      "name": "getOrgs",
      "outputs": [
        {
          "internalType": "address[]",
          "name": "orgs",
          "type": "address[]"
        }
      ],
      "stateMutability": "view",
      "type": "function"
    },
    {
      "inputs": [
        {
          "internalType": "uint256",
          "name": "start",
          "type": "uint256"
        },
        {
          "internalType": "uint256",
          "name": "pageSize",
          "type": "uint256"
        }
      ],
      "name": "getURIs",
      "outputs": [
        {
          "internalType": "address[]",
          "name": "orgs",
          "type": "address[]"
        },
        {
          "internalType": "string[]",
          "name": "orgURIs",
          "type": "string[]"
        },
        {
          "internalType": "bool[]",
          "name": "verified",
          "type": "bool[]"
        }
      ],
      "stateMutability": "view",
      "type": "function"
    }
  ],
  "bytecode": "0x608060405260006005553480156200001657600080fd5b506000620000296200011460201b60201c565b9050806000806101000a81548173ffffffffffffffffffffffffffffffffffffffff021916908373ffffffffffffffffffffffffffffffffffffffff1602179055508073ffffffffffffffffffffffffffffffffffffffff16600073ffffffffffffffffffffffffffffffffffffffff167f8be0079c531659141344cd1fd0a4f28419497f9722a3daafe3b4186f6b6457e060405160405180910390a350620000dc6000801b336200011c60201b60201c565b6200010e7f3078303200000000000000000000000000000000000000000000000000000000336200011c60201b60201c565b6200028e565b600033905090565b6200012e82826200013260201b60201c565b5050565b6200014482826200022360201b60201c565b6200021f57600180600084815260200190815260200160002060000160008373ffffffffffffffffffffffffffffffffffffffff1673ffffffffffffffffffffffffffffffffffffffff16815260200190815260200160002060006101000a81548160ff021916908315150217905550620001c46200011460201b60201c565b73ffffffffffffffffffffffffffffffffffffffff168173ffffffffffffffffffffffffffffffffffffffff16837f2f8788117e7eff1d82e926ec794901d17c78024a50270940304540a733656f0d60405160405180910390a45b5050565b60006001600084815260200190815260200160002060000160008373ffffffffffffffffffffffffffffffffffffffff1673ffffffffffffffffffffffffffffffffffffffff16815260200190815260200160002060009054906101000a900460ff16905092915050565b612b54806200029e6000396000f3fe608060405234801561001057600080fd5b50600436106101125760003560e01c806301ffc9a7146101175780630cfec94614610147578063246f8c4414610163578063248a9ca3146101935780632f2ff15d146101c357806336568abe146101df5780635629a5ed146101fb578063715018a61461021757806376eb92ab14610221578063881b1a0b1461023f5780638da5cb5b1461025d57806391d148541461027b57806393702f33146102ab578063a217fddf146102db578063ad45a73e146102f9578063b9209e3314610317578063d0b06f5d14610347578063d547741f14610365578063e07876aa14610381578063ede76775146103b3578063f2fde38b146103d1578063fb9579b0146103ed575b600080fd5b610131600480360381019061012c9190611b61565b610409565b60405161013e9190611ba9565b60405180910390f35b610161600480360381019061015c9190611c22565b610483565b005b61017d60048036038101906101789190611c85565b61064a565b60405161018a9190611cc1565b60405180910390f35b6101ad60048036038101906101a89190611d12565b610689565b6040516101ba9190611d4e565b60405180910390f35b6101dd60048036038101906101d89190611d69565b6106a9565b005b6101f960048036038101906101f49190611d69565b6106d2565b005b61021560048036038101906102109190611eef565b610755565b005b61021f6108d4565b005b610229610a0e565b6040516102369190611f47565b60405180910390f35b610247610a1b565b6040516102549190611d4e565b60405180910390f35b610265610a3f565b6040516102729190611cc1565b60405180910390f35b61029560048036038101906102909190611d69565b610a68565b6040516102a29190611ba9565b60405180910390f35b6102c560048036038101906102c09190611c22565b610ad3565b6040516102d29190611fea565b60405180910390f35b6102e3610c32565b6040516102f09190611d4e565b60405180910390f35b610301610c39565b60405161030e919061206b565b60405180910390f35b610331600480360381019061032c9190611c22565b610c5f565b60405161033e9190611ba9565b60405180910390f35b61034f610cb5565b60405161035c9190611f47565b60405180910390f35b61037f600480360381019061037a9190611d69565b610cbb565b005b61039b60048036038101906103969190612086565b610ce4565b6040516103aa9392919061234e565b60405180910390f35b6103bb611147565b6040516103c8919061239a565b60405180910390f35b6103eb60048036038101906103e69190611c22565b6111d5565b005b61040760048036038101906104029190611c22565b61137e565b005b60007f7965db0b000000000000000000000000000000000000000000000000000000007bffffffffffffffffffffffffffffffffffffffffffffffffffffffff1916827bffffffffffffffffffffffffffffffffffffffffffffffffffffffff1916148061047c575061047b82611545565b5b9050919050565b7f30783032000000000000000000000000000000000000000000000000000000006104b5816104b06115af565b6115b7565b6000600260008473ffffffffffffffffffffffffffffffffffffffff1673ffffffffffffffffffffffffffffffffffffffff1681526020019081526020016000208054610501906123eb565b905011610543576040517f08c379a000000000000000000000000000000000000000000000000000000000815260040161053a90612469565b60405180910390fd5b60011515600460008473ffffffffffffffffffffffffffffffffffffffff1673ffffffffffffffffffffffffffffffffffffffff16815260200190815260200160002060009054906101000a900460ff161515146105d6576040517f08c379a00000000000000000000000000000000000000000000000000000000081526004016105cd906124d5565b60405180910390fd5b6000600460008473ffffffffffffffffffffffffffffffffffffffff1673ffffffffffffffffffffffffffffffffffffffff16815260200190815260200160002060006101000a81548160ff0219169083151502179055506005600081548092919061064190612524565b91905055505050565b6003818154811061065a57600080fd5b906000526020600020016000915054906101000a900473ffffffffffffffffffffffffffffffffffffffff1681565b600060016000838152602001908152602001600020600101549050919050565b6106b282610689565b6106c3816106be6115af565b6115b7565b6106cd8383611654565b505050565b6106da6115af565b73ffffffffffffffffffffffffffffffffffffffff168173ffffffffffffffffffffffffffffffffffffffff1614610747576040517f08c379a000000000000000000000000000000000000000000000000000000000815260040161073e906125df565b60405180910390fd5b6107518282611734565b5050565b6000600260003373ffffffffffffffffffffffffffffffffffffffff1673ffffffffffffffffffffffffffffffffffffffff16815260200190815260200160002080546107a1906123eb565b9050141561080d576003339080600181540180825580915050600190039060005260206000200160009091909190916101000a81548173ffffffffffffffffffffffffffffffffffffffff021916908373ffffffffffffffffffffffffffffffffffffffff1602179055505b80600260003373ffffffffffffffffffffffffffffffffffffffff1673ffffffffffffffffffffffffffffffffffffffff1681526020019081526020016000209080519060200190610860929190611a52565b506000600460003373ffffffffffffffffffffffffffffffffffffffff1673ffffffffffffffffffffffffffffffffffffffff16815260200190815260200160002060006101000a81548160ff021916908315150217905550600560008154809291906108cc90612524565b919050555050565b6108dc6115af565b73ffffffffffffffffffffffffffffffffffffffff166108fa610a3f565b73ffffffffffffffffffffffffffffffffffffffff1614610950576040517f08c379a00000000000000000000000000000000000000000000000000000000081526004016109479061264b565b60405180910390fd5b600073ffffffffffffffffffffffffffffffffffffffff1660008054906101000a900473ffffffffffffffffffffffffffffffffffffffff1673ffffffffffffffffffffffffffffffffffffffff167f8be0079c531659141344cd1fd0a4f28419497f9722a3daafe3b4186f6b6457e060405160405180910390a360008060006101000a81548173ffffffffffffffffffffffffffffffffffffffff021916908373ffffffffffffffffffffffffffffffffffffffff160217905550565b6000600380549050905090565b7f307830320000000000000000000000000000000000000000000000000000000081565b60008060009054906101000a900473ffffffffffffffffffffffffffffffffffffffff16905090565b60006001600084815260200190815260200160002060000160008373ffffffffffffffffffffffffffffffffffffffff1673ffffffffffffffffffffffffffffffffffffffff16815260200190815260200160002060009054906101000a900460ff16905092915050565b60606000600260008473ffffffffffffffffffffffffffffffffffffffff1673ffffffffffffffffffffffffffffffffffffffff1681526020019081526020016000208054610b21906123eb565b905011610b63576040517f08c379a0000000000000000000000000000000000000000000000000000000008152600401610b5a90612469565b60405180910390fd5b600260008373ffffffffffffffffffffffffffffffffffffffff1673ffffffffffffffffffffffffffffffffffffffff1681526020019081526020016000208054610bad906123eb565b80601f0160208091040260200160405190810160405280929190818152602001828054610bd9906123eb565b8015610c265780601f10610bfb57610100808354040283529160200191610c26565b820191906000526020600020905b815481529060010190602001808311610c0957829003601f168201915b50505050509050919050565b6000801b81565b600660009054906101000a900473ffffffffffffffffffffffffffffffffffffffff1681565b6000600460008373ffffffffffffffffffffffffffffffffffffffff1673ffffffffffffffffffffffffffffffffffffffff16815260200190815260200160002060009054906101000a900460ff169050919050565b60055481565b610cc482610689565b610cd581610cd06115af565b6115b7565b610cdf8383611734565b505050565b606080606060008510158015610cfa5750600084115b610d39576040517f08c379a0000000000000000000000000000000000000000000000000000000008152600401610d30906126dd565b60405180910390fd5b6003805490508486610d4b91906126fd565b1115610d8c576040517f08c379a0000000000000000000000000000000000000000000000000000000008152600401610d839061279f565b60405180910390fd5b60008467ffffffffffffffff811115610da857610da7611dc4565b5b604051908082528060200260200182016040528015610dd65781602001602082028036833780820191505090505b50905060008567ffffffffffffffff811115610df557610df4611dc4565b5b604051908082528060200260200182016040528015610e2857816020015b6060815260200190600190039081610e135790505b50905060008667ffffffffffffffff811115610e4757610e46611dc4565b5b604051908082528060200260200182016040528015610e755781602001602082028036833780820191505090505b50905060008890505b8789610e8a91906126fd565b81108015610e9c575060038054905081105b156111335760038181548110610eb557610eb46127bf565b5b9060005260206000200160009054906101000a900473ffffffffffffffffffffffffffffffffffffffff16848a83610eed91906127ee565b81518110610efe57610efd6127bf565b5b602002602001019073ffffffffffffffffffffffffffffffffffffffff16908173ffffffffffffffffffffffffffffffffffffffff16815250506002600060038381548110610f5057610f4f6127bf565b5b9060005260206000200160009054906101000a900473ffffffffffffffffffffffffffffffffffffffff1673ffffffffffffffffffffffffffffffffffffffff1673ffffffffffffffffffffffffffffffffffffffff1681526020019081526020016000208054610fc0906123eb565b80601f0160208091040260200160405190810160405280929190818152602001828054610fec906123eb565b80156110395780601f1061100e57610100808354040283529160200191611039565b820191906000526020600020905b81548152906001019060200180831161101c57829003601f168201915b5050505050838a8361104b91906127ee565b8151811061105c5761105b6127bf565b5b6020026020010181905250600460006003838154811061107f5761107e6127bf565b5b9060005260206000200160009054906101000a900473ffffffffffffffffffffffffffffffffffffffff1673ffffffffffffffffffffffffffffffffffffffff1673ffffffffffffffffffffffffffffffffffffffff16815260200190815260200160002060009054906101000a900460ff16828a836110ff91906127ee565b815181106111105761110f6127bf565b5b6020026020010190151590811515815250508061112c90612524565b9050610e7e565b508295508194508093505050509250925092565b606060038054806020026020016040519081016040528092919081815260200182805480156111cb57602002820191906000526020600020905b8160009054906101000a900473ffffffffffffffffffffffffffffffffffffffff1673ffffffffffffffffffffffffffffffffffffffff1681526020019060010190808311611181575b5050505050905090565b6111dd6115af565b73ffffffffffffffffffffffffffffffffffffffff166111fb610a3f565b73ffffffffffffffffffffffffffffffffffffffff1614611251576040517f08c379a00000000000000000000000000000000000000000000000000000000081526004016112489061264b565b60405180910390fd5b600073ffffffffffffffffffffffffffffffffffffffff168173ffffffffffffffffffffffffffffffffffffffff1614156112c1576040517f08c379a00000000000000000000000000000000000000000000000000000000081526004016112b890612894565b60405180910390fd5b8073ffffffffffffffffffffffffffffffffffffffff1660008054906101000a900473ffffffffffffffffffffffffffffffffffffffff1673ffffffffffffffffffffffffffffffffffffffff167f8be0079c531659141344cd1fd0a4f28419497f9722a3daafe3b4186f6b6457e060405160405180910390a3806000806101000a81548173ffffffffffffffffffffffffffffffffffffffff021916908373ffffffffffffffffffffffffffffffffffffffff16021790555050565b7f30783032000000000000000000000000000000000000000000000000000000006113b0816113ab6115af565b6115b7565b6000600260008473ffffffffffffffffffffffffffffffffffffffff1673ffffffffffffffffffffffffffffffffffffffff16815260200190815260200160002080546113fc906123eb565b90501161143e576040517f08c379a000000000000000000000000000000000000000000000000000000000815260040161143590612469565b60405180910390fd5b60001515600460008473ffffffffffffffffffffffffffffffffffffffff1673ffffffffffffffffffffffffffffffffffffffff16815260200190815260200160002060009054906101000a900460ff161515146114d1576040517f08c379a00000000000000000000000000000000000000000000000000000000081526004016114c890612900565b60405180910390fd5b6001600460008473ffffffffffffffffffffffffffffffffffffffff1673ffffffffffffffffffffffffffffffffffffffff16815260200190815260200160002060006101000a81548160ff0219169083151502179055506005600081548092919061153c90612524565b91905055505050565b60007f01ffc9a7000000000000000000000000000000000000000000000000000000007bffffffffffffffffffffffffffffffffffffffffffffffffffffffff1916827bffffffffffffffffffffffffffffffffffffffffffffffffffffffff1916149050919050565b600033905090565b6115c18282610a68565b611650576115e68173ffffffffffffffffffffffffffffffffffffffff166014611816565b6115f48360001c6020611816565b6040516020016116059291906129f4565b6040516020818303038152906040526040517f08c379a00000000000000000000000000000000000000000000000000000000081526004016116479190611fea565b60405180910390fd5b5050565b61165e8282610a68565b61173057600180600084815260200190815260200160002060000160008373ffffffffffffffffffffffffffffffffffffffff1673ffffffffffffffffffffffffffffffffffffffff16815260200190815260200160002060006101000a81548160ff0219169083151502179055506116d56115af565b73ffffffffffffffffffffffffffffffffffffffff168173ffffffffffffffffffffffffffffffffffffffff16837f2f8788117e7eff1d82e926ec794901d17c78024a50270940304540a733656f0d60405160405180910390a45b5050565b61173e8282610a68565b156118125760006001600084815260200190815260200160002060000160008373ffffffffffffffffffffffffffffffffffffffff1673ffffffffffffffffffffffffffffffffffffffff16815260200190815260200160002060006101000a81548160ff0219169083151502179055506117b76115af565b73ffffffffffffffffffffffffffffffffffffffff168173ffffffffffffffffffffffffffffffffffffffff16837ff6391f5c32d9c69d2a47ea670b442974b53935d1edc7fd64eb21e047a839171b60405160405180910390a45b5050565b6060600060028360026118299190612a2e565b61183391906126fd565b67ffffffffffffffff81111561184c5761184b611dc4565b5b6040519080825280601f01601f19166020018201604052801561187e5781602001600182028036833780820191505090505b5090507f3000000000000000000000000000000000000000000000000000000000000000816000815181106118b6576118b56127bf565b5b60200101907effffffffffffffffffffffffffffffffffffffffffffffffffffffffffffff1916908160001a9053507f78000000000000000000000000000000000000000000000000000000000000008160018151811061191a576119196127bf565b5b60200101907effffffffffffffffffffffffffffffffffffffffffffffffffffffffffffff1916908160001a9053506000600184600261195a9190612a2e565b61196491906126fd565b90505b6001811115611a04577f3031323334353637383961626364656600000000000000000000000000000000600f8616601081106119a6576119a56127bf565b5b1a60f81b8282815181106119bd576119bc6127bf565b5b60200101907effffffffffffffffffffffffffffffffffffffffffffffffffffffffffffff1916908160001a905350600485901c9450806119fd90612a88565b9050611967565b5060008414611a48576040517f08c379a0000000000000000000000000000000000000000000000000000000008152600401611a3f90612afe565b60405180910390fd5b8091505092915050565b828054611a5e906123eb565b90600052602060002090601f016020900481019282611a805760008555611ac7565b82601f10611a9957805160ff1916838001178555611ac7565b82800160010185558215611ac7579182015b82811115611ac6578251825591602001919060010190611aab565b5b509050611ad49190611ad8565b5090565b5b80821115611af1576000816000905550600101611ad9565b5090565b6000604051905090565b600080fd5b600080fd5b60007fffffffff0000000000000000000000000000000000000000000000000000000082169050919050565b611b3e81611b09565b8114611b4957600080fd5b50565b600081359050611b5b81611b35565b92915050565b600060208284031215611b7757611b76611aff565b5b6000611b8584828501611b4c565b91505092915050565b60008115159050919050565b611ba381611b8e565b82525050565b6000602082019050611bbe6000830184611b9a565b92915050565b600073ffffffffffffffffffffffffffffffffffffffff82169050919050565b6000611bef82611bc4565b9050919050565b611bff81611be4565b8114611c0a57600080fd5b50565b600081359050611c1c81611bf6565b92915050565b600060208284031215611c3857611c37611aff565b5b6000611c4684828501611c0d565b91505092915050565b6000819050919050565b611c6281611c4f565b8114611c6d57600080fd5b50565b600081359050611c7f81611c59565b92915050565b600060208284031215611c9b57611c9a611aff565b5b6000611ca984828501611c70565b91505092915050565b611cbb81611be4565b82525050565b6000602082019050611cd66000830184611cb2565b92915050565b6000819050919050565b611cef81611cdc565b8114611cfa57600080fd5b50565b600081359050611d0c81611ce6565b92915050565b600060208284031215611d2857611d27611aff565b5b6000611d3684828501611cfd565b91505092915050565b611d4881611cdc565b82525050565b6000602082019050611d636000830184611d3f565b92915050565b60008060408385031215611d8057611d7f611aff565b5b6000611d8e85828601611cfd565b9250506020611d9f85828601611c0d565b9150509250929050565b600080fd5b600080fd5b6000601f19601f8301169050919050565b7f4e487b7100000000000000000000000000000000000000000000000000000000600052604160045260246000fd5b611dfc82611db3565b810181811067ffffffffffffffff82111715611e1b57611e1a611dc4565b5b80604052505050565b6000611e2e611af5565b9050611e3a8282611df3565b919050565b600067ffffffffffffffff821115611e5a57611e59611dc4565b5b611e6382611db3565b9050602081019050919050565b82818337600083830152505050565b6000611e92611e8d84611e3f565b611e24565b905082815260208101848484011115611eae57611ead611dae565b5b611eb9848285611e70565b509392505050565b600082601f830112611ed657611ed5611da9565b5b8135611ee6848260208601611e7f565b91505092915050565b600060208284031215611f0557611f04611aff565b5b600082013567ffffffffffffffff811115611f2357611f22611b04565b5b611f2f84828501611ec1565b91505092915050565b611f4181611c4f565b82525050565b6000602082019050611f5c6000830184611f38565b92915050565b600081519050919050565b600082825260208201905092915050565b60005b83811015611f9c578082015181840152602081019050611f81565b83811115611fab576000848401525b50505050565b6000611fbc82611f62565b611fc68185611f6d565b9350611fd6818560208601611f7e565b611fdf81611db3565b840191505092915050565b600060208201905081810360008301526120048184611fb1565b905092915050565b6000819050919050565b600061203161202c61202784611bc4565b61200c565b611bc4565b9050919050565b600061204382612016565b9050919050565b600061205582612038565b9050919050565b6120658161204a565b82525050565b6000602082019050612080600083018461205c565b92915050565b6000806040838503121561209d5761209c611aff565b5b60006120ab85828601611c70565b92505060206120bc85828601611c70565b9150509250929050565b600081519050919050565b600082825260208201905092915050565b6000819050602082019050919050565b6120fb81611be4565b82525050565b600061210d83836120f2565b60208301905092915050565b6000602082019050919050565b6000612131826120c6565b61213b81856120d1565b9350612146836120e2565b8060005b8381101561217757815161215e8882612101565b975061216983612119565b92505060018101905061214a565b5085935050505092915050565b600081519050919050565b600082825260208201905092915050565b6000819050602082019050919050565b600082825260208201905092915050565b60006121cc82611f62565b6121d681856121b0565b93506121e6818560208601611f7e565b6121ef81611db3565b840191505092915050565b600061220683836121c1565b905092915050565b6000602082019050919050565b600061222682612184565b612230818561218f565b935083602082028501612242856121a0565b8060005b8581101561227e578484038952815161225f85826121fa565b945061226a8361220e565b925060208a01995050600181019050612246565b50829750879550505050505092915050565b600081519050919050565b600082825260208201905092915050565b6000819050602082019050919050565b6122c581611b8e565b82525050565b60006122d783836122bc565b60208301905092915050565b6000602082019050919050565b60006122fb82612290565b612305818561229b565b9350612310836122ac565b8060005b8381101561234157815161232888826122cb565b9750612333836122e3565b925050600181019050612314565b5085935050505092915050565b600060608201905081810360008301526123688186612126565b9050818103602083015261237c818561221b565b9050818103604083015261239081846122f0565b9050949350505050565b600060208201905081810360008301526123b48184612126565b905092915050565b7f4e487b7100000000000000000000000000000000000000000000000000000000600052602260045260246000fd5b6000600282049050600182168061240357607f821691505b60208210811415612417576124166123bc565b5b50919050565b7f4f7267616e69736174696f6e206e6f7420726567697374657265640000000000600082015250565b6000612453601b83611f6d565b915061245e8261241d565b602082019050919050565b6000602082019050818103600083015261248281612446565b9050919050565b7f4f7267616e69736174696f6e20616c726561647920756e766572696669656400600082015250565b60006124bf601f83611f6d565b91506124ca82612489565b602082019050919050565b600060208201905081810360008301526124ee816124b2565b9050919050565b7f4e487b7100000000000000000000000000000000000000000000000000000000600052601160045260246000fd5b600061252f82611c4f565b91507fffffffffffffffffffffffffffffffffffffffffffffffffffffffffffffffff821415612562576125616124f5565b5b600182019050919050565b7f416363657373436f6e74726f6c3a2063616e206f6e6c792072656e6f756e636560008201527f20726f6c657320666f722073656c660000000000000000000000000000000000602082015250565b60006125c9602f83611f6d565b91506125d48261256d565b604082019050919050565b600060208201905081810360008301526125f8816125bc565b9050919050565b7f4f776e61626c653a2063616c6c6572206973206e6f7420746865206f776e6572600082015250565b6000612635602083611f6d565b9150612640826125ff565b602082019050919050565b6000602082019050818103600083015261266481612628565b9050919050565b7f696e76616c696420696e7075747320746f20676574555249732c20706167652060008201527f73697a6520696e76616c69640000000000000000000000000000000000000000602082015250565b60006126c7602c83611f6d565b91506126d28261266b565b604082019050919050565b600060208201905081810360008301526126f6816126ba565b9050919050565b600061270882611c4f565b915061271383611c4f565b9250827fffffffffffffffffffffffffffffffffffffffffffffffffffffffffffffffff03821115612748576127476124f5565b5b828201905092915050565b7f696e76616c696420696e70757420746f20676574555249730000000000000000600082015250565b6000612789601883611f6d565b915061279482612753565b602082019050919050565b600060208201905081810360008301526127b88161277c565b9050919050565b7f4e487b7100000000000000000000000000000000000000000000000000000000600052603260045260246000fd5b60006127f982611c4f565b915061280483611c4f565b925082821015612817576128166124f5565b5b828203905092915050565b7f4f776e61626c653a206e6577206f776e657220697320746865207a65726f206160008201527f6464726573730000000000000000000000000000000000000000000000000000602082015250565b600061287e602683611f6d565b915061288982612822565b604082019050919050565b600060208201905081810360008301526128ad81612871565b9050919050565b7f4f7267616e69736174696f6e20616c7265616479207665726966696564000000600082015250565b60006128ea601d83611f6d565b91506128f5826128b4565b602082019050919050565b60006020820190508181036000830152612919816128dd565b9050919050565b600081905092915050565b7f416363657373436f6e74726f6c3a206163636f756e7420000000000000000000600082015250565b6000612961601783612920565b915061296c8261292b565b601782019050919050565b600061298282611f62565b61298c8185612920565b935061299c818560208601611f7e565b80840191505092915050565b7f206973206d697373696e6720726f6c6520000000000000000000000000000000600082015250565b60006129de601183612920565b91506129e9826129a8565b601182019050919050565b60006129ff82612954565b9150612a0b8285612977565b9150612a16826129d1565b9150612a228284612977565b91508190509392505050565b6000612a3982611c4f565b9150612a4483611c4f565b9250817fffffffffffffffffffffffffffffffffffffffffffffffffffffffffffffffff0483118215151615612a7d57612a7c6124f5565b5b828202905092915050565b6000612a9382611c4f565b91506000821415612aa757612aa66124f5565b5b600182039050919050565b7f537472696e67733a20686578206c656e67746820696e73756666696369656e74600082015250565b6000612ae8602083611f6d565b9150612af382612ab2565b602082019050919050565b60006020820190508181036000830152612b1781612adb565b905091905056fea26469706673582212207965b61b5cb1a6000745eda6f8b6d93ccd5cfe1eb939bcaecc1bd7c5a6d8444864736f6c634300080b0033",
  "immutableReferences": {},
  "source": "// contracts/GameItem.sol\r\n// SPDX-License-Identifier: MIT\r\npragma solidity ^0.8.0;\r\n\r\nimport \"@openzeppelin/contracts/access/Ownable.sol\";\r\nimport \"@openzeppelin/contracts/access/AccessControl.sol\";\r\nimport \"./SocialGameToken.sol\";\r\n\r\n/**\r\n * @title Social Change Game Registry\r\n * @notice Smart Contract developed for the Harmony One Round 2 Hackathon on Gitcoin\r\n * @dev Contract that is used to register organisations for the social harmony games dapp.\r\n * Use a URI that points to a JSON object containing the information for each social harmony\r\n * organisation. Each org will have their own public keys registered in the registry. this can\r\n * be used to look up the social harmony games and the game token created for that public key.\r\n *\r\n * JSON format registering the organisation (note no validation of the JSON is made on the smart contract)\r\n {\r\n    \"organisation\": \"\",\r\n    \"organisationBanner\":\"\", // url of image\r\n    \"description\": \"\",\r\n    \"story\": \"\",\r\n    \"icon\": \"\",\r\n    \"heroImages\": [], // URL of images to show\r\n    \"publicKey\": \"\",\r\n    \"contactDetails\": {\r\n        \"email\": \"\",\r\n        \"site\": \"\",\r\n        \"twitter\": \"\",\r\n        \"facebook\": \"\",\r\n        \"phone\": \"\"\r\n    }\r\n }\r\n *\r\n * One public key may only own one organisation. The URI and JSON can be updated as required. For the DAPP, \r\n * IPFS is used to store the JSON dynamically. \r\n *\r\n * Note that at this point anyone can add an entry into the registry. Organisations are \r\n * verified by the registry owner (to be changed to allow multi-party verification). Verified organisations will\r\n * appear with a tick in the DAPP\r\n *\r\n * @author victaphu\r\n */\r\ncontract SocialHarmonyRegistry is Ownable, AccessControl {\r\n    // mapping of address to URI of organisation\r\n    mapping(address => string) private _tokenURIs;\r\n\r\n    // list of organisations registered\r\n    address[] public organisations;\r\n\r\n    // mapping of verified organisations\r\n    mapping(address => bool) private _verified;\r\n\r\n    bytes32 public constant VERIFIER_GRANT_ROLE = \"0x02\"; // verify/revoke organisations\r\n\r\n    uint256 public lastUpdated = 0; // latest update of the registry for caching purposes\r\n\r\n    SocialGameToken public socialGameToken; // the token that this registry is connected to\r\n\r\n    constructor() {\r\n        _setupRole(DEFAULT_ADMIN_ROLE, msg.sender);\r\n        _setupRole(VERIFIER_GRANT_ROLE, msg.sender);\r\n    }\r\n\r\n    function tokenURI(address organisation)\r\n        public\r\n        view\r\n        virtual\r\n        returns (string memory)\r\n    {\r\n        require(\r\n            bytes(_tokenURIs[organisation]).length > 0,\r\n            \"Organisation not registered\"\r\n        );\r\n        return _tokenURIs[organisation];\r\n    }\r\n\r\n    function registerURI(string memory uri) public {\r\n        // updating the URI will also flag the item as unverified\r\n        if (bytes(_tokenURIs[msg.sender]).length == 0) {\r\n            organisations.push(msg.sender);\r\n        }\r\n        _tokenURIs[msg.sender] = uri;\r\n        _verified[msg.sender] = false;\r\n        lastUpdated ++;\r\n    }\r\n\r\n    function isVerified(address organisation)\r\n        public\r\n        view\r\n        returns (bool verified_)\r\n    {\r\n        verified_ = _verified[organisation];\r\n    }\r\n\r\n    function verifyOrganisation(address organisation)\r\n        public\r\n        onlyRole(VERIFIER_GRANT_ROLE)\r\n    {\r\n        require(\r\n            bytes(_tokenURIs[organisation]).length > 0,\r\n            \"Organisation not registered\"\r\n        );\r\n        require(\r\n            _verified[organisation] == false,\r\n            \"Organisation already verified\"\r\n        );\r\n        _verified[organisation] = true;\r\n        lastUpdated ++;\r\n    }\r\n\r\n    function unverifyOrganisation(address organisation)\r\n        public\r\n        onlyRole(VERIFIER_GRANT_ROLE)\r\n    {\r\n        require(\r\n            bytes(_tokenURIs[organisation]).length > 0,\r\n            \"Organisation not registered\"\r\n        );\r\n        require(\r\n            _verified[organisation] == true,\r\n            \"Organisation already unverified\"\r\n        );\r\n        _verified[organisation] = false;\r\n        lastUpdated ++;\r\n    }\r\n\r\n    function getOrgsCount() public view returns (uint256 count) {\r\n        count = organisations.length;\r\n    }\r\n\r\n    function getOrgs() public view returns (address[] memory orgs) {\r\n        orgs = organisations;\r\n    }\r\n\r\n    function getURIs(uint256 start, uint256 pageSize)\r\n        public\r\n        view\r\n        returns (address[] memory orgs, string[] memory orgURIs, bool[] memory verified)\r\n    {\r\n        require(start >= 0 && pageSize > 0, \"invalid inputs to getURIs, page size invalid\");\r\n        require(\r\n            (start + pageSize) <= organisations.length,\r\n            \"invalid input to getURIs\"\r\n        );\r\n\r\n        address[] memory orgs_ = new address[](pageSize);\r\n        string[] memory orgURIs_ = new string[](pageSize);\r\n        bool[] memory verified_ = new bool[](pageSize);\r\n        for (\r\n            uint256 i = start;\r\n            i < start + pageSize && i < organisations.length;\r\n            ++i\r\n        ) {\r\n            orgs_[i - start] = organisations[i];\r\n            orgURIs_[i - start] = _tokenURIs[organisations[i]];\r\n            verified_[i - start] = _verified[organisations[i]];\r\n        }\r\n\r\n        orgs = orgs_;\r\n        orgURIs = orgURIs_;\r\n        verified = verified_;\r\n    }\r\n}\r\n",
  "sourcePath": "D:\\job\\NFT\\social-harmony\\truffle\\contracts\\SocialHarmonyRegistry.sol",
  "compiler": {
    "name": "solc",
    "version": "0.8.11+commit.d7f03943.Emscripten.clang"
  },
  "schemaVersion": "3.4.3",
  "updatedAt": "2022-02-14T20:28:14.710Z",
  "devdoc": {
    "author": "victaphu",
    "details": "Contract that is used to register organisations for the social harmony games dapp. Use a URI that points to a JSON object containing the information for each social harmony organisation. Each org will have their own public keys registered in the registry. this can be used to look up the social harmony games and the game token created for that public key. JSON format registering the organisation (note no validation of the JSON is made on the smart contract) { \"organisation\": \"\", \"organisationBanner\":\"\", // url of image \"description\": \"\", \"story\": \"\", \"icon\": \"\", \"heroImages\": [], // URL of images to show \"publicKey\": \"\", \"contactDetails\": { \"email\": \"\", \"site\": \"\", \"twitter\": \"\", \"facebook\": \"\", \"phone\": \"\" } } One public key may only own one organisation. The URI and JSON can be updated as required. For the DAPP,  IPFS is used to store the JSON dynamically.  Note that at this point anyone can add an entry into the registry. Organisations are  verified by the registry owner (to be changed to allow multi-party verification). Verified organisations will appear with a tick in the DAPP",
    "kind": "dev",
    "methods": {
      "getRoleAdmin(bytes32)": {
        "details": "Returns the admin role that controls `role`. See {grantRole} and {revokeRole}. To change a role's admin, use {_setRoleAdmin}."
      },
      "grantRole(bytes32,address)": {
        "details": "Grants `role` to `account`. If `account` had not been already granted `role`, emits a {RoleGranted} event. Requirements: - the caller must have ``role``'s admin role."
      },
      "hasRole(bytes32,address)": {
        "details": "Returns `true` if `account` has been granted `role`."
      },
      "owner()": {
        "details": "Returns the address of the current owner."
      },
      "renounceOwnership()": {
        "details": "Leaves the contract without owner. It will not be possible to call `onlyOwner` functions anymore. Can only be called by the current owner. NOTE: Renouncing ownership will leave the contract without an owner, thereby removing any functionality that is only available to the owner."
      },
      "renounceRole(bytes32,address)": {
        "details": "Revokes `role` from the calling account. Roles are often managed via {grantRole} and {revokeRole}: this function's purpose is to provide a mechanism for accounts to lose their privileges if they are compromised (such as when a trusted device is misplaced). If the calling account had been granted `role`, emits a {RoleRevoked} event. Requirements: - the caller must be `account`."
      },
      "revokeRole(bytes32,address)": {
        "details": "Revokes `role` from `account`. If `account` had been granted `role`, emits a {RoleRevoked} event. Requirements: - the caller must have ``role``'s admin role."
      },
      "supportsInterface(bytes4)": {
        "details": "See {IERC165-supportsInterface}."
      },
      "transferOwnership(address)": {
        "details": "Transfers ownership of the contract to a new account (`newOwner`). Can only be called by the current owner."
      }
    },
    "title": "Social Change Game Registry",
    "version": 1
  },
  "userdoc": {
    "kind": "user",
    "methods": {},
    "notice": "Smart Contract developed for the Harmony One Round 2 Hackathon on Gitcoin",
    "version": 1
  }
}