{
  "contractName": "SocialGameToken",
  "abi": [
    {
      "inputs": [],
      "stateMutability": "nonpayable",
      "type": "constructor"
    },
    {
      "anonymous": false,
      "inputs": [
        {
          "indexed": true,
          "internalType": "address",
          "name": "owner",
          "type": "address"
        },
        {
          "indexed": true,
          "internalType": "address",
          "name": "approved",
          "type": "address"
        },
        {
          "indexed": true,
          "internalType": "uint256",
          "name": "tokenId",
          "type": "uint256"
        }
      ],
      "name": "Approval",
      "type": "event"
    },
    {
      "anonymous": false,
      "inputs": [
        {
          "indexed": true,
          "internalType": "address",
          "name": "owner",
          "type": "address"
        },
        {
          "indexed": true,
          "internalType": "address",
          "name": "operator",
          "type": "address"
        },
        {
          "indexed": false,
          "internalType": "bool",
          "name": "approved",
          "type": "bool"
        }
      ],
      "name": "ApprovalForAll",
      "type": "event"
    },
    {
      "anonymous": false,
      "inputs": [
        {
          "indexed": false,
          "internalType": "address",
          "name": "SocialGame",
          "type": "address"
        },
        {
          "indexed": false,
          "internalType": "uint256",
          "name": "gameId",
          "type": "uint256"
        }
      ],
      "name": "GameCreated",
      "type": "event"
    },
    {
      "anonymous": false,
      "inputs": [
        {
          "indexed": true,
          "internalType": "address",
          "name": "previousOwner",
          "type": "address"
        },
        {
          "indexed": true,
          "internalType": "address",
          "name": "newOwner",
          "type": "address"
        }
      ],
      "name": "OwnershipTransferred",
      "type": "event"
    },
    {
      "anonymous": false,
      "inputs": [
        {
          "indexed": true,
          "internalType": "address",
          "name": "from",
          "type": "address"
        },
        {
          "indexed": true,
          "internalType": "address",
          "name": "to",
          "type": "address"
        },
        {
          "indexed": true,
          "internalType": "uint256",
          "name": "tokenId",
          "type": "uint256"
        }
      ],
      "name": "Transfer",
      "type": "event"
    },
    {
      "inputs": [],
      "name": "DEFAULT_ENTRY_COST",
      "outputs": [
        {
          "internalType": "uint256",
          "name": "",
          "type": "uint256"
        }
      ],
      "stateMutability": "view",
      "type": "function"
    },
    {
      "inputs": [],
      "name": "DEFAULT_PLAYERS",
      "outputs": [
        {
          "internalType": "uint256",
          "name": "",
          "type": "uint256"
        }
      ],
      "stateMutability": "view",
      "type": "function"
    },
    {
      "inputs": [],
      "name": "MAX_ENDORSERS",
      "outputs": [
        {
          "internalType": "uint256",
          "name": "",
          "type": "uint256"
        }
      ],
      "stateMutability": "view",
      "type": "function"
    },
    {
      "inputs": [
        {
          "internalType": "address",
          "name": "to",
          "type": "address"
        },
        {
          "internalType": "uint256",
          "name": "tokenId",
          "type": "uint256"
        }
      ],
      "name": "approve",
      "outputs": [],
      "stateMutability": "nonpayable",
      "type": "function"
    },
    {
      "inputs": [
        {
          "internalType": "address",
          "name": "owner",
          "type": "address"
        }
      ],
      "name": "balanceOf",
      "outputs": [
        {
          "internalType": "uint256",
          "name": "",
          "type": "uint256"
        }
      ],
      "stateMutability": "view",
      "type": "function"
    },
    {
      "inputs": [
        {
          "internalType": "uint256",
          "name": "tokenId",
          "type": "uint256"
        }
      ],
      "name": "getApproved",
      "outputs": [
        {
          "internalType": "address",
          "name": "",
          "type": "address"
        }
      ],
      "stateMutability": "view",
      "type": "function"
    },
    {
      "inputs": [
        {
          "internalType": "address",
          "name": "owner",
          "type": "address"
        },
        {
          "internalType": "address",
          "name": "operator",
          "type": "address"
        }
      ],
      "name": "isApprovedForAll",
      "outputs": [
        {
          "internalType": "bool",
          "name": "",
          "type": "bool"
        }
      ],
      "stateMutability": "view",
      "type": "function"
    },
    {
      "inputs": [],
      "name": "name",
      "outputs": [
        {
          "internalType": "string",
          "name": "",
          "type": "string"
        }
      ],
      "stateMutability": "view",
      "type": "function"
    },
    {
      "inputs": [],
      "name": "owner",
      "outputs": [
        {
          "internalType": "address",
          "name": "",
          "type": "address"
        }
      ],
      "stateMutability": "view",
      "type": "function"
    },
    {
      "inputs": [
        {
          "internalType": "uint256",
          "name": "tokenId",
          "type": "uint256"
        }
      ],
      "name": "ownerOf",
      "outputs": [
        {
          "internalType": "address",
          "name": "",
          "type": "address"
        }
      ],
      "stateMutability": "view",
      "type": "function"
    },
    {
      "inputs": [],
      "name": "renounceOwnership",
      "outputs": [],
      "stateMutability": "nonpayable",
      "type": "function"
    },
    {
      "inputs": [
        {
          "internalType": "address",
          "name": "from",
          "type": "address"
        },
        {
          "internalType": "address",
          "name": "to",
          "type": "address"
        },
        {
          "internalType": "uint256",
          "name": "tokenId",
          "type": "uint256"
        }
      ],
      "name": "safeTransferFrom",
      "outputs": [],
      "stateMutability": "nonpayable",
      "type": "function"
    },
    {
      "inputs": [
        {
          "internalType": "address",
          "name": "from",
          "type": "address"
        },
        {
          "internalType": "address",
          "name": "to",
          "type": "address"
        },
        {
          "internalType": "uint256",
          "name": "tokenId",
          "type": "uint256"
        },
        {
          "internalType": "bytes",
          "name": "_data",
          "type": "bytes"
        }
      ],
      "name": "safeTransferFrom",
      "outputs": [],
      "stateMutability": "nonpayable",
      "type": "function"
    },
    {
      "inputs": [
        {
          "internalType": "address",
          "name": "operator",
          "type": "address"
        },
        {
          "internalType": "bool",
          "name": "approved",
          "type": "bool"
        }
      ],
      "name": "setApprovalForAll",
      "outputs": [],
      "stateMutability": "nonpayable",
      "type": "function"
    },
    {
      "inputs": [
        {
          "internalType": "bytes4",
          "name": "interfaceId",
          "type": "bytes4"
        }
      ],
      "name": "supportsInterface",
      "outputs": [
        {
          "internalType": "bool",
          "name": "",
          "type": "bool"
        }
      ],
      "stateMutability": "view",
      "type": "function"
    },
    {
      "inputs": [],
      "name": "symbol",
      "outputs": [
        {
          "internalType": "string",
          "name": "",
          "type": "string"
        }
      ],
      "stateMutability": "view",
      "type": "function"
    },
    {
      "inputs": [
        {
          "internalType": "uint256",
          "name": "tokenId",
          "type": "uint256"
        }
      ],
      "name": "tokenURI",
      "outputs": [
        {
          "internalType": "string",
          "name": "",
          "type": "string"
        }
      ],
      "stateMutability": "view",
      "type": "function"
    },
    {
      "inputs": [
        {
          "internalType": "address",
          "name": "from",
          "type": "address"
        },
        {
          "internalType": "address",
          "name": "to",
          "type": "address"
        },
        {
          "internalType": "uint256",
          "name": "tokenId",
          "type": "uint256"
        }
      ],
      "name": "transferFrom",
      "outputs": [],
      "stateMutability": "nonpayable",
      "type": "function"
    },
    {
      "inputs": [
        {
          "internalType": "address",
          "name": "newOwner",
          "type": "address"
        }
      ],
      "name": "transferOwnership",
      "outputs": [],
      "stateMutability": "nonpayable",
      "type": "function"
    },
    {
      "inputs": [
        {
          "internalType": "address",
          "name": "operator",
          "type": "address"
        },
        {
          "internalType": "address payable",
          "name": "beneficiary_",
          "type": "address"
        },
        {
          "internalType": "uint256",
          "name": "participants_",
          "type": "uint256"
        },
        {
          "internalType": "uint256",
          "name": "pricePerRound_",
          "type": "uint256"
        },
        {
          "internalType": "uint256",
          "name": "totalEndorsers",
          "type": "uint256"
        }
      ],
      "name": "createSocialGame",
      "outputs": [
        {
          "internalType": "uint256",
          "name": "gameId_",
          "type": "uint256"
        }
      ],
      "stateMutability": "nonpayable",
      "type": "function"
    },
    {
      "inputs": [
        {
          "internalType": "address",
          "name": "operator",
          "type": "address"
        },
        {
          "internalType": "address payable",
          "name": "beneficiary_",
          "type": "address"
        },
        {
          "internalType": "uint256",
          "name": "participants_",
          "type": "uint256"
        },
        {
          "internalType": "uint256",
          "name": "pricePerRound_",
          "type": "uint256"
        }
      ],
      "name": "createSocialGame",
      "outputs": [
        {
          "internalType": "uint256",
          "name": "gameId_",
          "type": "uint256"
        }
      ],
      "stateMutability": "nonpayable",
      "type": "function"
    },
    {
      "inputs": [],
      "name": "getGameAddresses",
      "outputs": [
        {
          "internalType": "address[]",
          "name": "games",
          "type": "address[]"
        }
      ],
      "stateMutability": "view",
      "type": "function"
    },
    {
      "inputs": [
        {
          "internalType": "address",
          "name": "player",
          "type": "address"
        },
        {
          "internalType": "string",
          "name": "tokenURI_",
          "type": "string"
        },
        {
          "internalType": "uint256",
          "name": "gameId",
          "type": "uint256"
        }
      ],
      "name": "enterGame",
      "outputs": [
        {
          "internalType": "uint256",
          "name": "ticket_",
          "type": "uint256"
        }
      ],
      "stateMutability": "nonpayable",
      "type": "function"
    },
    {
      "inputs": [],
      "name": "gameCompleted",
      "outputs": [],
      "stateMutability": "nonpayable",
      "type": "function"
    },
    {
      "inputs": [],
      "name": "getGamesPlayed",
      "outputs": [
        {
          "internalType": "uint256",
          "name": "gamesPlayed_",
          "type": "uint256"
        }
      ],
      "stateMutability": "view",
      "type": "function"
    },
    {
      "inputs": [],
      "name": "getGamesReporting",
      "outputs": [
        {
          "internalType": "address",
          "name": "reporting",
          "type": "address"
        }
      ],
      "stateMutability": "view",
      "type": "function"
    },
    {
      "inputs": [
        {
          "internalType": "address",
          "name": "operator",
          "type": "address"
        },
        {
          "internalType": "address",
          "name": "from",
          "type": "address"
        },
        {
          "internalType": "uint256",
          "name": "tokenId",
          "type": "uint256"
        },
        {
          "internalType": "bytes",
          "name": "data",
          "type": "bytes"
        }
      ],
      "name": "onERC721Received",
      "outputs": [
        {
          "internalType": "bytes4",
          "name": "",
          "type": "bytes4"
        }
      ],
      "stateMutability": "nonpayable",
      "type": "function"
    }
  ],
  "bytecode": "0x60806040523480156200001157600080fd5b506040518060400160405280601281526020017f536f6369616c4861726d6f6e79546f6b656e00000000000000000000000000008152506040518060400160405280600481526020017f53484d54000000000000000000000000000000000000000000000000000000008152508160009080519060200190620000969291906200021e565b508060019080519060200190620000af9291906200021e565b5050506000620000c46200021660201b60201c565b905080600760006101000a81548173ffffffffffffffffffffffffffffffffffffffff021916908373ffffffffffffffffffffffffffffffffffffffff1602179055508073ffffffffffffffffffffffffffffffffffffffff16600073ffffffffffffffffffffffffffffffffffffffff167f8be0079c531659141344cd1fd0a4f28419497f9722a3daafe3b4186f6b6457e060405160405180910390a3506040516200017190620002af565b604051809103906000f0801580156200018e573d6000803e3d6000fd5b50600f60006101000a81548173ffffffffffffffffffffffffffffffffffffffff021916908373ffffffffffffffffffffffffffffffffffffffff16021790555033601060006101000a81548173ffffffffffffffffffffffffffffffffffffffff021916908373ffffffffffffffffffffffffffffffffffffffff16021790555062000341565b600033905090565b8280546200022c906200030b565b90600052602060002090601f0160209004810192826200025057600085556200029c565b82601f106200026b57805160ff19168380011785556200029c565b828001600101855582156200029c579182015b828111156200029b5782518255916020019190600101906200027e565b5b509050620002ab9190620002bd565b5090565b612550806200bb5e83390190565b5b80821115620002d8576000816000905550600101620002be565b5090565b7f4e487b7100000000000000000000000000000000000000000000000000000000600052602260045260246000fd5b600060028204905060018216806200032457607f821691505b602082108114156200033b576200033a620002dc565b5b50919050565b61b80d80620003516000396000f3fe60806040523480156200001157600080fd5b5060043610620001665760003560e01c806301ffc9a7146200016b57806306fdde0314620001a1578063081812fc14620001c3578063095ea7b314620001f9578063150b7a02146200021957806323b872dd146200024f5780633fcb41f6146200026f57806342842e0e14620002a55780634d699f0014620002c55780635edf36f814620002d15780636352211e146200030757806368f39d8b146200033d57806370a08231146200035f578063715018a614620003955780638a6891da14620003a15780638da5cb5b14620003c357806393a5e09514620003e557806395d89b411462000407578063a22cb4651462000429578063b88d4fde1462000449578063c87b56dd1462000469578063ca06a3f8146200049f578063e5d5f4e914620004c1578063e66a1ab114620004e3578063e985e9c51462000519578063eccfd1ff146200054f578063f2fde38b1462000571575b600080fd5b62000189600480360381019062000183919062002d68565b62000591565b60405162000198919062002db7565b60405180910390f35b620001ab62000677565b604051620001ba919062002e78565b60405180910390f35b620001e16004803603810190620001db919062002ed7565b62000711565b604051620001f0919062002f4e565b60405180910390f35b62000217600480360381019062000211919062002f9c565b6200079b565b005b62000237600480360381019062000231919062003051565b620008c4565b604051620002469190620030f8565b60405180910390f35b6200026d600480360381019062000267919062003115565b62000b04565b005b6200028d6004803603810190620002879190620031b6565b62000b6d565b6040516200029c91906200324f565b60405180910390f35b620002c36004803603810190620002bd919062003115565b62000f29565b005b620002cf62000f4b565b005b620002ef6004803603810190620002e991906200326c565b6200137c565b604051620002fe91906200324f565b60405180910390f35b6200032560048036038101906200031f919062002ed7565b62001398565b60405162000334919062002f4e565b60405180910390f35b620003476200144d565b6040516200035691906200324f565b60405180910390f35b6200037d6004803603810190620003779190620032de565b62001452565b6040516200038c91906200324f565b60405180910390f35b6200039f6200150d565b005b620003ab62001651565b604051620003ba919062002f4e565b60405180910390f35b620003cd6200167b565b604051620003dc919062002f4e565b60405180910390f35b620003ef620016a5565b604051620003fe9190620033de565b60405180910390f35b6200041162001735565b60405162000420919062002e78565b60405180910390f35b62000447600480360381019062000441919062003433565b620017cf565b005b620004676004803603810190620004619190620035c6565b6200195b565b005b62000487600480360381019062000481919062002ed7565b620019c6565b60405162000496919062002e78565b60405180910390f35b620004a962001b2f565b604051620004b891906200324f565b60405180910390f35b620004cb62001b42565b604051620004da91906200324f565b60405180910390f35b620005016004803603810190620004fb91906200370b565b62001b47565b6040516200051091906200324f565b60405180910390f35b62000537600480360381019062000531919062003786565b62001ca2565b60405162000546919062002db7565b60405180910390f35b6200055962001d36565b6040516200056891906200324f565b60405180910390f35b6200058f6004803603810190620005899190620032de565b62001d42565b005b60007f80ac58cd000000000000000000000000000000000000000000000000000000007bffffffffffffffffffffffffffffffffffffffffffffffffffffffff1916827bffffffffffffffffffffffffffffffffffffffffffffffffffffffff191614806200065d57507f5b5e139f000000000000000000000000000000000000000000000000000000007bffffffffffffffffffffffffffffffffffffffffffffffffffffffff1916827bffffffffffffffffffffffffffffffffffffffffffffffffffffffff1916145b806200067057506200066f8262001ef8565b5b9050919050565b6060600080546200068890620037fc565b80601f0160208091040260200160405190810160405280929190818152602001828054620006b690620037fc565b8015620007075780601f10620006db5761010080835404028352916020019162000707565b820191906000526020600020905b815481529060010190602001808311620006e957829003601f168201915b5050505050905090565b60006200071e8262001f62565b62000760576040517f08c379a00000000000000000000000000000000000000000000000000000000081526004016200075790620038a8565b60405180910390fd5b6004600083815260200190815260200160002060009054906101000a900473ffffffffffffffffffffffffffffffffffffffff169050919050565b6000620007a88262001398565b90508073ffffffffffffffffffffffffffffffffffffffff168373ffffffffffffffffffffffffffffffffffffffff1614156200081c576040517f08c379a0000000000000000000000000000000000000000000000000000000008152600401620008139062003940565b60405180910390fd5b8073ffffffffffffffffffffffffffffffffffffffff166200083d62001fce565b73ffffffffffffffffffffffffffffffffffffffff16148062000871575062000870816200086a62001fce565b62001ca2565b5b620008b3576040517f08c379a0000000000000000000000000000000000000000000000000000000008152600401620008aa90620039d8565b60405180910390fd5b620008bf838362001fd6565b505050565b600080606490506000670de0b6b3a764000090506000601490506060868690501415620009e5576200093c86868080601f016020809104026020016040519081016040528093929190818152602001838380828437600081840152601f19601f82011690508083019250505050505050600062002091565b92506200098f86868080601f016020809104026020016040519081016040528093929190818152602001838380828437600081840152601f19601f82011690508083019250505050505050602062002091565b9150620009e286868080601f016020809104026020016040519081016040528093929190818152602001838380828437600081840152601f19601f82011690508083019250505050505050604062002091565b90505b6000620009f68a8a86868662000b6d565b905060405180606001604052808a73ffffffffffffffffffffffffffffffffffffffff1681526020018981526020013373ffffffffffffffffffffffffffffffffffffffff16815250600e600083815260200190815260200160002060008201518160000160006101000a81548173ffffffffffffffffffffffffffffffffffffffff021916908373ffffffffffffffffffffffffffffffffffffffff1602179055506020820151816001015560408201518160020160006101000a81548173ffffffffffffffffffffffffffffffffffffffff021916908373ffffffffffffffffffffffffffffffffffffffff16021790555090505063150b7a0260e01b94505050505095945050505050565b62000b1962000b1262001fce565b82620020fd565b62000b5b576040517f08c379a000000000000000000000000000000000000000000000000000000000815260040162000b529062003a70565b60405180910390fd5b62000b68838383620021e8565b505050565b60008062000b7c600962002454565b141562000c1b57601060009054906101000a900473ffffffffffffffffffffffffffffffffffffffff1673ffffffffffffffffffffffffffffffffffffffff168673ffffffffffffffffffffffffffffffffffffffff161462000c16576040517f08c379a000000000000000000000000000000000000000000000000000000000815260040162000c0d9062003ae2565b60405180910390fd5b600091505b62000c27600962002462565b62000c33600962002454565b90506000858585848630600f60009054906101000a900473ffffffffffffffffffffffffffffffffffffffff1660405162000c6e9062002c39565b62000c80979695949392919062003b15565b604051809103906000f08015801562000c9d573d6000803e3d6000fd5b5090508073ffffffffffffffffffffffffffffffffffffffff1663f2fde38b886040518263ffffffff1660e01b815260040162000cdb919062002f4e565b600060405180830381600087803b15801562000cf657600080fd5b505af115801562000d0b573d6000803e3d6000fd5b5050505081600a60008373ffffffffffffffffffffffffffffffffffffffff1673ffffffffffffffffffffffffffffffffffffffff168152602001908152602001600020819055506001600c60008373ffffffffffffffffffffffffffffffffffffffff1663d7c81b556040518163ffffffff1660e01b8152600401602060405180830381865afa15801562000da5573d6000803e3d6000fd5b505050506040513d601f19601f8201168201806040525081019062000dcb919062003ba9565b815260200190815260200160002060006101000a81548160ff021916908315150217905550600f60009054906101000a900473ffffffffffffffffffffffffffffffffffffffff1673ffffffffffffffffffffffffffffffffffffffff16630ae5e739826040518263ffffffff1660e01b815260040162000e4d919062002f4e565b600060405180830381600087803b15801562000e6857600080fd5b505af115801562000e7d573d6000803e3d6000fd5b50505050600b819080600181540180825580915050600190039060005260206000200160009091909190916101000a81548173ffffffffffffffffffffffffffffffffffffffff021916908373ffffffffffffffffffffffffffffffffffffffff1602179055507f306841c3fce8498c2d9b7194b8da4c04d03847394e237b625ce6d029b107f077818360405162000f1792919062003bdb565b60405180910390a15095945050505050565b62000f46838383604051806020016040528060008152506200195b565b505050565b6000600a60003373ffffffffffffffffffffffffffffffffffffffff1673ffffffffffffffffffffffffffffffffffffffff1681526020019081526020016000205490506000811162000fd5576040517f08c379a000000000000000000000000000000000000000000000000000000000815260040162000fcc9062003c58565b60405180910390fd5b60011515600c600083815260200190815260200160002060009054906101000a900460ff161515146200103f576040517f08c379a0000000000000000000000000000000000000000000000000000000008152600401620010369062003cca565b60405180910390fd5b6000339050600f60009054906101000a900473ffffffffffffffffffffffffffffffffffffffff1673ffffffffffffffffffffffffffffffffffffffff166385e68531336040518263ffffffff1660e01b8152600401620010a1919062002f4e565b600060405180830381600087803b158015620010bc57600080fd5b505af1158015620010d1573d6000803e3d6000fd5b505050506000600c600084815260200190815260200160002060006101000a81548160ff0219169083151502179055506000600e600084815260200190815260200160002060010154111562001378576000600e60008481526020019081526020016000206040518060600160405290816000820160009054906101000a900473ffffffffffffffffffffffffffffffffffffffff1673ffffffffffffffffffffffffffffffffffffffff1673ffffffffffffffffffffffffffffffffffffffff168152602001600182015481526020016002820160009054906101000a900473ffffffffffffffffffffffffffffffffffffffff1673ffffffffffffffffffffffffffffffffffffffff1673ffffffffffffffffffffffffffffffffffffffff168152505090506000816040015190508073ffffffffffffffffffffffffffffffffffffffff166342842e0e30846000015185602001516040518463ffffffff1660e01b8152600401620012499392919062003cec565b600060405180830381600087803b1580156200126457600080fd5b505af115801562001279573d6000803e3d6000fd5b505050506040518060600160405280600073ffffffffffffffffffffffffffffffffffffffff16815260200160008152602001600073ffffffffffffffffffffffffffffffffffffffff16815250600e600086815260200190815260200160002060008201518160000160006101000a81548173ffffffffffffffffffffffffffffffffffffffff021916908373ffffffffffffffffffffffffffffffffffffffff1602179055506020820151816001015560408201518160020160006101000a81548173ffffffffffffffffffffffffffffffffffffffff021916908373ffffffffffffffffffffffffffffffffffffffff16021790555090505050505b5050565b60006200138e85858585601462000b6d565b9050949350505050565b6000806002600084815260200190815260200160002060009054906101000a900473ffffffffffffffffffffffffffffffffffffffff169050600073ffffffffffffffffffffffffffffffffffffffff168173ffffffffffffffffffffffffffffffffffffffff16141562001444576040517f08c379a00000000000000000000000000000000000000000000000000000000081526004016200143b9062003d9f565b60405180910390fd5b80915050919050565b601481565b60008073ffffffffffffffffffffffffffffffffffffffff168273ffffffffffffffffffffffffffffffffffffffff161415620014c6576040517f08c379a0000000000000000000000000000000000000000000000000000000008152600401620014bd9062003e37565b60405180910390fd5b600360008373ffffffffffffffffffffffffffffffffffffffff1673ffffffffffffffffffffffffffffffffffffffff168152602001908152602001600020549050919050565b6200151762001fce565b73ffffffffffffffffffffffffffffffffffffffff16620015376200167b565b73ffffffffffffffffffffffffffffffffffffffff161462001590576040517f08c379a0000000000000000000000000000000000000000000000000000000008152600401620015879062003ea9565b60405180910390fd5b600073ffffffffffffffffffffffffffffffffffffffff16600760009054906101000a900473ffffffffffffffffffffffffffffffffffffffff1673ffffffffffffffffffffffffffffffffffffffff167f8be0079c531659141344cd1fd0a4f28419497f9722a3daafe3b4186f6b6457e060405160405180910390a36000600760006101000a81548173ffffffffffffffffffffffffffffffffffffffff021916908373ffffffffffffffffffffffffffffffffffffffff160217905550565b6000600f60009054906101000a900473ffffffffffffffffffffffffffffffffffffffff16905090565b6000600760009054906101000a900473ffffffffffffffffffffffffffffffffffffffff16905090565b6060600b8054806020026020016040519081016040528092919081815260200182805480156200172b57602002820191906000526020600020905b8160009054906101000a900473ffffffffffffffffffffffffffffffffffffffff1673ffffffffffffffffffffffffffffffffffffffff1681526020019060010190808311620016e0575b5050505050905090565b6060600180546200174690620037fc565b80601f01602080910402602001604051908101604052809291908181526020018280546200177490620037fc565b8015620017c55780601f106200179957610100808354040283529160200191620017c5565b820191906000526020600020905b815481529060010190602001808311620017a757829003601f168201915b5050505050905090565b620017d962001fce565b73ffffffffffffffffffffffffffffffffffffffff168273ffffffffffffffffffffffffffffffffffffffff1614156200184a576040517f08c379a0000000000000000000000000000000000000000000000000000000008152600401620018419062003f1b565b60405180910390fd5b80600560006200185962001fce565b73ffffffffffffffffffffffffffffffffffffffff1673ffffffffffffffffffffffffffffffffffffffff16815260200190815260200160002060008473ffffffffffffffffffffffffffffffffffffffff1673ffffffffffffffffffffffffffffffffffffffff16815260200190815260200160002060006101000a81548160ff0219169083151502179055508173ffffffffffffffffffffffffffffffffffffffff166200190862001fce565b73ffffffffffffffffffffffffffffffffffffffff167f17307eab39ab6107e8899845ad3d59bd9653f200f220920489ca2b5937696c31836040516200194f919062002db7565b60405180910390a35050565b620019706200196962001fce565b83620020fd565b620019b2576040517f08c379a0000000000000000000000000000000000000000000000000000000008152600401620019a99062003a70565b60405180910390fd5b620019c08484848462002478565b50505050565b6060620019d38262001f62565b62001a15576040517f08c379a000000000000000000000000000000000000000000000000000000000815260040162001a0c9062003fb3565b60405180910390fd5b600060066000848152602001908152602001600020805462001a3790620037fc565b80601f016020809104026020016040519081016040528092919081815260200182805462001a6590620037fc565b801562001ab65780601f1062001a8a5761010080835404028352916020019162001ab6565b820191906000526020600020905b81548152906001019060200180831162001a9857829003601f168201915b50505050509050600062001ac9620024db565b905060008151141562001ae157819250505062001b2a565b60008251111562001b1a57808260405160200162001b0192919062004017565b6040516020818303038152906040529250505062001b2a565b62001b2584620024f2565b925050505b919050565b600062001b3d600962002454565b905090565b606481565b600080600a60003373ffffffffffffffffffffffffffffffffffffffff1673ffffffffffffffffffffffffffffffffffffffff168152602001908152602001600020541162001bcd576040517f08c379a000000000000000000000000000000000000000000000000000000000815260040162001bc4906200408f565b60405180910390fd5b81600a60003373ffffffffffffffffffffffffffffffffffffffff1673ffffffffffffffffffffffffffffffffffffffff168152602001908152602001600020541462001c51576040517f08c379a000000000000000000000000000000000000000000000000000000000815260040162001c489062004101565b60405180910390fd5b62001c5d600862002462565b62001c69600862002454565b905062001c778482620025a6565b62001c83818462002780565b81600d6000838152602001908152602001600020819055509392505050565b6000600560008473ffffffffffffffffffffffffffffffffffffffff1673ffffffffffffffffffffffffffffffffffffffff16815260200190815260200160002060008373ffffffffffffffffffffffffffffffffffffffff1673ffffffffffffffffffffffffffffffffffffffff16815260200190815260200160002060009054906101000a900460ff16905092915050565b670de0b6b3a764000081565b62001d4c62001fce565b73ffffffffffffffffffffffffffffffffffffffff1662001d6c6200167b565b73ffffffffffffffffffffffffffffffffffffffff161462001dc5576040517f08c379a000000000000000000000000000000000000000000000000000000000815260040162001dbc9062003ea9565b60405180910390fd5b600073ffffffffffffffffffffffffffffffffffffffff168173ffffffffffffffffffffffffffffffffffffffff16141562001e38576040517f08c379a000000000000000000000000000000000000000000000000000000000815260040162001e2f9062004199565b60405180910390fd5b8073ffffffffffffffffffffffffffffffffffffffff16600760009054906101000a900473ffffffffffffffffffffffffffffffffffffffff1673ffffffffffffffffffffffffffffffffffffffff167f8be0079c531659141344cd1fd0a4f28419497f9722a3daafe3b4186f6b6457e060405160405180910390a380600760006101000a81548173ffffffffffffffffffffffffffffffffffffffff021916908373ffffffffffffffffffffffffffffffffffffffff16021790555050565b60007f01ffc9a7000000000000000000000000000000000000000000000000000000007bffffffffffffffffffffffffffffffffffffffffffffffffffffffff1916827bffffffffffffffffffffffffffffffffffffffffffffffffffffffff1916149050919050565b60008073ffffffffffffffffffffffffffffffffffffffff166002600084815260200190815260200160002060009054906101000a900473ffffffffffffffffffffffffffffffffffffffff1673ffffffffffffffffffffffffffffffffffffffff1614159050919050565b600033905090565b816004600083815260200190815260200160002060006101000a81548173ffffffffffffffffffffffffffffffffffffffff021916908373ffffffffffffffffffffffffffffffffffffffff160217905550808273ffffffffffffffffffffffffffffffffffffffff166200204b8362001398565b73ffffffffffffffffffffffffffffffffffffffff167f8c5be1e5ebec7d5bd14f71427d1e84f3dd0314c0f7b2291e5b200ac8c7c3b92560405160405180910390a45050565b6000602082620020a29190620041ea565b83511015620020e8576040517f08c379a0000000000000000000000000000000000000000000000000000000008152600401620020df9062004297565b60405180910390fd5b60008260200184015190508091505092915050565b60006200210a8262001f62565b6200214c576040517f08c379a000000000000000000000000000000000000000000000000000000000815260040162002143906200432f565b60405180910390fd5b6000620021598362001398565b90508073ffffffffffffffffffffffffffffffffffffffff168473ffffffffffffffffffffffffffffffffffffffff161480620021cb57508373ffffffffffffffffffffffffffffffffffffffff16620021b38462000711565b73ffffffffffffffffffffffffffffffffffffffff16145b80620021df5750620021de818562001ca2565b5b91505092915050565b8273ffffffffffffffffffffffffffffffffffffffff166200220a8262001398565b73ffffffffffffffffffffffffffffffffffffffff161462002263576040517f08c379a00000000000000000000000000000000000000000000000000000000081526004016200225a90620043c7565b60405180910390fd5b600073ffffffffffffffffffffffffffffffffffffffff168273ffffffffffffffffffffffffffffffffffffffff161415620022d6576040517f08c379a0000000000000000000000000000000000000000000000000000000008152600401620022cd906200445f565b60405180910390fd5b620022e3838383620027fb565b620022f060008262001fd6565b6001600360008573ffffffffffffffffffffffffffffffffffffffff1673ffffffffffffffffffffffffffffffffffffffff168152602001908152602001600020600082825462002342919062004481565b925050819055506001600360008473ffffffffffffffffffffffffffffffffffffffff1673ffffffffffffffffffffffffffffffffffffffff16815260200190815260200160002060008282546200239b9190620041ea565b92505081905550816002600083815260200190815260200160002060006101000a81548173ffffffffffffffffffffffffffffffffffffffff021916908373ffffffffffffffffffffffffffffffffffffffff160217905550808273ffffffffffffffffffffffffffffffffffffffff168473ffffffffffffffffffffffffffffffffffffffff167fddf252ad1be2c89b69c2b068fc378daa952ba7f163c4a11628f55a4df523b3ef60405160405180910390a4505050565b600081600001549050919050565b6001816000016000828254019250508190555050565b62002485848484620021e8565b620024938484848462002913565b620024d5576040517f08c379a0000000000000000000000000000000000000000000000000000000008152600401620024cc9062004532565b60405180910390fd5b50505050565b606060405180602001604052806000815250905090565b6060620024ff8262001f62565b62002541576040517f08c379a00000000000000000000000000000000000000000000000000000000081526004016200253890620045ca565b60405180910390fd5b60006200254d620024db565b905060008151116200256f57604051806020016040528060008152506200259e565b806200257b8462002aac565b6040516020016200258e92919062004017565b6040516020818303038152906040525b915050919050565b600073ffffffffffffffffffffffffffffffffffffffff168273ffffffffffffffffffffffffffffffffffffffff16141562002619576040517f08c379a000000000000000000000000000000000000000000000000000000000815260040162002610906200463c565b60405180910390fd5b620026248162001f62565b1562002667576040517f08c379a00000000000000000000000000000000000000000000000000000000081526004016200265e90620046ae565b60405180910390fd5b6200267560008383620027fb565b6001600360008473ffffffffffffffffffffffffffffffffffffffff1673ffffffffffffffffffffffffffffffffffffffff1681526020019081526020016000206000828254620026c79190620041ea565b92505081905550816002600083815260200190815260200160002060006101000a81548173ffffffffffffffffffffffffffffffffffffffff021916908373ffffffffffffffffffffffffffffffffffffffff160217905550808273ffffffffffffffffffffffffffffffffffffffff16600073ffffffffffffffffffffffffffffffffffffffff167fddf252ad1be2c89b69c2b068fc378daa952ba7f163c4a11628f55a4df523b3ef60405160405180910390a45050565b6200278b8262001f62565b620027cd576040517f08c379a0000000000000000000000000000000000000000000000000000000008152600401620027c49062004746565b60405180910390fd5b80600660008481526020019081526020016000209080519060200190620027f692919062002c47565b505050565b600073ffffffffffffffffffffffffffffffffffffffff168373ffffffffffffffffffffffffffffffffffffffff16141562002837576200290e565b6000600d6000838152602001908152602001600020541162002890576040517f08c379a00000000000000000000000000000000000000000000000000000000081526004016200288790620047b8565b60405180910390fd5b60001515600c6000600d600085815260200190815260200160002054815260200190815260200160002060009054906101000a900460ff161515146200290d576040517f08c379a000000000000000000000000000000000000000000000000000000000815260040162002904906200482a565b60405180910390fd5b5b505050565b6000620029368473ffffffffffffffffffffffffffffffffffffffff1662002c26565b1562002a9f578373ffffffffffffffffffffffffffffffffffffffff1663150b7a026200296262001fce565b8786866040518563ffffffff1660e01b8152600401620029869493929190620048a9565b6020604051808303816000875af1925050508015620029c557506040513d601f19601f82011682018060405250810190620029c2919062004914565b60015b62002a4e573d8060008114620029f8576040519150601f19603f3d011682016040523d82523d6000602084013e620029fd565b606091505b5060008151141562002a46576040517f08c379a000000000000000000000000000000000000000000000000000000000815260040162002a3d9062004532565b60405180910390fd5b805181602001fd5b63150b7a0260e01b7bffffffffffffffffffffffffffffffffffffffffffffffffffffffff1916817bffffffffffffffffffffffffffffffffffffffffffffffffffffffff19161491505062002aa4565b600190505b949350505050565b6060600082141562002af6576040518060400160405280600181526020017f3000000000000000000000000000000000000000000000000000000000000000815250905062002c21565b600082905060005b6000821462002b2e57808062002b149062004946565b915050600a8262002b269190620049c3565b915062002afe565b60008167ffffffffffffffff81111562002b4d5762002b4c6200347f565b5b6040519080825280601f01601f19166020018201604052801562002b805781602001600182028036833780820191505090505b5090505b6000851462002c1a5760018262002b9c919062004481565b9150600a8562002bad9190620049fb565b603062002bbb9190620041ea565b60f81b81838151811062002bd45762002bd362004a33565b5b60200101907effffffffffffffffffffffffffffffffffffffffffffffffffffffffffffff1916908160001a905350600a8562002c129190620049c3565b945062002b84565b8093505050505b919050565b600080823b905060008111915050919050565b616d758062004a6383390190565b82805462002c5590620037fc565b90600052602060002090601f01602090048101928262002c79576000855562002cc5565b82601f1062002c9457805160ff191683800117855562002cc5565b8280016001018555821562002cc5579182015b8281111562002cc457825182559160200191906001019062002ca7565b5b50905062002cd4919062002cd8565b5090565b5b8082111562002cf357600081600090555060010162002cd9565b5090565b6000604051905090565b600080fd5b600080fd5b60007fffffffff0000000000000000000000000000000000000000000000000000000082169050919050565b62002d428162002d0b565b811462002d4e57600080fd5b50565b60008135905062002d628162002d37565b92915050565b60006020828403121562002d815762002d8062002d01565b5b600062002d918482850162002d51565b91505092915050565b60008115159050919050565b62002db18162002d9a565b82525050565b600060208201905062002dce600083018462002da6565b92915050565b600081519050919050565b600082825260208201905092915050565b60005b8381101562002e1057808201518184015260208101905062002df3565b8381111562002e20576000848401525b50505050565b6000601f19601f8301169050919050565b600062002e448262002dd4565b62002e50818562002ddf565b935062002e6281856020860162002df0565b62002e6d8162002e26565b840191505092915050565b6000602082019050818103600083015262002e94818462002e37565b905092915050565b6000819050919050565b62002eb18162002e9c565b811462002ebd57600080fd5b50565b60008135905062002ed18162002ea6565b92915050565b60006020828403121562002ef05762002eef62002d01565b5b600062002f008482850162002ec0565b91505092915050565b600073ffffffffffffffffffffffffffffffffffffffff82169050919050565b600062002f368262002f09565b9050919050565b62002f488162002f29565b82525050565b600060208201905062002f65600083018462002f3d565b92915050565b62002f768162002f29565b811462002f8257600080fd5b50565b60008135905062002f968162002f6b565b92915050565b6000806040838503121562002fb65762002fb562002d01565b5b600062002fc68582860162002f85565b925050602062002fd98582860162002ec0565b9150509250929050565b600080fd5b600080fd5b600080fd5b60008083601f8401126200300b576200300a62002fe3565b5b8235905067ffffffffffffffff8111156200302b576200302a62002fe8565b5b6020830191508360018202830111156200304a576200304962002fed565b5b9250929050565b60008060008060006080868803121562003070576200306f62002d01565b5b6000620030808882890162002f85565b9550506020620030938882890162002f85565b9450506040620030a68882890162002ec0565b935050606086013567ffffffffffffffff811115620030ca57620030c962002d06565b5b620030d88882890162002ff2565b92509250509295509295909350565b620030f28162002d0b565b82525050565b60006020820190506200310f6000830184620030e7565b92915050565b60008060006060848603121562003131576200313062002d01565b5b6000620031418682870162002f85565b9350506020620031548682870162002f85565b9250506040620031678682870162002ec0565b9150509250925092565b60006200317e8262002f09565b9050919050565b620031908162003171565b81146200319c57600080fd5b50565b600081359050620031b08162003185565b92915050565b600080600080600060a08688031215620031d557620031d462002d01565b5b6000620031e58882890162002f85565b9550506020620031f8888289016200319f565b94505060406200320b8882890162002ec0565b93505060606200321e8882890162002ec0565b9250506080620032318882890162002ec0565b9150509295509295909350565b620032498162002e9c565b82525050565b60006020820190506200326660008301846200323e565b92915050565b6000806000806080858703121562003289576200328862002d01565b5b6000620032998782880162002f85565b9450506020620032ac878288016200319f565b9350506040620032bf8782880162002ec0565b9250506060620032d28782880162002ec0565b91505092959194509250565b600060208284031215620032f757620032f662002d01565b5b6000620033078482850162002f85565b91505092915050565b600081519050919050565b600082825260208201905092915050565b6000819050602082019050919050565b620033478162002f29565b82525050565b60006200335b83836200333c565b60208301905092915050565b6000602082019050919050565b6000620033818262003310565b6200338d81856200331b565b93506200339a836200332c565b8060005b83811015620033d1578151620033b588826200334d565b9750620033c28362003367565b9250506001810190506200339e565b5085935050505092915050565b60006020820190508181036000830152620033fa818462003374565b905092915050565b6200340d8162002d9a565b81146200341957600080fd5b50565b6000813590506200342d8162003402565b92915050565b600080604083850312156200344d576200344c62002d01565b5b60006200345d8582860162002f85565b925050602062003470858286016200341c565b9150509250929050565b600080fd5b7f4e487b7100000000000000000000000000000000000000000000000000000000600052604160045260246000fd5b620034b98262002e26565b810181811067ffffffffffffffff82111715620034db57620034da6200347f565b5b80604052505050565b6000620034f062002cf7565b9050620034fe8282620034ae565b919050565b600067ffffffffffffffff8211156200352157620035206200347f565b5b6200352c8262002e26565b9050602081019050919050565b82818337600083830152505050565b60006200355f620035598462003503565b620034e4565b9050828152602081018484840111156200357e576200357d6200347a565b5b6200358b84828562003539565b509392505050565b600082601f830112620035ab57620035aa62002fe3565b5b8135620035bd84826020860162003548565b91505092915050565b60008060008060808587031215620035e357620035e262002d01565b5b6000620035f38782880162002f85565b9450506020620036068782880162002f85565b9350506040620036198782880162002ec0565b925050606085013567ffffffffffffffff8111156200363d576200363c62002d06565b5b6200364b8782880162003593565b91505092959194509250565b600067ffffffffffffffff8211156200367557620036746200347f565b5b620036808262002e26565b9050602081019050919050565b6000620036a46200369e8462003657565b620034e4565b905082815260208101848484011115620036c357620036c26200347a565b5b620036d084828562003539565b509392505050565b600082601f830112620036f057620036ef62002fe3565b5b8135620037028482602086016200368d565b91505092915050565b60008060006060848603121562003727576200372662002d01565b5b6000620037378682870162002f85565b935050602084013567ffffffffffffffff8111156200375b576200375a62002d06565b5b6200376986828701620036d8565b92505060406200377c8682870162002ec0565b9150509250925092565b60008060408385031215620037a0576200379f62002d01565b5b6000620037b08582860162002f85565b9250506020620037c38582860162002f85565b9150509250929050565b7f4e487b7100000000000000000000000000000000000000000000000000000000600052602260045260246000fd5b600060028204905060018216806200381557607f821691505b602082108114156200382c576200382b620037cd565b5b50919050565b7f4552433732313a20617070726f76656420717565727920666f72206e6f6e657860008201527f697374656e7420746f6b656e0000000000000000000000000000000000000000602082015250565b600062003890602c8362002ddf565b91506200389d8262003832565b604082019050919050565b60006020820190508181036000830152620038c38162003881565b9050919050565b7f4552433732313a20617070726f76616c20746f2063757272656e74206f776e6560008201527f7200000000000000000000000000000000000000000000000000000000000000602082015250565b60006200392860218362002ddf565b91506200393582620038ca565b604082019050919050565b600060208201905081810360008301526200395b8162003919565b9050919050565b7f4552433732313a20617070726f76652063616c6c6572206973206e6f74206f7760008201527f6e6572206e6f7220617070726f76656420666f7220616c6c0000000000000000602082015250565b6000620039c060388362002ddf565b9150620039cd8262003962565b604082019050919050565b60006020820190508181036000830152620039f381620039b1565b9050919050565b7f4552433732313a207472616e736665722063616c6c6572206973206e6f74206f60008201527f776e6572206e6f7220617070726f766564000000000000000000000000000000602082015250565b600062003a5860318362002ddf565b915062003a6582620039fa565b604082019050919050565b6000602082019050818103600083015262003a8b8162003a49565b9050919050565b7f45525f3032380000000000000000000000000000000000000000000000000000600082015250565b600062003aca60068362002ddf565b915062003ad78262003a92565b602082019050919050565b6000602082019050818103600083015262003afd8162003abb565b9050919050565b62003b0f8162003171565b82525050565b600060e08201905062003b2c600083018a62003b04565b62003b3b60208301896200323e565b62003b4a60408301886200323e565b62003b5960608301876200323e565b62003b6860808301866200323e565b62003b7760a083018562002f3d565b62003b8660c083018462002f3d565b98975050505050505050565b60008151905062003ba38162002ea6565b92915050565b60006020828403121562003bc25762003bc162002d01565b5b600062003bd28482850162003b92565b91505092915050565b600060408201905062003bf2600083018562002f3d565b62003c0160208301846200323e565b9392505050565b7f45525f3033310000000000000000000000000000000000000000000000000000600082015250565b600062003c4060068362002ddf565b915062003c4d8262003c08565b602082019050919050565b6000602082019050818103600083015262003c738162003c31565b9050919050565b7f45525f3033320000000000000000000000000000000000000000000000000000600082015250565b600062003cb260068362002ddf565b915062003cbf8262003c7a565b602082019050919050565b6000602082019050818103600083015262003ce58162003ca3565b9050919050565b600060608201905062003d03600083018662002f3d565b62003d12602083018562002f3d565b62003d2160408301846200323e565b949350505050565b7f4552433732313a206f776e657220717565727920666f72206e6f6e657869737460008201527f656e7420746f6b656e0000000000000000000000000000000000000000000000602082015250565b600062003d8760298362002ddf565b915062003d948262003d29565b604082019050919050565b6000602082019050818103600083015262003dba8162003d78565b9050919050565b7f4552433732313a2062616c616e636520717565727920666f7220746865207a6560008201527f726f206164647265737300000000000000000000000000000000000000000000602082015250565b600062003e1f602a8362002ddf565b915062003e2c8262003dc1565b604082019050919050565b6000602082019050818103600083015262003e528162003e10565b9050919050565b7f4f776e61626c653a2063616c6c6572206973206e6f7420746865206f776e6572600082015250565b600062003e9160208362002ddf565b915062003e9e8262003e59565b602082019050919050565b6000602082019050818103600083015262003ec48162003e82565b9050919050565b7f4552433732313a20617070726f766520746f2063616c6c657200000000000000600082015250565b600062003f0360198362002ddf565b915062003f108262003ecb565b602082019050919050565b6000602082019050818103600083015262003f368162003ef4565b9050919050565b7f45524337323155524953746f726167653a2055524920717565727920666f722060008201527f6e6f6e6578697374656e7420746f6b656e000000000000000000000000000000602082015250565b600062003f9b60318362002ddf565b915062003fa88262003f3d565b604082019050919050565b6000602082019050818103600083015262003fce8162003f8c565b9050919050565b600081905092915050565b600062003fed8262002dd4565b62003ff9818562003fd5565b93506200400b81856020860162002df0565b80840191505092915050565b600062004025828562003fe0565b915062004033828462003fe0565b91508190509392505050565b7f45525f3032390000000000000000000000000000000000000000000000000000600082015250565b60006200407760068362002ddf565b915062004084826200403f565b602082019050919050565b60006020820190508181036000830152620040aa8162004068565b9050919050565b7f45525f3033300000000000000000000000000000000000000000000000000000600082015250565b6000620040e960068362002ddf565b9150620040f682620040b1565b602082019050919050565b600060208201905081810360008301526200411c81620040da565b9050919050565b7f4f776e61626c653a206e6577206f776e657220697320746865207a65726f206160008201527f6464726573730000000000000000000000000000000000000000000000000000602082015250565b60006200418160268362002ddf565b91506200418e8262004123565b604082019050919050565b60006020820190508181036000830152620041b48162004172565b9050919050565b7f4e487b7100000000000000000000000000000000000000000000000000000000600052601160045260246000fd5b6000620041f78262002e9c565b9150620042048362002e9c565b9250827fffffffffffffffffffffffffffffffffffffffffffffffffffffffffffffffff038211156200423c576200423b620041bb565b5b828201905092915050565b7f45525f3033350000000000000000000000000000000000000000000000000000600082015250565b60006200427f60068362002ddf565b91506200428c8262004247565b602082019050919050565b60006020820190508181036000830152620042b28162004270565b9050919050565b7f4552433732313a206f70657261746f7220717565727920666f72206e6f6e657860008201527f697374656e7420746f6b656e0000000000000000000000000000000000000000602082015250565b600062004317602c8362002ddf565b91506200432482620042b9565b604082019050919050565b600060208201905081810360008301526200434a8162004308565b9050919050565b7f4552433732313a207472616e73666572206f6620746f6b656e2074686174206960008201527f73206e6f74206f776e0000000000000000000000000000000000000000000000602082015250565b6000620043af60298362002ddf565b9150620043bc8262004351565b604082019050919050565b60006020820190508181036000830152620043e281620043a0565b9050919050565b7f4552433732313a207472616e7366657220746f20746865207a65726f2061646460008201527f7265737300000000000000000000000000000000000000000000000000000000602082015250565b60006200444760248362002ddf565b91506200445482620043e9565b604082019050919050565b600060208201905081810360008301526200447a8162004438565b9050919050565b60006200448e8262002e9c565b91506200449b8362002e9c565b925082821015620044b157620044b0620041bb565b5b828203905092915050565b7f4552433732313a207472616e7366657220746f206e6f6e20455243373231526560008201527f63656976657220696d706c656d656e7465720000000000000000000000000000602082015250565b60006200451a60328362002ddf565b91506200452782620044bc565b604082019050919050565b600060208201905081810360008301526200454d816200450b565b9050919050565b7f4552433732314d657461646174613a2055524920717565727920666f72206e6f60008201527f6e6578697374656e7420746f6b656e0000000000000000000000000000000000602082015250565b6000620045b2602f8362002ddf565b9150620045bf8262004554565b604082019050919050565b60006020820190508181036000830152620045e581620045a3565b9050919050565b7f4552433732313a206d696e7420746f20746865207a65726f2061646472657373600082015250565b60006200462460208362002ddf565b91506200463182620045ec565b602082019050919050565b60006020820190508181036000830152620046578162004615565b9050919050565b7f4552433732313a20746f6b656e20616c7265616479206d696e74656400000000600082015250565b600062004696601c8362002ddf565b9150620046a3826200465e565b602082019050919050565b60006020820190508181036000830152620046c98162004687565b9050919050565b7f45524337323155524953746f726167653a2055524920736574206f66206e6f6e60008201527f6578697374656e7420746f6b656e000000000000000000000000000000000000602082015250565b60006200472e602e8362002ddf565b91506200473b82620046d0565b604082019050919050565b6000602082019050818103600083015262004761816200471f565b9050919050565b7f45525f3033330000000000000000000000000000000000000000000000000000600082015250565b6000620047a060068362002ddf565b9150620047ad8262004768565b602082019050919050565b60006020820190508181036000830152620047d38162004791565b9050919050565b7f45525f3033340000000000000000000000000000000000000000000000000000600082015250565b60006200481260068362002ddf565b91506200481f82620047da565b602082019050919050565b60006020820190508181036000830152620048458162004803565b9050919050565b600081519050919050565b600082825260208201905092915050565b600062004875826200484c565b62004881818562004857565b93506200489381856020860162002df0565b6200489e8162002e26565b840191505092915050565b6000608082019050620048c0600083018762002f3d565b620048cf602083018662002f3d565b620048de60408301856200323e565b8181036060830152620048f2818462004868565b905095945050505050565b6000815190506200490e8162002d37565b92915050565b6000602082840312156200492d576200492c62002d01565b5b60006200493d84828501620048fd565b91505092915050565b6000620049538262002e9c565b91507fffffffffffffffffffffffffffffffffffffffffffffffffffffffffffffffff821415620049895762004988620041bb565b5b600182019050919050565b7f4e487b7100000000000000000000000000000000000000000000000000000000600052601260045260246000fd5b6000620049d08262002e9c565b9150620049dd8362002e9c565b925082620049f057620049ef62004994565b5b828204905092915050565b600062004a088262002e9c565b915062004a158362002e9c565b92508262004a285762004a2762004994565b5b828206905092915050565b7f4e487b7100000000000000000000000000000000000000000000000000000000600052603260045260246000fdfe6101406040523480156200001257600080fd5b5060405162006d7538038062006d758339818101604052810190620000389190620003fd565b60006200004a620002fd60201b60201c565b9050806000806101000a81548173ffffffffffffffffffffffffffffffffffffffff021916908373ffffffffffffffffffffffffffffffffffffffff1602179055508073ffffffffffffffffffffffffffffffffffffffff16600073ffffffffffffffffffffffffffffffffffffffff167f8be0079c531659141344cd1fd0a4f28419497f9722a3daafe3b4186f6b6457e060405160405180910390a350600085116200012e576040517f08c379a0000000000000000000000000000000000000000000000000000000008152600401620001259062000511565b60405180910390fd5b6003861162000174576040517f08c379a00000000000000000000000000000000000000000000000000000000081526004016200016b9062000583565b60405180910390fd5b86604051620001839062000305565b6200018f9190620005b6565b604051809103906000f080158015620001ac573d6000803e3d6000fd5b5073ffffffffffffffffffffffffffffffffffffffff1660808173ffffffffffffffffffffffffffffffffffffffff168152505030604051620001ef9062000305565b620001fb9190620005b6565b604051809103906000f08015801562000218573d6000803e3d6000fd5b5073ffffffffffffffffffffffffffffffffffffffff1660a08173ffffffffffffffffffffffffffffffffffffffff16815250508560e081815250508460c0818152505083610100818152505081600560006101000a81548173ffffffffffffffffffffffffffffffffffffffff021916908373ffffffffffffffffffffffffffffffffffffffff16021790555080600660006101000a81548173ffffffffffffffffffffffffffffffffffffffff021916908373ffffffffffffffffffffffffffffffffffffffff16021790555082610120818152505050505050505050620005d3565b600033905090565b61198a80620053eb83390190565b600080fd5b600073ffffffffffffffffffffffffffffffffffffffff82169050919050565b6000620003458262000318565b9050919050565b620003578162000338565b81146200036357600080fd5b50565b60008151905062000377816200034c565b92915050565b6000819050919050565b62000392816200037d565b81146200039e57600080fd5b50565b600081519050620003b28162000387565b92915050565b6000620003c58262000318565b9050919050565b620003d781620003b8565b8114620003e357600080fd5b50565b600081519050620003f781620003cc565b92915050565b600080600080600080600060e0888a0312156200041f576200041e62000313565b5b60006200042f8a828b0162000366565b9750506020620004428a828b01620003a1565b9650506040620004558a828b01620003a1565b9550506060620004688a828b01620003a1565b94505060806200047b8a828b01620003a1565b93505060a06200048e8a828b01620003e6565b92505060c0620004a18a828b01620003e6565b91505092959891949750929550565b600082825260208201905092915050565b7f45525f3030310000000000000000000000000000000000000000000000000000600082015250565b6000620004f9600683620004b0565b91506200050682620004c1565b602082019050919050565b600060208201905081810360008301526200052c81620004ea565b9050919050565b7f45525f3030320000000000000000000000000000000000000000000000000000600082015250565b60006200056b600683620004b0565b9150620005788262000533565b602082019050919050565b600060208201905081810360008301526200059e816200055c565b9050919050565b620005b08162000338565b82525050565b6000602082019050620005cd6000830184620005a5565b92915050565b60805160a05160c05160e0516101005161012051614cd3620007186000396000818161099c0152818161184101528181611eb801528181611f1f01528181612763015261289201526000818161215901528181612253015261235e015260008181610fe7015281816113ac015281816114ae0152818161155a01528181611cae0152818161230401526128b70152600081816113cd015281816114cf0152818161157b01528181611ce701528181611d2401526128d80152600081816101940152818161022401528181610c1f01528181610d9801528181610efd015281816119320152818161205d01528181612e250152612ea5015260008181610b9f01528181610e720152818161189601528181611a2101528181611b6601528181611bde01528181611dde01528181611fae015281816126730152612da50152614cd36000f3fe60806040526004361061018d5760003560e01c806303ee438c146102b2578063150b7a02146102dd578063235004ac1461031a578063291b3d601461034557806329dd29c7146103705780632b63a5851461039b578063590e1ae3146103b257806367ee66e6146103bc5780636c4470fb146103e757806370740ac914610412578063715018a614610429578063750521f5146104405780637534c9a214610469578063789c20f9146104a65780637ec42e69146104d15780638773f4f4146104fc5780638da5cb5b1461052757806394f649dd146105525780639af6549a14610590578063a26dbf26146105a7578063acffa436146105d2578063b2c744a8146105fd578063b5ae451914610628578063c39b583c14610653578063d11711a21461067e578063d62fbc3514610688578063d7c81b55146106b3578063df15c37e146106de578063eb1b99871461070e578063ec6e563d14610725578063ee31b8cd14610750578063f12be32614610767578063f2fde38b146107a4578063fe437ae7146107cd57610222565b36610222577f000000000000000000000000000000000000000000000000000000000000000073ffffffffffffffffffffffffffffffffffffffff163373ffffffffffffffffffffffffffffffffffffffff1614610220576040517f08c379a0000000000000000000000000000000000000000000000000000000008152600401610217906133ff565b60405180910390fd5b005b7f000000000000000000000000000000000000000000000000000000000000000073ffffffffffffffffffffffffffffffffffffffff163373ffffffffffffffffffffffffffffffffffffffff16146102b0576040517f08c379a00000000000000000000000000000000000000000000000000000000081526004016102a79061346b565b60405180910390fd5b005b3480156102be57600080fd5b506102c76107f8565b6040516102d49190613513565b60405180910390f35b3480156102e957600080fd5b5061030460048036038101906102ff9190613642565b610886565b6040516103119190613705565b60405180910390f35b34801561032657600080fd5b5061032f610aa3565b60405161033c9190613741565b60405180910390f35b34801561035157600080fd5b5061035a610ac9565b604051610367919061376b565b60405180910390f35b34801561037c57600080fd5b50610385610ace565b604051610392919061376b565b60405180910390f35b3480156103a757600080fd5b506103b0610ad3565b005b6103ba610d4d565b005b3480156103c857600080fd5b506103d1610fbf565b6040516103de9190613741565b60405180910390f35b3480156103f357600080fd5b506103fc610fe5565b604051610409919061376b565b60405180910390f35b34801561041e57600080fd5b50610427611009565b005b34801561043557600080fd5b5061043e611619565b005b34801561044c57600080fd5b50610467600480360381019061046291906138b6565b611753565b005b34801561047557600080fd5b50610490600480360381019061048b91906138ff565b6117e9565b60405161049d919061393b565b60405180910390f35b3480156104b257600080fd5b506104bb611828565b6040516104c89190613971565b60405180910390f35b3480156104dd57600080fd5b506104e661183f565b6040516104f3919061376b565b60405180910390f35b34801561050857600080fd5b50610511611863565b60405161051e919061376b565b60405180910390f35b34801561053357600080fd5b5061053c611868565b604051610549919061393b565b60405180910390f35b34801561055e57600080fd5b506105796004803603810190610574919061398c565b611891565b6040516105879291906139b9565b60405180910390f35b34801561059c57600080fd5b506105a56119d1565b005b3480156105b357600080fd5b506105bc611c95565b6040516105c9919061376b565b60405180910390f35b3480156105de57600080fd5b506105e7611ce0565b6040516105f4919061376b565b60405180910390f35b34801561060957600080fd5b50610612611ce5565b60405161061f919061376b565b60405180910390f35b34801561063457600080fd5b5061063d611d09565b60405161064a919061376b565b60405180910390f35b34801561065f57600080fd5b50610668611d0f565b6040516106759190613971565b60405180910390f35b610686611d22565b005b34801561069457600080fd5b5061069d612357565b6040516106aa919061376b565b60405180910390f35b3480156106bf57600080fd5b506106c861235c565b6040516106d5919061376b565b60405180910390f35b3480156106ea57600080fd5b506106f3612380565b604051610705969594939291906139e2565b60405180910390f35b34801561071a57600080fd5b50610723612436565b005b34801561073157600080fd5b5061073a61265b565b6040516107479190613971565b60405180910390f35b34801561075c57600080fd5b50610765612718565b005b34801561077357600080fd5b5061078e6004803603810190610789919061398c565b612987565b60405161079b9190613971565b60405180910390f35b3480156107b057600080fd5b506107cb60048036038101906107c6919061398c565b612a91565b005b3480156107d957600080fd5b506107e2612c3a565b6040516107ef9190613741565b60405180910390f35b6009805461080590613a72565b80601f016020809104026020016040519081016040528092919081815260200182805461083190613a72565b801561087e5780601f106108535761010080835404028352916020019161087e565b820191906000526020600020905b81548152906001019060200180831161086157829003601f168201915b505050505081565b6000600560009054906101000a900473ffffffffffffffffffffffffffffffffffffffff1673ffffffffffffffffffffffffffffffffffffffff163373ffffffffffffffffffffffffffffffffffffffff1614610918576040517f08c379a000000000000000000000000000000000000000000000000000000000815260040161090f90613af0565b60405180910390fd5b6000600860008773ffffffffffffffffffffffffffffffffffffffff1673ffffffffffffffffffffffffffffffffffffffff168152602001908152602001600020541461099a576040517f08c379a000000000000000000000000000000000000000000000000000000000815260040161099190613b5c565b60405180910390fd5b7f0000000000000000000000000000000000000000000000000000000000000000600754106109fe576040517f08c379a00000000000000000000000000000000000000000000000000000000081526004016109f590613bc8565b60405180910390fd5b83600860008773ffffffffffffffffffffffffffffffffffffffff1673ffffffffffffffffffffffffffffffffffffffff168152602001908152602001600020819055506001600754610a519190613c17565b6007819055507f6c1db45156f46e792997773bd94e0ccff5ee22722c352b5379d5c7c1dc7b4afb8585604051610a88929190613c6d565b60405180910390a163150b7a0260e01b905095945050505050565b600360009054906101000a900473ffffffffffffffffffffffffffffffffffffffff1681565b601481565b600a81565b610adb612c60565b73ffffffffffffffffffffffffffffffffffffffff16610af9611868565b73ffffffffffffffffffffffffffffffffffffffff1614610b4f576040517f08c379a0000000000000000000000000000000000000000000000000000000008152600401610b4690613ce2565b60405180910390fd5b60001515610b5b611828565b151514610b9d576040517f08c379a0000000000000000000000000000000000000000000000000000000008152600401610b9490613d4e565b60405180910390fd5b7f000000000000000000000000000000000000000000000000000000000000000073ffffffffffffffffffffffffffffffffffffffff16638c52dc416040518163ffffffff1660e01b8152600401600060405180830381600087803b158015610c0557600080fd5b505af1158015610c19573d6000803e3d6000fd5b505050507f000000000000000000000000000000000000000000000000000000000000000073ffffffffffffffffffffffffffffffffffffffff16638c52dc416040518163ffffffff1660e01b8152600401600060405180830381600087803b158015610c8557600080fd5b505af1158015610c99573d6000803e3d6000fd5b50505050600560009054906101000a900473ffffffffffffffffffffffffffffffffffffffff1673ffffffffffffffffffffffffffffffffffffffff16634d699f006040518163ffffffff1660e01b8152600401600060405180830381600087803b158015610d0757600080fd5b505af1158015610d1b573d6000803e3d6000fd5b505050507f1dc43dc4f1689be1269b3e80407b3401b4cb752c02591cac32e47dfd758af27d60405160405180910390a1565b610d5561265b565b610d94576040517f08c379a0000000000000000000000000000000000000000000000000000000008152600401610d8b90613dba565b60405180910390fd5b60007f000000000000000000000000000000000000000000000000000000000000000073ffffffffffffffffffffffffffffffffffffffff1663e3a9db1a336040518263ffffffff1660e01b8152600401610def919061393b565b602060405180830381865afa158015610e0c573d6000803e3d6000fd5b505050506040513d601f19601f82011682018060405250810190610e309190613def565b11610e70576040517f08c379a0000000000000000000000000000000000000000000000000000000008152600401610e6790613e68565b60405180910390fd5b7f000000000000000000000000000000000000000000000000000000000000000073ffffffffffffffffffffffffffffffffffffffff166351cff8d9336040518263ffffffff1660e01b8152600401610ec99190613741565b600060405180830381600087803b158015610ee357600080fd5b505af1158015610ef7573d6000803e3d6000fd5b505050507f000000000000000000000000000000000000000000000000000000000000000073ffffffffffffffffffffffffffffffffffffffff166351cff8d9336040518263ffffffff1660e01b8152600401610f549190613741565b600060405180830381600087803b158015610f6e57600080fd5b505af1158015610f82573d6000803e3d6000fd5b505050507f167242d43394c1ae34826c8d7544822cbe8c1071d221a571aad57cdd2c2a2fd333604051610fb5919061393b565b60405180910390a1565b600460009054906101000a900473ffffffffffffffffffffffffffffffffffffffff1681565b7f000000000000000000000000000000000000000000000000000000000000000081565b611011611828565b611050576040517f08c379a000000000000000000000000000000000000000000000000000000000815260040161104790613ed4565b60405180910390fd5b600260019054906101000a900473ffffffffffffffffffffffffffffffffffffffff1673ffffffffffffffffffffffffffffffffffffffff163373ffffffffffffffffffffffffffffffffffffffff1614806110f95750600360009054906101000a900473ffffffffffffffffffffffffffffffffffffffff1673ffffffffffffffffffffffffffffffffffffffff163373ffffffffffffffffffffffffffffffffffffffff16145b806111515750600460009054906101000a900473ffffffffffffffffffffffffffffffffffffffff1673ffffffffffffffffffffffffffffffffffffffff163373ffffffffffffffffffffffffffffffffffffffff16145b611190576040517f08c379a000000000000000000000000000000000000000000000000000000000815260040161118790613f40565b60405180910390fd5b600260019054906101000a900473ffffffffffffffffffffffffffffffffffffffff1673ffffffffffffffffffffffffffffffffffffffff163373ffffffffffffffffffffffffffffffffffffffff16148015611200575060001515600460149054906101000a900460ff161515145b806112775750600360009054906101000a900473ffffffffffffffffffffffffffffffffffffffff1673ffffffffffffffffffffffffffffffffffffffff163373ffffffffffffffffffffffffffffffffffffffff16148015611276575060001515600460159054906101000a900460ff161515145b5b806112ee5750600460009054906101000a900473ffffffffffffffffffffffffffffffffffffffff1673ffffffffffffffffffffffffffffffffffffffff163373ffffffffffffffffffffffffffffffffffffffff161480156112ed575060001515600460169054906101000a900460ff161515145b5b61132d576040517f08c379a000000000000000000000000000000000000000000000000000000000815260040161132490613fac565b60405180910390fd5b6000339050600260019054906101000a900473ffffffffffffffffffffffffffffffffffffffff1673ffffffffffffffffffffffffffffffffffffffff163373ffffffffffffffffffffffffffffffffffffffff161415611434576001600460146101000a81548160ff02191690831515021790555061142f606460147f00000000000000000000000000000000000000000000000000000000000000007f00000000000000000000000000000000000000000000000000000000000000006113f69190613fcc565b6114009190613fcc565b61140a9190614055565b8273ffffffffffffffffffffffffffffffffffffffff16612c6890919063ffffffff16565b6115df565b600360009054906101000a900473ffffffffffffffffffffffffffffffffffffffff1673ffffffffffffffffffffffffffffffffffffffff163373ffffffffffffffffffffffffffffffffffffffff161415611536576001600460156101000a81548160ff0219169083151502179055506115316064600a7f00000000000000000000000000000000000000000000000000000000000000007f00000000000000000000000000000000000000000000000000000000000000006114f89190613fcc565b6115029190613fcc565b61150c9190614055565b8273ffffffffffffffffffffffffffffffffffffffff16612c6890919063ffffffff16565b6115de565b6001600460166101000a81548160ff0219169083151502179055506115dd606460057f00000000000000000000000000000000000000000000000000000000000000007f00000000000000000000000000000000000000000000000000000000000000006115a49190613fcc565b6115ae9190613fcc565b6115b89190614055565b8273ffffffffffffffffffffffffffffffffffffffff16612c6890919063ffffffff16565b5b5b7f09f058359c5a4d11027ce8027f5f0f4df210cb3ebac92f2c584170ed78624dd83360405161160e919061393b565b60405180910390a150565b611621612c60565b73ffffffffffffffffffffffffffffffffffffffff1661163f611868565b73ffffffffffffffffffffffffffffffffffffffff1614611695576040517f08c379a000000000000000000000000000000000000000000000000000000000815260040161168c90613ce2565b60405180910390fd5b600073ffffffffffffffffffffffffffffffffffffffff1660008054906101000a900473ffffffffffffffffffffffffffffffffffffffff1673ffffffffffffffffffffffffffffffffffffffff167f8be0079c531659141344cd1fd0a4f28419497f9722a3daafe3b4186f6b6457e060405160405180910390a360008060006101000a81548173ffffffffffffffffffffffffffffffffffffffff021916908373ffffffffffffffffffffffffffffffffffffffff160217905550565b61175b612c60565b73ffffffffffffffffffffffffffffffffffffffff16611779611868565b73ffffffffffffffffffffffffffffffffffffffff16146117cf576040517f08c379a00000000000000000000000000000000000000000000000000000000081526004016117c690613ce2565b60405180910390fd5b80600990805190602001906117e59291906132ff565b5050565b600181815481106117f957600080fd5b906000526020600020016000915054906101000a900473ffffffffffffffffffffffffffffffffffffffff1681565b6000600260009054906101000a900460ff16905090565b7f000000000000000000000000000000000000000000000000000000000000000081565b600581565b60008060009054906101000a900473ffffffffffffffffffffffffffffffffffffffff16905090565b6000807f000000000000000000000000000000000000000000000000000000000000000073ffffffffffffffffffffffffffffffffffffffff1663e3a9db1a846040518263ffffffff1660e01b81526004016118ed919061393b565b602060405180830381865afa15801561190a573d6000803e3d6000fd5b505050506040513d601f19601f8201168201806040525081019061192e9190613def565b91507f000000000000000000000000000000000000000000000000000000000000000073ffffffffffffffffffffffffffffffffffffffff1663e3a9db1a846040518263ffffffff1660e01b8152600401611989919061393b565b602060405180830381865afa1580156119a6573d6000803e3d6000fd5b505050506040513d601f19601f820116820180604052508101906119ca9190613def565b9050915091565b600015156119dd61265b565b151514611a1f576040517f08c379a0000000000000000000000000000000000000000000000000000000008152600401611a16906140d2565b60405180910390fd5b7f000000000000000000000000000000000000000000000000000000000000000073ffffffffffffffffffffffffffffffffffffffff166338af3eed6040518163ffffffff1660e01b8152600401602060405180830381865afa158015611a8a573d6000803e3d6000fd5b505050506040513d601f19601f82011682018060405250810190611aae919061411e565b73ffffffffffffffffffffffffffffffffffffffff163373ffffffffffffffffffffffffffffffffffffffff1614611b1b576040517f08c379a0000000000000000000000000000000000000000000000000000000008152600401611b1290614197565b60405180910390fd5b611b23611828565b611b62576040517f08c379a0000000000000000000000000000000000000000000000000000000008152600401611b5990614203565b60405180910390fd5b60007f000000000000000000000000000000000000000000000000000000000000000073ffffffffffffffffffffffffffffffffffffffff163111611bdc576040517f08c379a0000000000000000000000000000000000000000000000000000000008152600401611bd39061426f565b60405180910390fd5b7f000000000000000000000000000000000000000000000000000000000000000073ffffffffffffffffffffffffffffffffffffffff16639af6549a6040518163ffffffff1660e01b8152600401600060405180830381600087803b158015611c4457600080fd5b505af1158015611c58573d6000803e3d6000fd5b505050507fcb521d22cc2e41947c2b6ccfda03178961b692e976ca005baacd005317856b1d33604051611c8b919061393b565b60405180910390a1565b6000600260009054906101000a900460ff1615611cd4577f00000000000000000000000000000000000000000000000000000000000000009050611cdd565b60018054905090505b90565b603c81565b7f000000000000000000000000000000000000000000000000000000000000000081565b60075481565b600260009054906101000a900460ff1681565b7f00000000000000000000000000000000000000000000000000000000000000003414611d84576040517f08c379a0000000000000000000000000000000000000000000000000000000008152600401611d7b906142db565b60405180910390fd5b60001515600260009054906101000a900460ff16151514611dda576040517f08c379a0000000000000000000000000000000000000000000000000000000008152600401611dd190614347565b60405180910390fd5b60007f000000000000000000000000000000000000000000000000000000000000000073ffffffffffffffffffffffffffffffffffffffff1663e3a9db1a336040518263ffffffff1660e01b8152600401611e35919061393b565b602060405180830381865afa158015611e52573d6000803e3d6000fd5b505050506040513d601f19601f82011682018060405250810190611e769190613def565b14611eb6576040517f08c379a0000000000000000000000000000000000000000000000000000000008152600401611ead906143b3565b60405180910390fd5b7f000000000000000000000000000000000000000000000000000000000000000060075414611f1a576040517f08c379a0000000000000000000000000000000000000000000000000000000008152600401611f119061441f565b60405180910390fd5b6000807f00000000000000000000000000000000000000000000000000000000000000001415611f4957600590505b6001339080600181540180825580915050600190039060005260206000200160009091909190916101000a81548173ffffffffffffffffffffffffffffffffffffffff021916908373ffffffffffffffffffffffffffffffffffffffff1602179055507f000000000000000000000000000000000000000000000000000000000000000073ffffffffffffffffffffffffffffffffffffffff1663f340fa01606483603c611ff79190613c17565b346120029190613fcc565b61200c9190614055565b336040518363ffffffff1660e01b8152600401612029919061393b565b6000604051808303818588803b15801561204257600080fd5b505af1158015612056573d6000803e3d6000fd5b50505050507f000000000000000000000000000000000000000000000000000000000000000073ffffffffffffffffffffffffffffffffffffffff1663f340fa01606483603c6120a69190613c17565b60646120b2919061443f565b346120bd9190613fcc565b6120c79190614055565b336040518363ffffffff1660e01b81526004016120e4919061393b565b6000604051808303818588803b1580156120fd57600080fd5b505af1158015612111573d6000803e3d6000fd5b50505050506000600560009054906101000a900473ffffffffffffffffffffffffffffffffffffffff1673ffffffffffffffffffffffffffffffffffffffff1663e66a1ab1337f00000000000000000000000000000000000000000000000000000000000000006040518363ffffffff1660e01b8152600401612195929190614499565b6020604051808303816000875af11580156121b4573d6000803e3d6000fd5b505050506040513d601f19601f820116820180604052508101906121d89190613def565b90507fb198f199c43cc078ad46e5a5fabe03eba401f7417816c86af0bd2e7345c99506338260405161220b929190613c6d565b60405180910390a1600660009054906101000a900473ffffffffffffffffffffffffffffffffffffffff1673ffffffffffffffffffffffffffffffffffffffff16633f18c9a57f000000000000000000000000000000000000000000000000000000000000000060405160200161228291906144f6565b604051602081830303815290604052336040516020016122a29190614559565b604051602081830303815290604052346040518463ffffffff1660e01b81526004016122d0939291906145c9565b600060405180830381600087803b1580156122ea57600080fd5b505af11580156122fe573d6000803e3d6000fd5b505050507f00000000000000000000000000000000000000000000000000000000000000006001805490501415612353576001600260006101000a81548160ff021916908315150217905550612352612d5c565b5b5050565b600581565b7f000000000000000000000000000000000000000000000000000000000000000081565b600080600080600080600260019054906101000a900473ffffffffffffffffffffffffffffffffffffffff169550600360009054906101000a900473ffffffffffffffffffffffffffffffffffffffff169450600460009054906101000a900473ffffffffffffffffffffffffffffffffffffffff169350600460149054906101000a900460ff169250600460159054906101000a900460ff169150600460169054906101000a900460ff169050909192939495565b61243e61265b565b61247d576040517f08c379a00000000000000000000000000000000000000000000000000000000081526004016124749061465a565b60405180910390fd5b6000600860003373ffffffffffffffffffffffffffffffffffffffff1673ffffffffffffffffffffffffffffffffffffffff16815260200190815260200160002054116124ff576040517f08c379a00000000000000000000000000000000000000000000000000000000081526004016124f6906146c6565b60405180910390fd5b6000600860003373ffffffffffffffffffffffffffffffffffffffff1673ffffffffffffffffffffffffffffffffffffffff1681526020019081526020016000205490506000600860003373ffffffffffffffffffffffffffffffffffffffff1673ffffffffffffffffffffffffffffffffffffffff168152602001908152602001600020819055506000600560009054906101000a900473ffffffffffffffffffffffffffffffffffffffff1690508073ffffffffffffffffffffffffffffffffffffffff166342842e0e3033856040518463ffffffff1660e01b81526004016125ec939291906146e6565b600060405180830381600087803b15801561260657600080fd5b505af115801561261a573d6000803e3d6000fd5b505050507fd5ac6307b44f6b4d642c21fe19ab8d191a20a68eaf085cdfc26ca5ebba10e6a1338360405161264f929190613c6d565b60405180910390a15050565b6000600160028111156126715761267061471d565b5b7f000000000000000000000000000000000000000000000000000000000000000073ffffffffffffffffffffffffffffffffffffffff1663c19d93fb6040518163ffffffff1660e01b8152600401602060405180830381865afa1580156126dc573d6000803e3d6000fd5b505050506040513d601f19601f820116820180604052508101906127009190614771565b60028111156127125761271161471d565b5b14905090565b612720611828565b61275f576040517f08c379a0000000000000000000000000000000000000000000000000000000008152600401612756906147ea565b60405180910390fd5b60007f0000000000000000000000000000000000000000000000000000000000000000116127c2576040517f08c379a00000000000000000000000000000000000000000000000000000000081526004016127b990614856565b60405180910390fd5b6000600860003373ffffffffffffffffffffffffffffffffffffffff1673ffffffffffffffffffffffffffffffffffffffff1681526020019081526020016000205411612844576040517f08c379a000000000000000000000000000000000000000000000000000000000815260040161283b906148c2565b60405180910390fd5b6000600860003373ffffffffffffffffffffffffffffffffffffffff1673ffffffffffffffffffffffffffffffffffffffff16815260200190815260200160002081905550600033905060007f0000000000000000000000000000000000000000000000000000000000000000606460057f00000000000000000000000000000000000000000000000000000000000000007f00000000000000000000000000000000000000000000000000000000000000006129019190613fcc565b61290b9190613fcc565b6129159190614055565b61291f9190614055565b905061294a818373ffffffffffffffffffffffffffffffffffffffff16612c6890919063ffffffff16565b7f7a10dc0e616dab082dec16c066cf08dca1a814e025df12b69253b7077fc9b76d338260405161297b929190613c6d565b60405180910390a15050565b60008173ffffffffffffffffffffffffffffffffffffffff16600260019054906101000a900473ffffffffffffffffffffffffffffffffffffffff1673ffffffffffffffffffffffffffffffffffffffff161480612a3257508173ffffffffffffffffffffffffffffffffffffffff16600360009054906101000a900473ffffffffffffffffffffffffffffffffffffffff1673ffffffffffffffffffffffffffffffffffffffff16145b80612a8a57508173ffffffffffffffffffffffffffffffffffffffff16600460009054906101000a900473ffffffffffffffffffffffffffffffffffffffff1673ffffffffffffffffffffffffffffffffffffffff16145b9050919050565b612a99612c60565b73ffffffffffffffffffffffffffffffffffffffff16612ab7611868565b73ffffffffffffffffffffffffffffffffffffffff1614612b0d576040517f08c379a0000000000000000000000000000000000000000000000000000000008152600401612b0490613ce2565b60405180910390fd5b600073ffffffffffffffffffffffffffffffffffffffff168173ffffffffffffffffffffffffffffffffffffffff161415612b7d576040517f08c379a0000000000000000000000000000000000000000000000000000000008152600401612b7490614954565b60405180910390fd5b8073ffffffffffffffffffffffffffffffffffffffff1660008054906101000a900473ffffffffffffffffffffffffffffffffffffffff1673ffffffffffffffffffffffffffffffffffffffff167f8be0079c531659141344cd1fd0a4f28419497f9722a3daafe3b4186f6b6457e060405160405180910390a3806000806101000a81548173ffffffffffffffffffffffffffffffffffffffff021916908373ffffffffffffffffffffffffffffffffffffffff16021790555050565b600260019054906101000a900473ffffffffffffffffffffffffffffffffffffffff1681565b600033905090565b80471015612cab576040517f08c379a0000000000000000000000000000000000000000000000000000000008152600401612ca2906149c0565b60405180910390fd5b60008273ffffffffffffffffffffffffffffffffffffffff1682604051612cd190614a0e565b60006040518083038185875af1925050503d8060008114612d0e576040519150601f19603f3d011682016040523d82523d6000602084013e612d13565b606091505b5050905080612d57576040517f08c379a0000000000000000000000000000000000000000000000000000000008152600401612d4e90614a95565b60405180910390fd5b505050565b612d64611828565b612da3576040517f08c379a0000000000000000000000000000000000000000000000000000000008152600401612d9a90614b01565b60405180910390fd5b7f000000000000000000000000000000000000000000000000000000000000000073ffffffffffffffffffffffffffffffffffffffff166343d726d66040518163ffffffff1660e01b8152600401600060405180830381600087803b158015612e0b57600080fd5b505af1158015612e1f573d6000803e3d6000fd5b505050507f000000000000000000000000000000000000000000000000000000000000000073ffffffffffffffffffffffffffffffffffffffff166343d726d66040518163ffffffff1660e01b8152600401600060405180830381600087803b158015612e8b57600080fd5b505af1158015612e9f573d6000803e3d6000fd5b505050507f000000000000000000000000000000000000000000000000000000000000000073ffffffffffffffffffffffffffffffffffffffff16639af6549a6040518163ffffffff1660e01b8152600401600060405180830381600087803b158015612f0b57600080fd5b505af1158015612f1f573d6000803e3d6000fd5b505050506000612f2d61315e565b9050612f47612f42600180549050834461317f565b6131c6565b600260016101000a81548173ffffffffffffffffffffffffffffffffffffffff021916908373ffffffffffffffffffffffffffffffffffffffff160217905550612f9f612f9a600180549050834261317f565b6131c6565b600360006101000a81548173ffffffffffffffffffffffffffffffffffffffff021916908373ffffffffffffffffffffffffffffffffffffffff160217905550612ff8612ff360018054905083600061317f565b6131c6565b600460006101000a81548173ffffffffffffffffffffffffffffffffffffffff021916908373ffffffffffffffffffffffffffffffffffffffff160217905550600560009054906101000a900473ffffffffffffffffffffffffffffffffffffffff1673ffffffffffffffffffffffffffffffffffffffff16634d699f006040518163ffffffff1660e01b8152600401600060405180830381600087803b1580156130a257600080fd5b505af11580156130b6573d6000803e3d6000fd5b505050507f15d257b91b144902b272fec7302c18e20e02e8199fcd6189b64447b87180c337600260019054906101000a900473ffffffffffffffffffffffffffffffffffffffff16600360009054906101000a900473ffffffffffffffffffffffffffffffffffffffff16600460009054906101000a900473ffffffffffffffffffffffffffffffffffffffff1660405161315393929190614b80565b60405180910390a150565b60008060405160208160208460ff600019fa61317657fe5b80519250505090565b6000808383604051602001613195929190614be2565b6040516020818303038152906040528051906020012060001c905084816131bc9190614c0e565b9150509392505050565b6000600182815481106131dc576131db614c3f565b5b9060005260206000200160009054906101000a900473ffffffffffffffffffffffffffffffffffffffff169050600180808054905061321b919061443f565b8154811061322c5761322b614c3f565b5b9060005260206000200160009054906101000a900473ffffffffffffffffffffffffffffffffffffffff166001838154811061326b5761326a614c3f565b5b9060005260206000200160006101000a81548173ffffffffffffffffffffffffffffffffffffffff021916908373ffffffffffffffffffffffffffffffffffffffff16021790555060018054806132c5576132c4614c6e565b5b6001900381819060005260206000200160006101000a81549073ffffffffffffffffffffffffffffffffffffffff02191690559055919050565b82805461330b90613a72565b90600052602060002090601f01602090048101928261332d5760008555613374565b82601f1061334657805160ff1916838001178555613374565b82800160010185558215613374579182015b82811115613373578251825591602001919060010190613358565b5b5090506133819190613385565b5090565b5b8082111561339e576000816000905550600101613386565b5090565b600082825260208201905092915050565b7f45525f3032330000000000000000000000000000000000000000000000000000600082015250565b60006133e96006836133a2565b91506133f4826133b3565b602082019050919050565b60006020820190508181036000830152613418816133dc565b9050919050565b7f45525f3032340000000000000000000000000000000000000000000000000000600082015250565b60006134556006836133a2565b91506134608261341f565b602082019050919050565b6000602082019050818103600083015261348481613448565b9050919050565b600081519050919050565b60005b838110156134b4578082015181840152602081019050613499565b838111156134c3576000848401525b50505050565b6000601f19601f8301169050919050565b60006134e58261348b565b6134ef81856133a2565b93506134ff818560208601613496565b613508816134c9565b840191505092915050565b6000602082019050818103600083015261352d81846134da565b905092915050565b6000604051905090565b600080fd5b600080fd5b600073ffffffffffffffffffffffffffffffffffffffff82169050919050565b600061357482613549565b9050919050565b61358481613569565b811461358f57600080fd5b50565b6000813590506135a18161357b565b92915050565b6000819050919050565b6135ba816135a7565b81146135c557600080fd5b50565b6000813590506135d7816135b1565b92915050565b600080fd5b600080fd5b600080fd5b60008083601f840112613602576136016135dd565b5b8235905067ffffffffffffffff81111561361f5761361e6135e2565b5b60208301915083600182028301111561363b5761363a6135e7565b5b9250929050565b60008060008060006080868803121561365e5761365d61353f565b5b600061366c88828901613592565b955050602061367d88828901613592565b945050604061368e888289016135c8565b935050606086013567ffffffffffffffff8111156136af576136ae613544565b5b6136bb888289016135ec565b92509250509295509295909350565b60007fffffffff0000000000000000000000000000000000000000000000000000000082169050919050565b6136ff816136ca565b82525050565b600060208201905061371a60008301846136f6565b92915050565b600061372b82613549565b9050919050565b61373b81613720565b82525050565b60006020820190506137566000830184613732565b92915050565b613765816135a7565b82525050565b6000602082019050613780600083018461375c565b92915050565b600080fd5b7f4e487b7100000000000000000000000000000000000000000000000000000000600052604160045260246000fd5b6137c3826134c9565b810181811067ffffffffffffffff821117156137e2576137e161378b565b5b80604052505050565b60006137f5613535565b905061380182826137ba565b919050565b600067ffffffffffffffff8211156138215761382061378b565b5b61382a826134c9565b9050602081019050919050565b82818337600083830152505050565b600061385961385484613806565b6137eb565b90508281526020810184848401111561387557613874613786565b5b613880848285613837565b509392505050565b600082601f83011261389d5761389c6135dd565b5b81356138ad848260208601613846565b91505092915050565b6000602082840312156138cc576138cb61353f565b5b600082013567ffffffffffffffff8111156138ea576138e9613544565b5b6138f684828501613888565b91505092915050565b6000602082840312156139155761391461353f565b5b6000613923848285016135c8565b91505092915050565b61393581613569565b82525050565b6000602082019050613950600083018461392c565b92915050565b60008115159050919050565b61396b81613956565b82525050565b60006020820190506139866000830184613962565b92915050565b6000602082840312156139a2576139a161353f565b5b60006139b084828501613592565b91505092915050565b60006040820190506139ce600083018561375c565b6139db602083018461375c565b9392505050565b600060c0820190506139f7600083018961392c565b613a04602083018861392c565b613a11604083018761392c565b613a1e6060830186613962565b613a2b6080830185613962565b613a3860a0830184613962565b979650505050505050565b7f4e487b7100000000000000000000000000000000000000000000000000000000600052602260045260246000fd5b60006002820490506001821680613a8a57607f821691505b60208210811415613a9e57613a9d613a43565b5b50919050565b7f45525f3032350000000000000000000000000000000000000000000000000000600082015250565b6000613ada6006836133a2565b9150613ae582613aa4565b602082019050919050565b60006020820190508181036000830152613b0981613acd565b9050919050565b7f45525f3032360000000000000000000000000000000000000000000000000000600082015250565b6000613b466006836133a2565b9150613b5182613b10565b602082019050919050565b60006020820190508181036000830152613b7581613b39565b9050919050565b7f45525f3032370000000000000000000000000000000000000000000000000000600082015250565b6000613bb26006836133a2565b9150613bbd82613b7c565b602082019050919050565b60006020820190508181036000830152613be181613ba5565b9050919050565b7f4e487b7100000000000000000000000000000000000000000000000000000000600052601160045260246000fd5b6000613c22826135a7565b9150613c2d836135a7565b9250827fffffffffffffffffffffffffffffffffffffffffffffffffffffffffffffffff03821115613c6257613c61613be8565b5b828201905092915050565b6000604082019050613c82600083018561392c565b613c8f602083018461375c565b9392505050565b7f4f776e61626c653a2063616c6c6572206973206e6f7420746865206f776e6572600082015250565b6000613ccc6020836133a2565b9150613cd782613c96565b602082019050919050565b60006020820190508181036000830152613cfb81613cbf565b9050919050565b7f45525f3032320000000000000000000000000000000000000000000000000000600082015250565b6000613d386006836133a2565b9150613d4382613d02565b602082019050919050565b60006020820190508181036000830152613d6781613d2b565b9050919050565b7f45525f3030380000000000000000000000000000000000000000000000000000600082015250565b6000613da46006836133a2565b9150613daf82613d6e565b602082019050919050565b60006020820190508181036000830152613dd381613d97565b9050919050565b600081519050613de9816135b1565b92915050565b600060208284031215613e0557613e0461353f565b5b6000613e1384828501613dda565b91505092915050565b7f45525f3030390000000000000000000000000000000000000000000000000000600082015250565b6000613e526006836133a2565b9150613e5d82613e1c565b602082019050919050565b60006020820190508181036000830152613e8181613e45565b9050919050565b7f45525f3031320000000000000000000000000000000000000000000000000000600082015250565b6000613ebe6006836133a2565b9150613ec982613e88565b602082019050919050565b60006020820190508181036000830152613eed81613eb1565b9050919050565b7f45525f3031330000000000000000000000000000000000000000000000000000600082015250565b6000613f2a6006836133a2565b9150613f3582613ef4565b602082019050919050565b60006020820190508181036000830152613f5981613f1d565b9050919050565b7f45525f3031340000000000000000000000000000000000000000000000000000600082015250565b6000613f966006836133a2565b9150613fa182613f60565b602082019050919050565b60006020820190508181036000830152613fc581613f89565b9050919050565b6000613fd7826135a7565b9150613fe2836135a7565b9250817fffffffffffffffffffffffffffffffffffffffffffffffffffffffffffffffff048311821515161561401b5761401a613be8565b5b828202905092915050565b7f4e487b7100000000000000000000000000000000000000000000000000000000600052601260045260246000fd5b6000614060826135a7565b915061406b836135a7565b92508261407b5761407a614026565b5b828204905092915050565b7f45525f3031380000000000000000000000000000000000000000000000000000600082015250565b60006140bc6006836133a2565b91506140c782614086565b602082019050919050565b600060208201905081810360008301526140eb816140af565b9050919050565b6140fb81613720565b811461410657600080fd5b50565b600081519050614118816140f2565b92915050565b6000602082840312156141345761413361353f565b5b600061414284828501614109565b91505092915050565b7f45525f3031390000000000000000000000000000000000000000000000000000600082015250565b60006141816006836133a2565b915061418c8261414b565b602082019050919050565b600060208201905081810360008301526141b081614174565b9050919050565b7f45525f3032300000000000000000000000000000000000000000000000000000600082015250565b60006141ed6006836133a2565b91506141f8826141b7565b602082019050919050565b6000602082019050818103600083015261421c816141e0565b9050919050565b7f45525f3032310000000000000000000000000000000000000000000000000000600082015250565b60006142596006836133a2565b915061426482614223565b602082019050919050565b600060208201905081810360008301526142888161424c565b9050919050565b7f45525f3030340000000000000000000000000000000000000000000000000000600082015250565b60006142c56006836133a2565b91506142d08261428f565b602082019050919050565b600060208201905081810360008301526142f4816142b8565b9050919050565b7f45525f3030350000000000000000000000000000000000000000000000000000600082015250565b60006143316006836133a2565b915061433c826142fb565b602082019050919050565b6000602082019050818103600083015261436081614324565b9050919050565b7f45525f3030360000000000000000000000000000000000000000000000000000600082015250565b600061439d6006836133a2565b91506143a882614367565b602082019050919050565b600060208201905081810360008301526143cc81614390565b9050919050565b7f45525f3030370000000000000000000000000000000000000000000000000000600082015250565b60006144096006836133a2565b9150614414826143d3565b602082019050919050565b60006020820190508181036000830152614438816143fc565b9050919050565b600061444a826135a7565b9150614455836135a7565b92508282101561446857614467613be8565b5b828203905092915050565b50565b60006144836000836133a2565b915061448e82614473565b600082019050919050565b60006060820190506144ae600083018561392c565b81810360208301526144bf81614476565b90506144ce604083018461375c565b9392505050565b6000819050919050565b6144f06144eb826135a7565b6144d5565b82525050565b600061450282846144df565b60208201915081905092915050565b60008160601b9050919050565b600061452982614511565b9050919050565b600061453b8261451e565b9050919050565b61455361454e82613569565b614530565b82525050565b60006145658284614542565b60148201915081905092915050565b600081519050919050565b600082825260208201905092915050565b600061459b82614574565b6145a5818561457f565b93506145b5818560208601613496565b6145be816134c9565b840191505092915050565b600060608201905081810360008301526145e38186614590565b905081810360208301526145f78185614590565b9050614606604083018461375c565b949350505050565b7f45525f3031300000000000000000000000000000000000000000000000000000600082015250565b60006146446006836133a2565b915061464f8261460e565b602082019050919050565b6000602082019050818103600083015261467381614637565b9050919050565b7f45525f3031310000000000000000000000000000000000000000000000000000600082015250565b60006146b06006836133a2565b91506146bb8261467a565b602082019050919050565b600060208201905081810360008301526146df816146a3565b9050919050565b60006060820190506146fb600083018661392c565b614708602083018561392c565b614715604083018461375c565b949350505050565b7f4e487b7100000000000000000000000000000000000000000000000000000000600052602160045260246000fd5b6003811061475957600080fd5b50565b60008151905061476b8161474c565b92915050565b6000602082840312156147875761478661353f565b5b60006147958482850161475c565b91505092915050565b7f45525f3031350000000000000000000000000000000000000000000000000000600082015250565b60006147d46006836133a2565b91506147df8261479e565b602082019050919050565b60006020820190508181036000830152614803816147c7565b9050919050565b7f45525f3031360000000000000000000000000000000000000000000000000000600082015250565b60006148406006836133a2565b915061484b8261480a565b602082019050919050565b6000602082019050818103600083015261486f81614833565b9050919050565b7f45525f3031370000000000000000000000000000000000000000000000000000600082015250565b60006148ac6006836133a2565b91506148b782614876565b602082019050919050565b600060208201905081810360008301526148db8161489f565b9050919050565b7f4f776e61626c653a206e6577206f776e657220697320746865207a65726f206160008201527f6464726573730000000000000000000000000000000000000000000000000000602082015250565b600061493e6026836133a2565b9150614949826148e2565b604082019050919050565b6000602082019050818103600083015261496d81614931565b9050919050565b7f416464726573733a20696e73756666696369656e742062616c616e6365000000600082015250565b60006149aa601d836133a2565b91506149b582614974565b602082019050919050565b600060208201905081810360008301526149d98161499d565b9050919050565b600081905092915050565b60006149f86000836149e0565b9150614a0382614473565b600082019050919050565b6000614a19826149eb565b9150819050919050565b7f416464726573733a20756e61626c6520746f2073656e642076616c75652c207260008201527f6563697069656e74206d61792068617665207265766572746564000000000000602082015250565b6000614a7f603a836133a2565b9150614a8a82614a23565b604082019050919050565b60006020820190508181036000830152614aae81614a72565b9050919050565b7f45525f3030330000000000000000000000000000000000000000000000000000600082015250565b6000614aeb6006836133a2565b9150614af682614ab5565b602082019050919050565b60006020820190508181036000830152614b1a81614ade565b9050919050565b6000819050919050565b6000614b46614b41614b3c84613549565b614b21565b613549565b9050919050565b6000614b5882614b2b565b9050919050565b6000614b6a82614b4d565b9050919050565b614b7a81614b5f565b82525050565b6000606082019050614b956000830186614b71565b614ba26020830185614b71565b614baf6040830184614b71565b949350505050565b6000819050919050565b6000819050919050565b614bdc614bd782614bb7565b614bc1565b82525050565b6000614bee8285614bcb565b602082019150614bfe82846144df565b6020820191508190509392505050565b6000614c19826135a7565b9150614c24836135a7565b925082614c3457614c33614026565b5b828206905092915050565b7f4e487b7100000000000000000000000000000000000000000000000000000000600052603260045260246000fd5b7f4e487b7100000000000000000000000000000000000000000000000000000000600052603160045260246000fdfea2646970667358221220d9fea1d9b6931fb7fd7760ee37483961e8651aaf01087cc913d242af5d006f8f64736f6c634300080b003360a06040523480156200001157600080fd5b506040516200198a3803806200198a833981810160405281019062000037919062000235565b600062000049620001c360201b60201c565b9050806000806101000a81548173ffffffffffffffffffffffffffffffffffffffff021916908373ffffffffffffffffffffffffffffffffffffffff1602179055508073ffffffffffffffffffffffffffffffffffffffff16600073ffffffffffffffffffffffffffffffffffffffff167f8be0079c531659141344cd1fd0a4f28419497f9722a3daafe3b4186f6b6457e060405160405180910390a350600073ffffffffffffffffffffffffffffffffffffffff168173ffffffffffffffffffffffffffffffffffffffff1614156200015a576040517f08c379a00000000000000000000000000000000000000000000000000000000081526004016200015190620002ee565b60405180910390fd5b8073ffffffffffffffffffffffffffffffffffffffff1660808173ffffffffffffffffffffffffffffffffffffffff16815250506000600260006101000a81548160ff02191690836002811115620001b757620001b662000310565b5b0217905550506200033f565b600033905090565b600080fd5b600073ffffffffffffffffffffffffffffffffffffffff82169050919050565b6000620001fd82620001d0565b9050919050565b6200020f81620001f0565b81146200021b57600080fd5b50565b6000815190506200022f8162000204565b92915050565b6000602082840312156200024e576200024d620001cb565b5b60006200025e848285016200021e565b91505092915050565b600082825260208201905092915050565b7f526566756e64457363726f773a2062656e65666963696172792069732074686560008201527f207a65726f206164647265737300000000000000000000000000000000000000602082015250565b6000620002d6602d8362000267565b9150620002e38262000278565b604082019050919050565b600060208201905081810360008301526200030981620002c7565b9050919050565b7f4e487b7100000000000000000000000000000000000000000000000000000000600052602160045260246000fd5b60805161162f6200035b6000396000610265015261162f6000f3fe6080604052600436106100975760003560e01c806338af3eed1461009c57806343d726d6146100c757806351cff8d9146100de578063685ca19414610107578063715018a6146101445780638c52dc411461015b5780638da5cb5b146101725780639af6549a1461019d578063c19d93fb146101b4578063e3a9db1a146101df578063f2fde38b1461021c578063f340fa0114610245575b600080fd5b3480156100a857600080fd5b506100b1610261565b6040516100be9190610e3d565b60405180910390f35b3480156100d357600080fd5b506100dc610289565b005b3480156100ea57600080fd5b5061010560048036038101906101009190610e89565b6103cb565b005b34801561011357600080fd5b5061012e60048036038101906101299190610ef4565b61041f565b60405161013b9190610f3c565b60405180910390f35b34801561015057600080fd5b50610159610457565b005b34801561016757600080fd5b50610170610591565b005b34801561017e57600080fd5b506101876106d4565b6040516101949190610f66565b60405180910390f35b3480156101a957600080fd5b506101b26106fd565b005b3480156101c057600080fd5b506101c961079c565b6040516101d69190610ff8565b60405180910390f35b3480156101eb57600080fd5b5061020660048036038101906102019190610ef4565b6107b3565b604051610213919061102c565b60405180910390f35b34801561022857600080fd5b50610243600480360381019061023e9190610ef4565b6107fc565b005b61025f600480360381019061025a9190610ef4565b6109a5565b005b60007f0000000000000000000000000000000000000000000000000000000000000000905090565b610291610a1f565b73ffffffffffffffffffffffffffffffffffffffff166102af6106d4565b73ffffffffffffffffffffffffffffffffffffffff1614610305576040517f08c379a00000000000000000000000000000000000000000000000000000000081526004016102fc906110a4565b60405180910390fd5b6000600281111561031957610318610f81565b5b61032161079c565b600281111561033357610332610f81565b5b14610373576040517f08c379a000000000000000000000000000000000000000000000000000000000815260040161036a90611136565b60405180910390fd5b60028060006101000a81548160ff0219169083600281111561039857610397610f81565b5b02179055507f088672c3a6e342f7cd94a65ba63b79df24a8973927b4d05d803c44bbf787d12f60405160405180910390a1565b6103d48161041f565b610413576040517f08c379a000000000000000000000000000000000000000000000000000000000815260040161040a906111c8565b60405180910390fd5b61041c81610a27565b50565b60006001600281111561043557610434610f81565b5b61043d61079c565b600281111561044f5761044e610f81565b5b149050919050565b61045f610a1f565b73ffffffffffffffffffffffffffffffffffffffff1661047d6106d4565b73ffffffffffffffffffffffffffffffffffffffff16146104d3576040517f08c379a00000000000000000000000000000000000000000000000000000000081526004016104ca906110a4565b60405180910390fd5b600073ffffffffffffffffffffffffffffffffffffffff1660008054906101000a900473ffffffffffffffffffffffffffffffffffffffff1673ffffffffffffffffffffffffffffffffffffffff167f8be0079c531659141344cd1fd0a4f28419497f9722a3daafe3b4186f6b6457e060405160405180910390a360008060006101000a81548173ffffffffffffffffffffffffffffffffffffffff021916908373ffffffffffffffffffffffffffffffffffffffff160217905550565b610599610a1f565b73ffffffffffffffffffffffffffffffffffffffff166105b76106d4565b73ffffffffffffffffffffffffffffffffffffffff161461060d576040517f08c379a0000000000000000000000000000000000000000000000000000000008152600401610604906110a4565b60405180910390fd5b6000600281111561062157610620610f81565b5b61062961079c565b600281111561063b5761063a610f81565b5b1461067b576040517f08c379a00000000000000000000000000000000000000000000000000000000081526004016106729061125a565b60405180910390fd5b6001600260006101000a81548160ff021916908360028111156106a1576106a0610f81565b5b02179055507f599d8e5a83cffb867d051598c4d70e805d59802d8081c1c7d6dffc5b6aca2b8960405160405180910390a1565b60008060009054906101000a900473ffffffffffffffffffffffffffffffffffffffff16905090565b6002808111156107105761070f610f81565b5b61071861079c565b600281111561072a57610729610f81565b5b1461076a576040517f08c379a0000000000000000000000000000000000000000000000000000000008152600401610761906112ec565b60405180910390fd5b61079a47610776610261565b73ffffffffffffffffffffffffffffffffffffffff16610ba790919063ffffffff16565b565b6000600260009054906101000a900460ff16905090565b6000600160008373ffffffffffffffffffffffffffffffffffffffff1673ffffffffffffffffffffffffffffffffffffffff168152602001908152602001600020549050919050565b610804610a1f565b73ffffffffffffffffffffffffffffffffffffffff166108226106d4565b73ffffffffffffffffffffffffffffffffffffffff1614610878576040517f08c379a000000000000000000000000000000000000000000000000000000000815260040161086f906110a4565b60405180910390fd5b600073ffffffffffffffffffffffffffffffffffffffff168173ffffffffffffffffffffffffffffffffffffffff1614156108e8576040517f08c379a00000000000000000000000000000000000000000000000000000000081526004016108df9061137e565b60405180910390fd5b8073ffffffffffffffffffffffffffffffffffffffff1660008054906101000a900473ffffffffffffffffffffffffffffffffffffffff1673ffffffffffffffffffffffffffffffffffffffff167f8be0079c531659141344cd1fd0a4f28419497f9722a3daafe3b4186f6b6457e060405160405180910390a3806000806101000a81548173ffffffffffffffffffffffffffffffffffffffff021916908373ffffffffffffffffffffffffffffffffffffffff16021790555050565b600060028111156109b9576109b8610f81565b5b6109c161079c565b60028111156109d3576109d2610f81565b5b14610a13576040517f08c379a0000000000000000000000000000000000000000000000000000000008152600401610a0a90611410565b60405180910390fd5b610a1c81610c9b565b50565b600033905090565b610a2f610a1f565b73ffffffffffffffffffffffffffffffffffffffff16610a4d6106d4565b73ffffffffffffffffffffffffffffffffffffffff1614610aa3576040517f08c379a0000000000000000000000000000000000000000000000000000000008152600401610a9a906110a4565b60405180910390fd5b6000600160008373ffffffffffffffffffffffffffffffffffffffff1673ffffffffffffffffffffffffffffffffffffffff1681526020019081526020016000205490506000600160008473ffffffffffffffffffffffffffffffffffffffff1673ffffffffffffffffffffffffffffffffffffffff16815260200190815260200160002081905550610b55818373ffffffffffffffffffffffffffffffffffffffff16610ba790919063ffffffff16565b8173ffffffffffffffffffffffffffffffffffffffff167f7084f5476618d8e60b11ef0d7d3f06914655adb8793e28ff7f018d4c76d505d582604051610b9b919061102c565b60405180910390a25050565b80471015610bea576040517f08c379a0000000000000000000000000000000000000000000000000000000008152600401610be19061147c565b60405180910390fd5b60008273ffffffffffffffffffffffffffffffffffffffff1682604051610c10906114cd565b60006040518083038185875af1925050503d8060008114610c4d576040519150601f19603f3d011682016040523d82523d6000602084013e610c52565b606091505b5050905080610c96576040517f08c379a0000000000000000000000000000000000000000000000000000000008152600401610c8d90611554565b60405180910390fd5b505050565b610ca3610a1f565b73ffffffffffffffffffffffffffffffffffffffff16610cc16106d4565b73ffffffffffffffffffffffffffffffffffffffff1614610d17576040517f08c379a0000000000000000000000000000000000000000000000000000000008152600401610d0e906110a4565b60405180910390fd5b600034905080600160008473ffffffffffffffffffffffffffffffffffffffff1673ffffffffffffffffffffffffffffffffffffffff16815260200190815260200160002054610d6791906115a3565b600160008473ffffffffffffffffffffffffffffffffffffffff1673ffffffffffffffffffffffffffffffffffffffff168152602001908152602001600020819055508173ffffffffffffffffffffffffffffffffffffffff167f2da466a7b24304f47e87fa2e1e5a81b9831ce54fec19055ce277ca2f39ba42c482604051610df0919061102c565b60405180910390a25050565b600073ffffffffffffffffffffffffffffffffffffffff82169050919050565b6000610e2782610dfc565b9050919050565b610e3781610e1c565b82525050565b6000602082019050610e526000830184610e2e565b92915050565b600080fd5b610e6681610e1c565b8114610e7157600080fd5b50565b600081359050610e8381610e5d565b92915050565b600060208284031215610e9f57610e9e610e58565b5b6000610ead84828501610e74565b91505092915050565b6000610ec182610dfc565b9050919050565b610ed181610eb6565b8114610edc57600080fd5b50565b600081359050610eee81610ec8565b92915050565b600060208284031215610f0a57610f09610e58565b5b6000610f1884828501610edf565b91505092915050565b60008115159050919050565b610f3681610f21565b82525050565b6000602082019050610f516000830184610f2d565b92915050565b610f6081610eb6565b82525050565b6000602082019050610f7b6000830184610f57565b92915050565b7f4e487b7100000000000000000000000000000000000000000000000000000000600052602160045260246000fd5b60038110610fc157610fc0610f81565b5b50565b6000819050610fd282610fb0565b919050565b6000610fe282610fc4565b9050919050565b610ff281610fd7565b82525050565b600060208201905061100d6000830184610fe9565b92915050565b6000819050919050565b61102681611013565b82525050565b6000602082019050611041600083018461101d565b92915050565b600082825260208201905092915050565b7f4f776e61626c653a2063616c6c6572206973206e6f7420746865206f776e6572600082015250565b600061108e602083611047565b915061109982611058565b602082019050919050565b600060208201905081810360008301526110bd81611081565b9050919050565b7f526566756e64457363726f773a2063616e206f6e6c7920636c6f73652077686960008201527f6c65206163746976650000000000000000000000000000000000000000000000602082015250565b6000611120602983611047565b915061112b826110c4565b604082019050919050565b6000602082019050818103600083015261114f81611113565b9050919050565b7f436f6e646974696f6e616c457363726f773a207061796565206973206e6f742060008201527f616c6c6f77656420746f20776974686472617700000000000000000000000000602082015250565b60006111b2603383611047565b91506111bd82611156565b604082019050919050565b600060208201905081810360008301526111e1816111a5565b9050919050565b7f526566756e64457363726f773a2063616e206f6e6c7920656e61626c6520726560008201527f66756e6473207768696c65206163746976650000000000000000000000000000602082015250565b6000611244603283611047565b915061124f826111e8565b604082019050919050565b6000602082019050818103600083015261127381611237565b9050919050565b7f526566756e64457363726f773a2062656e65666963696172792063616e206f6e60008201527f6c79207769746864726177207768696c6520636c6f7365640000000000000000602082015250565b60006112d6603883611047565b91506112e18261127a565b604082019050919050565b60006020820190508181036000830152611305816112c9565b9050919050565b7f4f776e61626c653a206e6577206f776e657220697320746865207a65726f206160008201527f6464726573730000000000000000000000000000000000000000000000000000602082015250565b6000611368602683611047565b91506113738261130c565b604082019050919050565b600060208201905081810360008301526113978161135b565b9050919050565b7f526566756e64457363726f773a2063616e206f6e6c79206465706f736974207760008201527f68696c6520616374697665000000000000000000000000000000000000000000602082015250565b60006113fa602b83611047565b91506114058261139e565b604082019050919050565b60006020820190508181036000830152611429816113ed565b9050919050565b7f416464726573733a20696e73756666696369656e742062616c616e6365000000600082015250565b6000611466601d83611047565b915061147182611430565b602082019050919050565b6000602082019050818103600083015261149581611459565b9050919050565b600081905092915050565b50565b60006114b760008361149c565b91506114c2826114a7565b600082019050919050565b60006114d8826114aa565b9150819050919050565b7f416464726573733a20756e61626c6520746f2073656e642076616c75652c207260008201527f6563697069656e74206d61792068617665207265766572746564000000000000602082015250565b600061153e603a83611047565b9150611549826114e2565b604082019050919050565b6000602082019050818103600083015261156d81611531565b9050919050565b7f4e487b7100000000000000000000000000000000000000000000000000000000600052601160045260246000fd5b60006115ae82611013565b91506115b983611013565b9250827fffffffffffffffffffffffffffffffffffffffffffffffffffffffffffffffff038211156115ee576115ed611574565b5b82820190509291505056fea26469706673582212204b6643c9b034da848eda0477a71665d956d169b3e0728e730eeebfcf789f06ef64736f6c634300080b0033a2646970667358221220ec2a6aa2dafec4a0b7ae7d685fe50ffa3621f02b01bf5f9d4132d711c89e767c64736f6c634300080b0033608060405234801561001057600080fd5b5060006100216100c460201b60201c565b9050806000806101000a81548173ffffffffffffffffffffffffffffffffffffffff021916908373ffffffffffffffffffffffffffffffffffffffff1602179055508073ffffffffffffffffffffffffffffffffffffffff16600073ffffffffffffffffffffffffffffffffffffffff167f8be0079c531659141344cd1fd0a4f28419497f9722a3daafe3b4186f6b6457e060405160405180910390a3506100cc565b600033905090565b612475806100db6000396000f3fe608060405234801561001057600080fd5b50600436106100fc5760003560e01c80630222813e146101015780630ae5e7391461011f5780633d1d4bcb1461013b5780633f18c9a51461016f57806346502d941461018b5780634ac1ad78146101bf5780634ddcbfcc146101ef5780634e75e1aa1461020b5780635a8474bb1461023c578063715018a61461025857806376608c7f1461026257806385e685311461027e5780638da5cb5b1461029a5780639cde1522146102b8578063cdf31432146102e8578063d6ca019814610304578063e4d235d114610335578063f1e626c314610351578063f2fde38b14610385578063fef201f3146103a1575b600080fd5b6101096103c3565b6040516101169190611812565b60405180910390f35b6101396004803603810190610134919061189f565b6103d3565b005b61015560048036038101906101509190611a12565b6104a9565b604051610166959493929190611c63565b60405180910390f35b61018960048036038101906101849190611cf7565b6104d5565b005b6101a560048036038101906101a09190611d82565b6105c9565b6040516101b6959493929190611c63565b60405180910390f35b6101d960048036038101906101d49190611d82565b610866565b6040516101e69190611dcb565b60405180910390f35b61020960048036038101906102049190611de6565b610896565b005b61022560048036038101906102209190611e42565b610987565b604051610233929190611eba565b60405180910390f35b61025660048036038101906102519190611d82565b6109a7565b005b610260610a95565b005b61027c60048036038101906102779190611de6565b610bcf565b005b6102986004803603810190610293919061189f565b610ca8565b005b6102a2610d7f565b6040516102af9190611ef2565b60405180910390f35b6102d260048036038101906102cd9190611d82565b610da8565b6040516102df9190611812565b60405180910390f35b61030260048036038101906102fd9190611d82565b610dfa565b005b61031e60048036038101906103199190611f0d565b610ed1565b60405161032c929190611eba565b60405180910390f35b61034f600480360381019061034a9190611cf7565b610f58565b005b61036b60048036038101906103669190611f98565b611033565b60405161037c959493929190611c63565b60405180910390f35b61039f600480360381019061039a919061189f565b6112f6565b005b6103a961149f565b6040516103ba959493929190611c63565b60405180910390f35b60006103ce42610da8565b905090565b6103db6114c8565b73ffffffffffffffffffffffffffffffffffffffff166103f9610d7f565b73ffffffffffffffffffffffffffffffffffffffff161461044f576040517f08c379a000000000000000000000000000000000000000000000000000000000815260040161044690612051565b60405180910390fd5b60018060008373ffffffffffffffffffffffffffffffffffffffff1673ffffffffffffffffffffffffffffffffffffffff16815260200190815260200160002060006101000a81548160ff02191690831515021790555050565b60008060608060606104c26104bc6103c3565b87611033565b9450945094509450945091939590929450565b600160003373ffffffffffffffffffffffffffffffffffffffff1673ffffffffffffffffffffffffffffffffffffffff16815260200190815260200160002060009054906101000a900460ff168061055f57503373ffffffffffffffffffffffffffffffffffffffff16610547610d7f565b73ffffffffffffffffffffffffffffffffffffffff16145b61059e576040517f08c379a0000000000000000000000000000000000000000000000000000000008152600401610595906120bd565b60405180910390fd5b60006105a86103c3565b90506105b6818585856114d0565b6105c360008585856114d0565b50505050565b60008060608060606000808714156105e457600290506105fa565b6008600088815260200190815260200160002090505b806002015495508060030154945080600401805480602002602001604051908101604052809291908181526020016000905b828210156106d857838290600052602060002001805461064b9061210c565b80601f01602080910402602001604051908101604052809291908181526020018280546106779061210c565b80156106c45780601f10610699576101008083540402835291602001916106c4565b820191906000526020600020905b8154815290600101906020018083116106a757829003601f168201915b50505050508152602001906001019061062c565b5050505091506000825167ffffffffffffffff8111156106fb576106fa6118e7565b5b6040519080825280602002602001820160405280156107295781602001602082028036833780820191505090505b5090506000835167ffffffffffffffff811115610749576107486118e7565b5b6040519080825280602002602001820160405280156107775781602001602082028036833780820191505090505b50905060005b8451811015610853578360050185828151811061079d5761079c61213e565b5b60200260200101516040516107b291906121a9565b9081526020016040518091039020600001548382815181106107d7576107d661213e565b5b602002602001018181525050836005018582815181106107fa576107f961213e565b5b602002602001015160405161080f91906121a9565b9081526020016040518091039020600101548282815181106108345761083361213e565b5b602002602001018181525050808061084b906121ef565b91505061077d565b5081955080945050505091939590929450565b600060076004620151808461087b9190612267565b6108859190612298565b61088f91906122ee565b9050919050565b600160003373ffffffffffffffffffffffffffffffffffffffff1673ffffffffffffffffffffffffffffffffffffffff16815260200190815260200160002060009054906101000a900460ff168061092057503373ffffffffffffffffffffffffffffffffffffffff16610908610d7f565b73ffffffffffffffffffffffffffffffffffffffff16145b61095f576040517f08c379a0000000000000000000000000000000000000000000000000000000008152600401610956906120bd565b60405180910390fd5b60006109696103c3565b9050610976818484611605565b61098260008484611605565b505050565b60008061099c6109956103c3565b8585610ed1565b915091509250929050565b600160003373ffffffffffffffffffffffffffffffffffffffff1673ffffffffffffffffffffffffffffffffffffffff16815260200190815260200160002060009054906101000a900460ff1680610a3157503373ffffffffffffffffffffffffffffffffffffffff16610a19610d7f565b73ffffffffffffffffffffffffffffffffffffffff16145b610a70576040517f08c379a0000000000000000000000000000000000000000000000000000000008152600401610a67906120bd565b60405180910390fd5b6000610a7a6103c3565b9050610a8681836116db565b610a916000836116db565b5050565b610a9d6114c8565b73ffffffffffffffffffffffffffffffffffffffff16610abb610d7f565b73ffffffffffffffffffffffffffffffffffffffff1614610b11576040517f08c379a0000000000000000000000000000000000000000000000000000000008152600401610b0890612051565b60405180910390fd5b600073ffffffffffffffffffffffffffffffffffffffff1660008054906101000a900473ffffffffffffffffffffffffffffffffffffffff1673ffffffffffffffffffffffffffffffffffffffff167f8be0079c531659141344cd1fd0a4f28419497f9722a3daafe3b4186f6b6457e060405160405180910390a360008060006101000a81548173ffffffffffffffffffffffffffffffffffffffff021916908373ffffffffffffffffffffffffffffffffffffffff160217905550565b600160003373ffffffffffffffffffffffffffffffffffffffff1673ffffffffffffffffffffffffffffffffffffffff16815260200190815260200160002060009054906101000a900460ff1680610c5957503373ffffffffffffffffffffffffffffffffffffffff16610c41610d7f565b73ffffffffffffffffffffffffffffffffffffffff16145b610c98576040517f08c379a0000000000000000000000000000000000000000000000000000000008152600401610c8f906120bd565b60405180910390fd5b610ca460008383611605565b5050565b610cb06114c8565b73ffffffffffffffffffffffffffffffffffffffff16610cce610d7f565b73ffffffffffffffffffffffffffffffffffffffff1614610d24576040517f08c379a0000000000000000000000000000000000000000000000000000000008152600401610d1b90612051565b60405180910390fd5b6000600160008373ffffffffffffffffffffffffffffffffffffffff1673ffffffffffffffffffffffffffffffffffffffff16815260200190815260200160002060006101000a81548160ff02191690831515021790555050565b60008060009054906101000a900473ffffffffffffffffffffffffffffffffffffffff16905090565b600080610db483610866565b60ff1690506201518081610dc8919061231f565b83610dd39190612379565b92506201518083610de491906122ee565b83610def9190612379565b925082915050919050565b600160003373ffffffffffffffffffffffffffffffffffffffff1673ffffffffffffffffffffffffffffffffffffffff16815260200190815260200160002060009054906101000a900460ff1680610e8457503373ffffffffffffffffffffffffffffffffffffffff16610e6c610d7f565b73ffffffffffffffffffffffffffffffffffffffff16145b610ec3576040517f08c379a0000000000000000000000000000000000000000000000000000000008152600401610eba906120bd565b60405180910390fd5b610ece6000826116db565b50565b600080600080861415610ee75760029050610efd565b6008600087815260200190815260200160002090505b60008160050186604051610f1191906121a9565b908152602001604051809103902060030185604051610f3091906121a9565b9081526020016040518091039020905080600001549350806001015492505050935093915050565b600160003373ffffffffffffffffffffffffffffffffffffffff1673ffffffffffffffffffffffffffffffffffffffff16815260200190815260200160002060009054906101000a900460ff1680610fe257503373ffffffffffffffffffffffffffffffffffffffff16610fca610d7f565b73ffffffffffffffffffffffffffffffffffffffff16145b611021576040517f08c379a0000000000000000000000000000000000000000000000000000000008152600401611018906120bd565b60405180910390fd5b61102e60008484846114d0565b505050565b600080606080606060008088141561104e5760029050611064565b6008600089815260200190815260200160002090505b6000816005018860405161107891906121a9565b90815260200160405180910390209050806000015496508060010154955080600201805480602002602001604051908101604052809291908181526020016000905b828210156111665783829060005260206000200180546110d99061210c565b80601f01602080910402602001604051908101604052809291908181526020018280546111059061210c565b80156111525780601f1061112757610100808354040283529160200191611152565b820191906000526020600020905b81548152906001019060200180831161113557829003601f168201915b5050505050815260200190600101906110ba565b5050505092506000835167ffffffffffffffff811115611189576111886118e7565b5b6040519080825280602002602001820160405280156111b75781602001602082028036833780820191505090505b5090506000845167ffffffffffffffff8111156111d7576111d66118e7565b5b6040519080825280602002602001820160405280156112055781602001602082028036833780820191505090505b50905060005b85518110156112e1578360030186828151811061122b5761122a61213e565b5b602002602001015160405161124091906121a9565b9081526020016040518091039020600001548382815181106112655761126461213e565b5b602002602001018181525050836003018682815181106112885761128761213e565b5b602002602001015160405161129d91906121a9565b9081526020016040518091039020600101548282815181106112c2576112c161213e565b5b60200260200101818152505080806112d9906121ef565b91505061120b565b50819650809550505050509295509295909350565b6112fe6114c8565b73ffffffffffffffffffffffffffffffffffffffff1661131c610d7f565b73ffffffffffffffffffffffffffffffffffffffff1614611372576040517f08c379a000000000000000000000000000000000000000000000000000000000815260040161136990612051565b60405180910390fd5b600073ffffffffffffffffffffffffffffffffffffffff168173ffffffffffffffffffffffffffffffffffffffff1614156113e2576040517f08c379a00000000000000000000000000000000000000000000000000000000081526004016113d99061241f565b60405180910390fd5b8073ffffffffffffffffffffffffffffffffffffffff1660008054906101000a900473ffffffffffffffffffffffffffffffffffffffff1673ffffffffffffffffffffffffffffffffffffffff167f8be0079c531659141344cd1fd0a4f28419497f9722a3daafe3b4186f6b6457e060405160405180910390a3806000806101000a81548173ffffffffffffffffffffffffffffffffffffffff021916908373ffffffffffffffffffffffffffffffffffffffff16021790555050565b60008060608060606114b76114b26103c3565b6105c9565b945094509450945094509091929394565b600033905090565b6114db848483611605565b6000808514156114ee57600290506114f9565b6114f6611735565b90505b6000816005018560405161150d91906121a9565b908152602001604051809103902090506000816003018560405161153191906121a9565b908152602001604051809103902090506000816001015414156115c557816002018590806001815401808255809150506001900390600052602060002001600090919091909150908051906020019061158b929190611756565b5080826003018660405161159f91906121a9565b908152602001604051809103902060008201548160000155600182015481600101559050505b60018160010160008282546115da9190612298565b92505081905550838160000160008282546115f59190612298565b9250508190555050505050505050565b61160f83826116db565b600080841415611622576002905061162d565b61162a611735565b90505b6000816005018460405161164191906121a9565b9081526020016040518091039020905060008160010154141561169d57816004018490806001815401808255809150506001900390600052602060002001600090919091909150908051906020019061169b929190611756565b505b60018160010160008282546116b29190612298565b92505081905550828160000160008282546116cd9190612298565b925050819055505050505050565b6000808314156116ee57600290506116f9565b6116f6611735565b90505b600181600301600082825461170e9190612298565b92505081905550818160020160008282546117299190612298565b92505081905550505050565b6000600860006117436103c3565b8152602001908152602001600020905090565b8280546117629061210c565b90600052602060002090601f01602090048101928261178457600085556117cb565b82601f1061179d57805160ff19168380011785556117cb565b828001600101855582156117cb579182015b828111156117ca5782518255916020019190600101906117af565b5b5090506117d891906117dc565b5090565b5b808211156117f55760008160009055506001016117dd565b5090565b6000819050919050565b61180c816117f9565b82525050565b60006020820190506118276000830184611803565b92915050565b6000604051905090565b600080fd5b600080fd5b600073ffffffffffffffffffffffffffffffffffffffff82169050919050565b600061186c82611841565b9050919050565b61187c81611861565b811461188757600080fd5b50565b60008135905061189981611873565b92915050565b6000602082840312156118b5576118b4611837565b5b60006118c38482850161188a565b91505092915050565b600080fd5b600080fd5b6000601f19601f8301169050919050565b7f4e487b7100000000000000000000000000000000000000000000000000000000600052604160045260246000fd5b61191f826118d6565b810181811067ffffffffffffffff8211171561193e5761193d6118e7565b5b80604052505050565b600061195161182d565b905061195d8282611916565b919050565b600067ffffffffffffffff82111561197d5761197c6118e7565b5b611986826118d6565b9050602081019050919050565b82818337600083830152505050565b60006119b56119b084611962565b611947565b9050828152602081018484840111156119d1576119d06118d1565b5b6119dc848285611993565b509392505050565b600082601f8301126119f9576119f86118cc565b5b8135611a098482602086016119a2565b91505092915050565b600060208284031215611a2857611a27611837565b5b600082013567ffffffffffffffff811115611a4657611a4561183c565b5b611a52848285016119e4565b91505092915050565b600081519050919050565b600082825260208201905092915050565b6000819050602082019050919050565b611a90816117f9565b82525050565b6000611aa28383611a87565b60208301905092915050565b6000602082019050919050565b6000611ac682611a5b565b611ad08185611a66565b9350611adb83611a77565b8060005b83811015611b0c578151611af38882611a96565b9750611afe83611aae565b925050600181019050611adf565b5085935050505092915050565b600081519050919050565b600082825260208201905092915050565b6000819050602082019050919050565b600081519050919050565b600082825260208201905092915050565b60005b83811015611b7f578082015181840152602081019050611b64565b83811115611b8e576000848401525b50505050565b6000611b9f82611b45565b611ba98185611b50565b9350611bb9818560208601611b61565b611bc2816118d6565b840191505092915050565b6000611bd98383611b94565b905092915050565b6000602082019050919050565b6000611bf982611b19565b611c038185611b24565b935083602082028501611c1585611b35565b8060005b85811015611c515784840389528151611c328582611bcd565b9450611c3d83611be1565b925060208a01995050600181019050611c19565b50829750879550505050505092915050565b600060a082019050611c786000830188611803565b611c856020830187611803565b8181036040830152611c978186611abb565b90508181036060830152611cab8185611abb565b90508181036080830152611cbf8184611bee565b90509695505050505050565b611cd4816117f9565b8114611cdf57600080fd5b50565b600081359050611cf181611ccb565b92915050565b600080600060608486031215611d1057611d0f611837565b5b600084013567ffffffffffffffff811115611d2e57611d2d61183c565b5b611d3a868287016119e4565b935050602084013567ffffffffffffffff811115611d5b57611d5a61183c565b5b611d67868287016119e4565b9250506040611d7886828701611ce2565b9150509250925092565b600060208284031215611d9857611d97611837565b5b6000611da684828501611ce2565b91505092915050565b600060ff82169050919050565b611dc581611daf565b82525050565b6000602082019050611de06000830184611dbc565b92915050565b60008060408385031215611dfd57611dfc611837565b5b600083013567ffffffffffffffff811115611e1b57611e1a61183c565b5b611e27858286016119e4565b9250506020611e3885828601611ce2565b9150509250929050565b60008060408385031215611e5957611e58611837565b5b600083013567ffffffffffffffff811115611e7757611e7661183c565b5b611e83858286016119e4565b925050602083013567ffffffffffffffff811115611ea457611ea361183c565b5b611eb0858286016119e4565b9150509250929050565b6000604082019050611ecf6000830185611803565b611edc6020830184611803565b9392505050565b611eec81611861565b82525050565b6000602082019050611f076000830184611ee3565b92915050565b600080600060608486031215611f2657611f25611837565b5b6000611f3486828701611ce2565b935050602084013567ffffffffffffffff811115611f5557611f5461183c565b5b611f61868287016119e4565b925050604084013567ffffffffffffffff811115611f8257611f8161183c565b5b611f8e868287016119e4565b9150509250925092565b60008060408385031215611faf57611fae611837565b5b6000611fbd85828601611ce2565b925050602083013567ffffffffffffffff811115611fde57611fdd61183c565b5b611fea858286016119e4565b9150509250929050565b600082825260208201905092915050565b7f4f776e61626c653a2063616c6c6572206973206e6f7420746865206f776e6572600082015250565b600061203b602083611ff4565b915061204682612005565b602082019050919050565b6000602082019050818103600083015261206a8161202e565b9050919050565b7f43616e6e6f7420616363657373207265706f7274696e672066756e6374696f6e600082015250565b60006120a7602083611ff4565b91506120b282612071565b602082019050919050565b600060208201905081810360008301526120d68161209a565b9050919050565b7f4e487b7100000000000000000000000000000000000000000000000000000000600052602260045260246000fd5b6000600282049050600182168061212457607f821691505b60208210811415612138576121376120dd565b5b50919050565b7f4e487b7100000000000000000000000000000000000000000000000000000000600052603260045260246000fd5b600081905092915050565b600061218382611b45565b61218d818561216d565b935061219d818560208601611b61565b80840191505092915050565b60006121b58284612178565b915081905092915050565b7f4e487b7100000000000000000000000000000000000000000000000000000000600052601160045260246000fd5b60006121fa826117f9565b91507fffffffffffffffffffffffffffffffffffffffffffffffffffffffffffffffff82141561222d5761222c6121c0565b5b600182019050919050565b7f4e487b7100000000000000000000000000000000000000000000000000000000600052601260045260246000fd5b6000612272826117f9565b915061227d836117f9565b92508261228d5761228c612238565b5b828204905092915050565b60006122a3826117f9565b91506122ae836117f9565b9250827fffffffffffffffffffffffffffffffffffffffffffffffffffffffffffffffff038211156122e3576122e26121c0565b5b828201905092915050565b60006122f9826117f9565b9150612304836117f9565b92508261231457612313612238565b5b828206905092915050565b600061232a826117f9565b9150612335836117f9565b9250817fffffffffffffffffffffffffffffffffffffffffffffffffffffffffffffffff048311821515161561236e5761236d6121c0565b5b828202905092915050565b6000612384826117f9565b915061238f836117f9565b9250828210156123a2576123a16121c0565b5b828203905092915050565b7f4f776e61626c653a206e6577206f776e657220697320746865207a65726f206160008201527f6464726573730000000000000000000000000000000000000000000000000000602082015250565b6000612409602683611ff4565b9150612414826123ad565b604082019050919050565b60006020820190508181036000830152612438816123fc565b905091905056fea264697066735822122016ebaf12369f0bedf58c626163808e80e74460f5ab11e30ff75e23e4ee6fb82064736f6c634300080b0033",
  "immutableReferences": {},
  "source": "// contracts/GameItem.sol\r\n// SPDX-License-Identifier: MIT\r\npragma solidity ^0.8.0;\r\n\r\nimport \"@openzeppelin/contracts/access/Ownable.sol\";\r\nimport \"@openzeppelin/contracts/token/ERC721/ERC721.sol\";\r\nimport \"@openzeppelin/contracts/token/ERC721/extensions/ERC721URIStorage.sol\";\r\nimport \"@openzeppelin/contracts/token/ERC721/IERC721Receiver.sol\";\r\nimport \"@openzeppelin/contracts/token/ERC721/IERC721.sol\";\r\nimport \"@openzeppelin/contracts/utils/Counters.sol\";\r\nimport \"./SocialGame.sol\";\r\nimport \"./ISocialGameToken.sol\";\r\nimport \"./reports/Report.sol\";\r\n\r\n/**\r\n * @title Social Change Game Token\r\n * @notice Smart Contract developed for the Harmony One Round 2 Hackathon on Gitcoin\r\n * @dev Contract that represents entries in the game as NFTs. Note a single token contract\r\n * is deployed. We track the game by its game-id and game address. Tokens of active games\r\n * cannot be transferred. Once a game is completed, the NFT can be used to represent the\r\n * participation of an address in the Social Game and can be transferred to others\r\n *\r\n * Intended usage: Track the tickets issued for all Social Change Games and act as a factory\r\n * to create SocialGames. SHMT tokens represent a badge of honor for how much donations were\r\n * made. It can also be used to endorse future games, giving the endorser some tokens back\r\n *\r\n * @author victaphu\r\n */\r\ncontract SocialGameToken is\r\n    ERC721URIStorage,\r\n    ISocialGameToken,\r\n    IERC721Receiver,\r\n    Ownable\r\n{\r\n    using Counters for Counters.Counter;\r\n\r\n    event GameCreated(address SocialGame, uint256 gameId);\r\n\r\n    uint256 public constant MAX_ENDORSERS = 20;\r\n    uint256 public constant DEFAULT_PLAYERS = 100;\r\n    uint256 public constant DEFAULT_ENTRY_COST = 1 ether;\r\n\r\n    Counters.Counter private _tokenIds;\r\n    Counters.Counter private _gameIds;\r\n\r\n    // mapping of social game contract address to game id\r\n    mapping(address => uint256) private _socialGameIds;\r\n\r\n    address[] private _socialGameAddresses;\r\n\r\n    // mapping of game id to active status, true for active, false for inactive\r\n    mapping(uint256 => bool) private _gameStatus;\r\n\r\n    // mapping of token id to game id\r\n    mapping(uint256 => uint256) private _tokenToGameId;\r\n\r\n    struct ERC721Details {\r\n        address from;\r\n        uint256 tokenId;\r\n        address erc721Address;\r\n    }\r\n\r\n    // mapping of game to external erc721 token\r\n    mapping(uint256 => ERC721Details) private _extensionERC721Token;\r\n\r\n    // onchain reporting of events that happen\r\n    Report private _reporting;\r\n\r\n    address private _owner;\r\n\r\n    constructor() ERC721(\"SocialHarmonyToken\", \"SHMT\") {\r\n        _reporting = new Report();\r\n        _owner = msg.sender;\r\n    }\r\n\r\n    /**\r\n     * @dev this factory function initialises and creates a social game. The operator is the owner of the\r\n     * social game, and the beneficiary receives the payout. The necessary configuration options are\r\n     * supplied as part of the arguments.\r\n     * Capture the event {GameCreated} to read the address of the created game. Use default endorsers for the game\r\n     *\r\n     * @param operator the owner of the social game\r\n     * @param beneficiary_ the benefactor of the funds for the completed game\r\n     * @param participants_ total participants for a successful game\r\n     * @param pricePerRound_ total price of a ticket per entry\r\n     * @return gameId_ the id of the game played\r\n     */\r\n    function createSocialGame(\r\n        address operator,\r\n        address payable beneficiary_,\r\n        uint256 participants_,\r\n        uint256 pricePerRound_\r\n    ) public returns (uint256 gameId_) {\r\n        gameId_ = createSocialGame(\r\n            operator,\r\n            beneficiary_,\r\n            participants_,\r\n            pricePerRound_,\r\n            MAX_ENDORSERS\r\n        );\r\n    }\r\n\r\n    /**\r\n     * @dev this factory function initialises and creates a social game. The operator is the owner of the\r\n     * social game, and the beneficiary receives the payout. The necessary configuration options are\r\n     * supplied as part of the arguments.\r\n     * Capture the event {GameCreated} to read the address of the created game\r\n     *\r\n     * @param operator the owner of the social game\r\n     * @param beneficiary_ the benefactor of the funds for the completed game\r\n     * @param participants_ total participants for a successful game\r\n     * @param pricePerRound_ total price of a ticket per entry\r\n     * @param totalEndorsers endorsements required before a game may begin. set to 0 for no endorsements\r\n     * @return gameId_ the id of the game played\r\n     */\r\n    function createSocialGame(\r\n        address operator,\r\n        address payable beneficiary_,\r\n        uint256 participants_,\r\n        uint256 pricePerRound_,\r\n        uint256 totalEndorsers\r\n    ) public returns (uint256 gameId_) {\r\n        // return new instance of social game, transferring ownership\r\n\r\n        if (_gameIds.current() == 0) { // first game is a initial offering and endorsers are set to 0\r\n            require(\r\n                operator == _owner,\r\n                \"ER_028\"\r\n            );\r\n            totalEndorsers = 0;\r\n        }\r\n        _gameIds.increment();\r\n        gameId_ = _gameIds.current();\r\n        SocialGame game = new SocialGame(\r\n            beneficiary_,\r\n            participants_,\r\n            pricePerRound_,\r\n            gameId_,\r\n            totalEndorsers,\r\n            address(this),\r\n            address(_reporting)\r\n        );\r\n        game.transferOwnership(operator);\r\n        _socialGameIds[address(game)] = gameId_;\r\n        _gameStatus[game.gameId()] = true;\r\n        _reporting.grantAccess(address(game));\r\n        _socialGameAddresses.push(address(game));        \r\n\r\n        emit GameCreated(address(game), gameId_);\r\n    }\r\n\r\n    function getGameAddresses() public view returns (address[] memory games) {\r\n        games = _socialGameAddresses;\r\n    }\r\n\r\n    /**\r\n     * @dev this function mints an NFT for a given player using the token URI and the\r\n     * game id. It represents a single entry in a given social game. This function can only\r\n     * be called by the SocialGame with the corresponding game id (initialised using {createSocialGame})\r\n     *\r\n     * Requirements - caller must own the game id\r\n     */\r\n    function enterGame(\r\n        address player,\r\n        string memory tokenURI_,\r\n        uint256 gameId\r\n    ) external override returns (uint256 ticket_) {\r\n        require(_socialGameIds[msg.sender] > 0, \"ER_029\");\r\n        require(\r\n            _socialGameIds[msg.sender] == gameId,\r\n            \"ER_030\"\r\n        );\r\n        _tokenIds.increment();\r\n\r\n        ticket_ = _tokenIds.current();\r\n        _mint(player, ticket_); // use safe mint ...\r\n        _setTokenURI(ticket_, tokenURI_);\r\n        _tokenToGameId[ticket_] = gameId;\r\n    }\r\n\r\n    /**\r\n     * @dev called when a social game has completed. This is called by the\r\n     * social game itself to flag that the game has completed.\r\n     *\r\n     * Requirement - game must be currently active, and the caller must own a game\r\n     */\r\n    function gameCompleted() external override {\r\n        uint256 gameId = _socialGameIds[msg.sender];\r\n        require(gameId > 0, \"ER_031\");\r\n        require(_gameStatus[gameId] == true, \"ER_032\");\r\n\r\n        SocialGame game = SocialGame(payable(msg.sender));\r\n\r\n        _reporting.revokeAccess(msg.sender);\r\n       \r\n        \r\n        _gameStatus[gameId] = false;\r\n        // once a game is completed the user can transfer the nft\r\n\r\n        if (_extensionERC721Token[gameId].tokenId > 0) {\r\n            // token id exists, lets transfer the token back to the sender\r\n            ERC721Details memory details = _extensionERC721Token[gameId];\r\n            IERC721 wrapped = IERC721(details.erc721Address);\r\n            wrapped.safeTransferFrom(\r\n                address(this),\r\n                details.from,\r\n                details.tokenId\r\n            );\r\n            // clear the details to get back some gas refund\r\n            _extensionERC721Token[gameId] = ERC721Details(\r\n                address(0x0),\r\n                0,\r\n                address(0x0)\r\n            );\r\n        }\r\n    }\r\n\r\n    /**\r\n     * @dev Prevent transfers until the game has completed. we will know the game the token belongs to\r\n     * by looking up its mapping.\r\n     */\r\n    function _beforeTokenTransfer(\r\n        address from,\r\n        address to,\r\n        uint256 tokenId\r\n    ) internal view override {\r\n        if (from == address(0)) {\r\n            return; // we are minting the token\r\n        }\r\n\r\n        require(_tokenToGameId[tokenId] > 0, \"ER_033\");\r\n        require(\r\n            _gameStatus[_tokenToGameId[tokenId]] == false,\r\n            \"ER_034\"\r\n        );\r\n    }\r\n\r\n    /**\r\n     * https://ethereum.stackexchange.com/questions/49185/solidity-conversion-bytes-memory-to-uint\r\n     * convert bytes to uint256\r\n     */\r\n    function sliceUint(bytes memory bs, uint256 start)\r\n        internal\r\n        pure\r\n        returns (uint256)\r\n    {\r\n        require(bs.length >= start + 32, \"ER_035\");\r\n        uint256 x;\r\n        assembly {\r\n            x := mload(add(bs, add(0x20, start)))\r\n        }\r\n        return x;\r\n    }\r\n\r\n    /**\r\n     * @dev Return the number of games that have been played\r\n     *\r\n     * @return gamesPlayed_ number of games played (note not successful games, just games played)\r\n     */\r\n    function getGamesPlayed() external view returns (uint256 gamesPlayed_) {\r\n        gamesPlayed_ = _gameIds.current();\r\n    }\r\n\r\n    /**\r\n     * @dev Return the address for the reporting smart contract. use it to query for data\r\n     *\r\n     * @return reporting address of the reporting smart contract\r\n     */\r\n    function getGamesReporting() external view returns (address reporting) {\r\n        reporting = address(_reporting);\r\n    }\r\n\r\n    /**\r\n     * @dev transfer an ERC721 token through safeTransferFrom to the SocialGameToken address to setup\r\n     * a social game. The supplied data argument is a concatenation of two uint256 encoded into bytes.\r\n     * First argument is the number of participants for a game, and the second argument is the price\r\n     * per round in the game. This is supplied to createSocialGame. When the game completes, the token\r\n     * is transfered back to the owner.\r\n     * Capture the GameCreated event to find the address and game id for the SocialGame contract\r\n     *\r\n     * Note at this point no validation is done to confirm that the caller is a ERC721 token contract\r\n     * @param operator is the msg.sender of the caller to the ERC721 safeTransferFrom function\r\n     * @param from address representing the previous owner of the given token ID\r\n     * @param tokenId uint256 ID of the token to be transferred\r\n     * @param data bytes optional data to send along with the call\r\n     * @return special selector as required by interface {IERC721Receiver.onERC721Received}\r\n     */\r\n    function onERC721Received(\r\n        address operator,\r\n        address from,\r\n        uint256 tokenId,\r\n        bytes calldata data\r\n    ) external override returns (bytes4) {\r\n        // 2 x 32 byte arrays, first one is num participants, second is price per round\r\n        // default values are provided\r\n        uint256 numberParticipants = DEFAULT_PLAYERS;\r\n        uint256 pricePerRound = DEFAULT_ENTRY_COST;\r\n        uint256 endorsers = MAX_ENDORSERS;\r\n\r\n        if (data.length == 96) {\r\n            numberParticipants = sliceUint(data, 0); // start at 0-31 bytes for first uint\r\n            pricePerRound = sliceUint(data, 32); // 32 bytes, 256 bits for second uint\r\n            endorsers = sliceUint(data, 64); // 64-96 bytes, number of endorsers\r\n        }\r\n        // who is ultimate message.sender?\r\n        uint256 gameId = createSocialGame(\r\n            operator,\r\n            payable(from),\r\n            numberParticipants,\r\n            pricePerRound,\r\n            endorsers\r\n        );\r\n        _extensionERC721Token[gameId] = ERC721Details(\r\n            from,\r\n            tokenId,\r\n            msg.sender\r\n        );\r\n        return this.onERC721Received.selector;\r\n    }\r\n}\r\n",
  "sourcePath": "D:\\job\\NFT\\social-harmony\\truffle\\contracts\\SocialGameToken.sol",
  "compiler": {
    "name": "solc",
    "version": "0.8.11+commit.d7f03943.Emscripten.clang"
  },
  "schemaVersion": "3.4.3",
  "updatedAt": "2022-02-14T20:28:14.600Z",
  "devdoc": {
    "author": "victaphu",
    "details": "Contract that represents entries in the game as NFTs. Note a single token contract is deployed. We track the game by its game-id and game address. Tokens of active games cannot be transferred. Once a game is completed, the NFT can be used to represent the participation of an address in the Social Game and can be transferred to others Intended usage: Track the tickets issued for all Social Change Games and act as a factory to create SocialGames. SHMT tokens represent a badge of honor for how much donations were made. It can also be used to endorse future games, giving the endorser some tokens back",
    "kind": "dev",
    "methods": {
      "approve(address,uint256)": {
        "details": "See {IERC721-approve}."
      },
      "balanceOf(address)": {
        "details": "See {IERC721-balanceOf}."
      },
      "createSocialGame(address,address,uint256,uint256)": {
        "details": "this factory function initialises and creates a social game. The operator is the owner of the social game, and the beneficiary receives the payout. The necessary configuration options are supplied as part of the arguments. Capture the event {GameCreated} to read the address of the created game. Use default endorsers for the game",
        "params": {
          "beneficiary_": "the benefactor of the funds for the completed game",
          "operator": "the owner of the social game",
          "participants_": "total participants for a successful game",
          "pricePerRound_": "total price of a ticket per entry"
        },
        "returns": {
          "gameId_": "the id of the game played"
        }
      },
      "createSocialGame(address,address,uint256,uint256,uint256)": {
        "details": "this factory function initialises and creates a social game. The operator is the owner of the social game, and the beneficiary receives the payout. The necessary configuration options are supplied as part of the arguments. Capture the event {GameCreated} to read the address of the created game",
        "params": {
          "beneficiary_": "the benefactor of the funds for the completed game",
          "operator": "the owner of the social game",
          "participants_": "total participants for a successful game",
          "pricePerRound_": "total price of a ticket per entry",
          "totalEndorsers": "endorsements required before a game may begin. set to 0 for no endorsements"
        },
        "returns": {
          "gameId_": "the id of the game played"
        }
      },
      "enterGame(address,string,uint256)": {
        "details": "this function mints an NFT for a given player using the token URI and the game id. It represents a single entry in a given social game. This function can only be called by the SocialGame with the corresponding game id (initialised using {createSocialGame}) Requirements - caller must own the game id"
      },
      "gameCompleted()": {
        "details": "called when a social game has completed. This is called by the social game itself to flag that the game has completed. Requirement - game must be currently active, and the caller must own a game"
      },
      "getApproved(uint256)": {
        "details": "See {IERC721-getApproved}."
      },
      "getGamesPlayed()": {
        "details": "Return the number of games that have been played",
        "returns": {
          "gamesPlayed_": "number of games played (note not successful games, just games played)"
        }
      },
      "getGamesReporting()": {
        "details": "Return the address for the reporting smart contract. use it to query for data",
        "returns": {
          "reporting": "address of the reporting smart contract"
        }
      },
      "isApprovedForAll(address,address)": {
        "details": "See {IERC721-isApprovedForAll}."
      },
      "name()": {
        "details": "See {IERC721Metadata-name}."
      },
      "onERC721Received(address,address,uint256,bytes)": {
        "details": "transfer an ERC721 token through safeTransferFrom to the SocialGameToken address to setup a social game. The supplied data argument is a concatenation of two uint256 encoded into bytes. First argument is the number of participants for a game, and the second argument is the price per round in the game. This is supplied to createSocialGame. When the game completes, the token is transfered back to the owner. Capture the GameCreated event to find the address and game id for the SocialGame contract Note at this point no validation is done to confirm that the caller is a ERC721 token contract",
        "params": {
          "data": "bytes optional data to send along with the call",
          "from": "address representing the previous owner of the given token ID",
          "operator": "is the msg.sender of the caller to the ERC721 safeTransferFrom function",
          "tokenId": "uint256 ID of the token to be transferred"
        },
        "returns": {
          "_0": "special selector as required by interface {IERC721Receiver.onERC721Received}"
        }
      },
      "owner()": {
        "details": "Returns the address of the current owner."
      },
      "ownerOf(uint256)": {
        "details": "See {IERC721-ownerOf}."
      },
      "renounceOwnership()": {
        "details": "Leaves the contract without owner. It will not be possible to call `onlyOwner` functions anymore. Can only be called by the current owner. NOTE: Renouncing ownership will leave the contract without an owner, thereby removing any functionality that is only available to the owner."
      },
      "safeTransferFrom(address,address,uint256)": {
        "details": "See {IERC721-safeTransferFrom}."
      },
      "safeTransferFrom(address,address,uint256,bytes)": {
        "details": "See {IERC721-safeTransferFrom}."
      },
      "setApprovalForAll(address,bool)": {
        "details": "See {IERC721-setApprovalForAll}."
      },
      "supportsInterface(bytes4)": {
        "details": "See {IERC165-supportsInterface}."
      },
      "symbol()": {
        "details": "See {IERC721Metadata-symbol}."
      },
      "tokenURI(uint256)": {
        "details": "See {IERC721Metadata-tokenURI}."
      },
      "transferFrom(address,address,uint256)": {
        "details": "See {IERC721-transferFrom}."
      },
      "transferOwnership(address)": {
        "details": "Transfers ownership of the contract to a new account (`newOwner`). Can only be called by the current owner."
      }
    },
    "title": "Social Change Game Token",
    "version": 1
  },
  "userdoc": {
    "kind": "user",
    "methods": {},
    "notice": "Smart Contract developed for the Harmony One Round 2 Hackathon on Gitcoin",
    "version": 1
  }
}